{
  "_format": "hh-sol-artifact-1",
  "contractName": "OldContract",
  "sourceName": "contracts/Old_Contract.sol",
  "abi": [
    {
      "inputs": [
        {
          "internalType": "uint64",
          "name": "subscriptionId",
          "type": "uint64"
        }
      ],
      "stateMutability": "nonpayable",
      "type": "constructor"
    },
    {
      "inputs": [
        {
          "internalType": "address",
          "name": "have",
          "type": "address"
        },
        {
          "internalType": "address",
          "name": "want",
          "type": "address"
        }
      ],
      "name": "OnlyCoordinatorCanFulfill",
      "type": "error"
    },
    {
      "anonymous": false,
      "inputs": [
        {
          "indexed": true,
          "internalType": "address",
          "name": "from",
          "type": "address"
        },
        {
          "indexed": true,
          "internalType": "address",
          "name": "to",
          "type": "address"
        }
      ],
      "name": "OwnershipTransferRequested",
      "type": "event"
    },
    {
      "anonymous": false,
      "inputs": [
        {
          "indexed": true,
          "internalType": "address",
          "name": "from",
          "type": "address"
        },
        {
          "indexed": true,
          "internalType": "address",
          "name": "to",
          "type": "address"
        }
      ],
      "name": "OwnershipTransferred",
      "type": "event"
    },
    {
      "anonymous": false,
      "inputs": [
        {
          "indexed": false,
          "internalType": "uint256",
          "name": "requestId",
          "type": "uint256"
        },
        {
          "indexed": false,
          "internalType": "address[]",
          "name": "usersAssigned",
          "type": "address[]"
        }
      ],
      "name": "UsersAssigned",
      "type": "event"
    },
    {
      "inputs": [],
      "name": "GROUP_SIZE",
      "outputs": [
        {
          "internalType": "uint256",
          "name": "",
          "type": "uint256"
        }
      ],
      "stateMutability": "view",
      "type": "function"
    },
    {
      "inputs": [],
      "name": "acceptOwnership",
      "outputs": [],
      "stateMutability": "nonpayable",
      "type": "function"
    },
    {
      "inputs": [
        {
          "internalType": "address",
          "name": "_user",
          "type": "address"
        }
      ],
      "name": "addUser",
      "outputs": [],
      "stateMutability": "nonpayable",
      "type": "function"
    },
    {
      "inputs": [
        {
          "internalType": "uint256",
          "name": "requestId",
          "type": "uint256"
        }
      ],
      "name": "getAssignedUsers",
      "outputs": [
        {
          "internalType": "address[]",
          "name": "",
          "type": "address[]"
        }
      ],
      "stateMutability": "view",
      "type": "function"
    },
    {
      "inputs": [
        {
          "internalType": "uint256",
          "name": "",
          "type": "uint256"
        },
        {
          "internalType": "uint256",
          "name": "",
          "type": "uint256"
        }
      ],
      "name": "groups",
      "outputs": [
        {
          "internalType": "address",
          "name": "",
          "type": "address"
        }
      ],
      "stateMutability": "view",
      "type": "function"
    },
    {
      "inputs": [],
      "name": "lastRequestId",
      "outputs": [
        {
          "internalType": "uint256",
          "name": "",
          "type": "uint256"
        }
      ],
      "stateMutability": "view",
      "type": "function"
    },
    {
      "inputs": [],
      "name": "owner",
      "outputs": [
        {
          "internalType": "address",
          "name": "",
          "type": "address"
        }
      ],
      "stateMutability": "view",
      "type": "function"
    },
    {
      "inputs": [
        {
          "internalType": "uint256",
          "name": "requestId",
          "type": "uint256"
        },
        {
          "internalType": "uint256[]",
          "name": "randomWords",
          "type": "uint256[]"
        }
      ],
      "name": "rawFulfillRandomWords",
      "outputs": [],
      "stateMutability": "nonpayable",
      "type": "function"
    },
    {
      "inputs": [],
      "name": "requestRandomUsers",
      "outputs": [],
      "stateMutability": "nonpayable",
      "type": "function"
    },
    {
      "inputs": [
        {
          "internalType": "address",
          "name": "to",
          "type": "address"
        }
      ],
      "name": "transferOwnership",
      "outputs": [],
      "stateMutability": "nonpayable",
      "type": "function"
    },
    {
      "inputs": [
        {
          "internalType": "uint256",
          "name": "",
          "type": "uint256"
        }
      ],
      "name": "users",
      "outputs": [
        {
          "internalType": "address",
          "name": "",
          "type": "address"
        }
      ],
      "stateMutability": "view",
      "type": "function"
    }
  ],
  "bytecode": "0x60a06040523480156200001157600080fd5b5060405162001948380380620019488339818101604052810190620000379190620003bd565b33806000738103b0a8a00be2ddc778e6e7eaa21791cd3646258073ffffffffffffffffffffffffffffffffffffffff1660808173ffffffffffffffffffffffffffffffffffffffff1660601b8152505050600073ffffffffffffffffffffffffffffffffffffffff168273ffffffffffffffffffffffffffffffffffffffff161415620000fb576040517f08c379a0000000000000000000000000000000000000000000000000000000008152600401620000f29062000450565b60405180910390fd5b816000806101000a81548173ffffffffffffffffffffffffffffffffffffffff021916908373ffffffffffffffffffffffffffffffffffffffff160217905550600073ffffffffffffffffffffffffffffffffffffffff168173ffffffffffffffffffffffffffffffffffffffff1614620001825762000181816200024360201b60201c565b5b505050738103b0a8a00be2ddc778e6e7eaa21791cd364625600260006101000a81548173ffffffffffffffffffffffffffffffffffffffff021916908373ffffffffffffffffffffffffffffffffffffffff1602179055507f474e34a077df58807dbe9c96d3c009b23b3c6d0cce433e59bbf5b34f823bc56c60001b6003819055506703782dace9d9000060048190555080600560006101000a81548167ffffffffffffffff021916908367ffffffffffffffff16021790555050620004e4565b3373ffffffffffffffffffffffffffffffffffffffff168173ffffffffffffffffffffffffffffffffffffffff161415620002b5576040517f08c379a0000000000000000000000000000000000000000000000000000000008152600401620002ac90620004c2565b60405180910390fd5b80600160006101000a81548173ffffffffffffffffffffffffffffffffffffffff021916908373ffffffffffffffffffffffffffffffffffffffff1602179055508073ffffffffffffffffffffffffffffffffffffffff1660008054906101000a900473ffffffffffffffffffffffffffffffffffffffff1673ffffffffffffffffffffffffffffffffffffffff167fed8889f560326eb138920d842192f0eb3dd22b4f139c87a2c57538e05bae127860405160405180910390a350565b600080fd5b600067ffffffffffffffff82169050919050565b620003978162000378565b8114620003a357600080fd5b50565b600081519050620003b7816200038c565b92915050565b600060208284031215620003d657620003d562000373565b5b6000620003e684828501620003a6565b91505092915050565b600082825260208201905092915050565b7f43616e6e6f7420736574206f776e657220746f207a65726f0000000000000000600082015250565b600062000438601883620003ef565b9150620004458262000400565b602082019050919050565b600060208201905081810360008301526200046b8162000429565b9050919050565b7f43616e6e6f74207472616e7366657220746f2073656c66000000000000000000600082015250565b6000620004aa601783620003ef565b9150620004b78262000472565b602082019050919050565b60006020820190508181036000830152620004dd816200049b565b9050919050565b60805160601c61143e6200050a600039600081816102a301526102f7015261143e6000f3fe608060405234801561001057600080fd5b50600436106100a95760003560e01c80634ae855cf116100715780634ae855cf1461015057806379ba5097146101805780638da5cb5b1461018a578063f2fde38b146101a8578063f901c9e4146101c4578063fc2a88c3146101e2576100a9565b80631f93a5b5146100ae5780631fe543e3146100de57806329864f12146100fa578063365b98b214610104578063421b2d8b14610134575b600080fd5b6100c860048036038101906100c39190610b72565b610200565b6040516100d59190610c8f565b60405180910390f35b6100f860048036038101906100f39190610e0a565b6102a1565b005b610102610361565b005b61011e60048036038101906101199190610b72565b610449565b60405161012b9190610e75565b60405180910390f35b61014e60048036038101906101499190610ebc565b610488565b005b61016a60048036038101906101659190610ee9565b6104ee565b6040516101779190610e75565b60405180910390f35b61018861053c565b005b6101926106d1565b60405161019f9190610e75565b60405180910390f35b6101c260048036038101906101bd9190610ebc565b6106fa565b005b6101cc61070e565b6040516101d99190610f38565b60405180910390f35b6101ea610713565b6040516101f79190610f38565b60405180910390f35b60606008600083815260200190815260200160002080548060200260200160405190810160405280929190818152602001828054801561029557602002820191906000526020600020905b8160009054906101000a900473ffffffffffffffffffffffffffffffffffffffff1673ffffffffffffffffffffffffffffffffffffffff168152602001906001019080831161024b575b50505050509050919050565b7f000000000000000000000000000000000000000000000000000000000000000073ffffffffffffffffffffffffffffffffffffffff163373ffffffffffffffffffffffffffffffffffffffff161461035357337f00000000000000000000000000000000000000000000000000000000000000006040517f1cf993f400000000000000000000000000000000000000000000000000000000815260040161034a929190610f53565b60405180910390fd5b61035d8282610719565b5050565b6103696108c4565b6000600260009054906101000a900473ffffffffffffffffffffffffffffffffffffffff1673ffffffffffffffffffffffffffffffffffffffff16635d3b1d30600354600560009054906101000a900467ffffffffffffffff16600362030d4060016040518663ffffffff1660e01b81526004016103eb959493929190611091565b602060405180830381600087803b15801561040557600080fd5b505af1158015610419573d6000803e3d6000fd5b505050506040513d601f19601f8201168201806040525081019061043d91906110f9565b90508060068190555050565b6007818154811061045957600080fd5b906000526020600020016000915054906101000a900473ffffffffffffffffffffffffffffffffffffffff1681565b6007819080600181540180825580915050600190039060005260206000200160009091909190916101000a81548173ffffffffffffffffffffffffffffffffffffffff021916908373ffffffffffffffffffffffffffffffffffffffff16021790555050565b6008602052816000526040600020818154811061050a57600080fd5b906000526020600020016000915091509054906101000a900473ffffffffffffffffffffffffffffffffffffffff1681565b600160009054906101000a900473ffffffffffffffffffffffffffffffffffffffff1673ffffffffffffffffffffffffffffffffffffffff163373ffffffffffffffffffffffffffffffffffffffff16146105cc576040517f08c379a00000000000000000000000000000000000000000000000000000000081526004016105c390611183565b60405180910390fd5b60008060009054906101000a900473ffffffffffffffffffffffffffffffffffffffff169050336000806101000a81548173ffffffffffffffffffffffffffffffffffffffff021916908373ffffffffffffffffffffffffffffffffffffffff1602179055506000600160006101000a81548173ffffffffffffffffffffffffffffffffffffffff021916908373ffffffffffffffffffffffffffffffffffffffff1602179055503373ffffffffffffffffffffffffffffffffffffffff168173ffffffffffffffffffffffffffffffffffffffff167f8be0079c531659141344cd1fd0a4f28419497f9722a3daafe3b4186f6b6457e060405160405180910390a350565b60008060009054906101000a900473ffffffffffffffffffffffffffffffffffffffff16905090565b6107026108c4565b61070b81610954565b50565b600a81565b60065481565b600060078054905082600081518110610735576107346111a3565b5b60200260200101516107479190611201565b90506000600a67ffffffffffffffff81111561076657610765610cc7565b5b6040519080825280602002602001820160405280156107945781602001602082028036833780820191505090505b50905060005b600a81101561085c576007808054905082856107b69190611261565b6107c09190611201565b815481106107d1576107d06111a3565b5b9060005260206000200160009054906101000a900473ffffffffffffffffffffffffffffffffffffffff1682828151811061080f5761080e6111a3565b5b602002602001019073ffffffffffffffffffffffffffffffffffffffff16908173ffffffffffffffffffffffffffffffffffffffff16815250508080610854906112b7565b91505061079a565b5080600860008681526020019081526020016000209080519060200190610884929190610a81565b507ff630f3c111e1f0b46096447f69ae9c4cae4ae02858e959b1f5fb3acd4d5a4a1c84826040516108b6929190611300565b60405180910390a150505050565b60008054906101000a900473ffffffffffffffffffffffffffffffffffffffff1673ffffffffffffffffffffffffffffffffffffffff163373ffffffffffffffffffffffffffffffffffffffff1614610952576040517f08c379a00000000000000000000000000000000000000000000000000000000081526004016109499061137c565b60405180910390fd5b565b3373ffffffffffffffffffffffffffffffffffffffff168173ffffffffffffffffffffffffffffffffffffffff1614156109c3576040517f08c379a00000000000000000000000000000000000000000000000000000000081526004016109ba906113e8565b60405180910390fd5b80600160006101000a81548173ffffffffffffffffffffffffffffffffffffffff021916908373ffffffffffffffffffffffffffffffffffffffff1602179055508073ffffffffffffffffffffffffffffffffffffffff1660008054906101000a900473ffffffffffffffffffffffffffffffffffffffff1673ffffffffffffffffffffffffffffffffffffffff167fed8889f560326eb138920d842192f0eb3dd22b4f139c87a2c57538e05bae127860405160405180910390a350565b828054828255906000526020600020908101928215610afa579160200282015b82811115610af95782518260006101000a81548173ffffffffffffffffffffffffffffffffffffffff021916908373ffffffffffffffffffffffffffffffffffffffff16021790555091602001919060010190610aa1565b5b509050610b079190610b0b565b5090565b5b80821115610b24576000816000905550600101610b0c565b5090565b6000604051905090565b600080fd5b600080fd5b6000819050919050565b610b4f81610b3c565b8114610b5a57600080fd5b50565b600081359050610b6c81610b46565b92915050565b600060208284031215610b8857610b87610b32565b5b6000610b9684828501610b5d565b91505092915050565b600081519050919050565b600082825260208201905092915050565b6000819050602082019050919050565b600073ffffffffffffffffffffffffffffffffffffffff82169050919050565b6000610bf682610bcb565b9050919050565b610c0681610beb565b82525050565b6000610c188383610bfd565b60208301905092915050565b6000602082019050919050565b6000610c3c82610b9f565b610c468185610baa565b9350610c5183610bbb565b8060005b83811015610c82578151610c698882610c0c565b9750610c7483610c24565b925050600181019050610c55565b5085935050505092915050565b60006020820190508181036000830152610ca98184610c31565b905092915050565b600080fd5b6000601f19601f8301169050919050565b7f4e487b7100000000000000000000000000000000000000000000000000000000600052604160045260246000fd5b610cff82610cb6565b810181811067ffffffffffffffff82111715610d1e57610d1d610cc7565b5b80604052505050565b6000610d31610b28565b9050610d3d8282610cf6565b919050565b600067ffffffffffffffff821115610d5d57610d5c610cc7565b5b602082029050602081019050919050565b600080fd5b6000610d86610d8184610d42565b610d27565b90508083825260208201905060208402830185811115610da957610da8610d6e565b5b835b81811015610dd25780610dbe8882610b5d565b845260208401935050602081019050610dab565b5050509392505050565b600082601f830112610df157610df0610cb1565b5b8135610e01848260208601610d73565b91505092915050565b60008060408385031215610e2157610e20610b32565b5b6000610e2f85828601610b5d565b925050602083013567ffffffffffffffff811115610e5057610e4f610b37565b5b610e5c85828601610ddc565b9150509250929050565b610e6f81610beb565b82525050565b6000602082019050610e8a6000830184610e66565b92915050565b610e9981610beb565b8114610ea457600080fd5b50565b600081359050610eb681610e90565b92915050565b600060208284031215610ed257610ed1610b32565b5b6000610ee084828501610ea7565b91505092915050565b60008060408385031215610f0057610eff610b32565b5b6000610f0e85828601610b5d565b9250506020610f1f85828601610b5d565b9150509250929050565b610f3281610b3c565b82525050565b6000602082019050610f4d6000830184610f29565b92915050565b6000604082019050610f686000830185610e66565b610f756020830184610e66565b9392505050565b6000819050919050565b610f8f81610f7c565b82525050565b600067ffffffffffffffff82169050919050565b610fb281610f95565b82525050565b6000819050919050565b600061ffff82169050919050565b6000819050919050565b6000610ff5610ff0610feb84610fb8565b610fd0565b610fc2565b9050919050565b61100581610fda565b82525050565b6000819050919050565b600063ffffffff82169050919050565b600061104061103b6110368461100b565b610fd0565b611015565b9050919050565b61105081611025565b82525050565b6000819050919050565b600061107b61107661107184611056565b610fd0565b611015565b9050919050565b61108b81611060565b82525050565b600060a0820190506110a66000830188610f86565b6110b36020830187610fa9565b6110c06040830186610ffc565b6110cd6060830185611047565b6110da6080830184611082565b9695505050505050565b6000815190506110f381610b46565b92915050565b60006020828403121561110f5761110e610b32565b5b600061111d848285016110e4565b91505092915050565b600082825260208201905092915050565b7f4d7573742062652070726f706f736564206f776e657200000000000000000000600082015250565b600061116d601683611126565b915061117882611137565b602082019050919050565b6000602082019050818103600083015261119c81611160565b9050919050565b7f4e487b7100000000000000000000000000000000000000000000000000000000600052603260045260246000fd5b7f4e487b7100000000000000000000000000000000000000000000000000000000600052601260045260246000fd5b600061120c82610b3c565b915061121783610b3c565b925082611227576112266111d2565b5b828206905092915050565b7f4e487b7100000000000000000000000000000000000000000000000000000000600052601160045260246000fd5b600061126c82610b3c565b915061127783610b3c565b9250827fffffffffffffffffffffffffffffffffffffffffffffffffffffffffffffffff038211156112ac576112ab611232565b5b828201905092915050565b60006112c282610b3c565b91507fffffffffffffffffffffffffffffffffffffffffffffffffffffffffffffffff8214156112f5576112f4611232565b5b600182019050919050565b60006040820190506113156000830185610f29565b81810360208301526113278184610c31565b90509392505050565b7f4f6e6c792063616c6c61626c65206279206f776e657200000000000000000000600082015250565b6000611366601683611126565b915061137182611330565b602082019050919050565b6000602082019050818103600083015261139581611359565b9050919050565b7f43616e6e6f74207472616e7366657220746f2073656c66000000000000000000600082015250565b60006113d2601783611126565b91506113dd8261139c565b602082019050919050565b60006020820190508181036000830152611401816113c5565b905091905056fea2646970667358221220e071881b32e4ad0a00e1ab99c5b36982271da112ab1c376838de89eba15a232264736f6c63430008080033",
  "linkReferences": {},
  "deployedLinkReferences": {}
}