{"contracts/Challenges.sol":{"Challenges":{"abi":[{"anonymous":false,"inputs":[{"indexed":true,"internalType":"uint256","name":"challengeId","type":"uint256"},{"indexed":true,"internalType":"address","name":"recipient","type":"address"},{"indexed":false,"internalType":"string","name":"challengeText","type":"string"}],"name":"ChallengeCreated","type":"event"},{"anonymous":false,"inputs":[{"indexed":true,"internalType":"uint256","name":"challengeId","type":"uint256"},{"indexed":false,"internalType":"uint256","name":"res","type":"uint256"}],"name":"ChallengeVerified","type":"event"},{"anonymous":false,"inputs":[{"indexed":true,"internalType":"address","name":"recipient","type":"address"},{"indexed":false,"internalType":"string","name":"challengeText","type":"string"},{"indexed":false,"internalType":"bytes32[]","name":"groupHashArray","type":"bytes32[]"}],"name":"GroupHashStored","type":"event"},{"anonymous":false,"inputs":[{"indexed":true,"internalType":"uint256","name":"challengeId","type":"uint256"},{"indexed":true,"internalType":"uint256","name":"subChallengeIndex","type":"uint256"},{"indexed":false,"internalType":"bytes32","name":"subSolution","type":"bytes32"}],"name":"SubChallengeSolved","type":"event"},{"anonymous":false,"inputs":[{"indexed":false,"internalType":"string","name":"challengeId","type":"string"}],"name":"log","type":"event"},{"anonymous":false,"inputs":[{"indexed":false,"internalType":"bytes","name":"solved","type":"bytes"}],"name":"log2","type":"event"},{"anonymous":false,"inputs":[{"indexed":false,"internalType":"bytes32","name":"solved","type":"bytes32"}],"name":"log3","type":"event"},{"inputs":[],"name":"BIT_RANGE","outputs":[{"internalType":"uint256","name":"","type":"uint256"}],"stateMutability":"view","type":"function"},{"inputs":[],"name":"BLOCK_LIMIT","outputs":[{"internalType":"uint256","name":"","type":"uint256"}],"stateMutability":"view","type":"function"},{"inputs":[],"name":"START_BIT","outputs":[{"internalType":"uint256","name":"","type":"uint256"}],"stateMutability":"view","type":"function"},{"inputs":[{"internalType":"uint256","name":"","type":"uint256"}],"name":"challenges","outputs":[{"internalType":"address","name":"recipient","type":"address"},{"internalType":"string","name":"challengeText","type":"string"},{"internalType":"uint256","name":"startBlock","type":"uint256"},{"internalType":"bool","name":"solved","type":"bool"}],"stateMutability":"view","type":"function"},{"inputs":[{"internalType":"address","name":"_recipient","type":"address"},{"internalType":"string","name":"_challengeText","type":"string"},{"internalType":"bytes32[]","name":"_subChallenges","type":"bytes32[]"}],"name":"createChallenge","outputs":[],"stateMutability":"nonpayable","type":"function"},{"inputs":[{"internalType":"string","name":"s","type":"string"}],"name":"fromHex","outputs":[{"internalType":"bytes","name":"","type":"bytes"}],"stateMutability":"pure","type":"function"},{"inputs":[{"internalType":"uint8","name":"c","type":"uint8"}],"name":"fromHexChar","outputs":[{"internalType":"uint8","name":"","type":"uint8"}],"stateMutability":"pure","type":"function"},{"inputs":[],"name":"getBitRange","outputs":[{"internalType":"uint256","name":"","type":"uint256"}],"stateMutability":"pure","type":"function"},{"inputs":[{"internalType":"uint256","name":"_index","type":"uint256"}],"name":"getChallenge","outputs":[{"internalType":"address","name":"","type":"address"},{"internalType":"string","name":"","type":"string"},{"internalType":"bytes32[]","name":"","type":"bytes32[]"},{"internalType":"string[]","name":"","type":"string[]"},{"internalType":"bool","name":"","type":"bool"}],"stateMutability":"view","type":"function"},{"inputs":[{"internalType":"address","name":"recipient","type":"address"}],"name":"getGroupHash","outputs":[{"internalType":"bytes32[]","name":"","type":"bytes32[]"}],"stateMutability":"view","type":"function"},{"inputs":[],"name":"getStartBit","outputs":[{"internalType":"uint256","name":"","type":"uint256"}],"stateMutability":"pure","type":"function"},{"inputs":[{"internalType":"uint256","name":"_challengeIndex","type":"uint256"},{"internalType":"string[]","name":"_subSolutions","type":"string[]"}],"name":"solveChallenge","outputs":[],"stateMutability":"nonpayable","type":"function"},{"inputs":[{"internalType":"address","name":"recipient","type":"address"},{"internalType":"string","name":"challengeText","type":"string"},{"internalType":"bytes32[]","name":"groupHashArray","type":"bytes32[]"}],"name":"storeGroupHash","outputs":[],"stateMutability":"nonpayable","type":"function"},{"inputs":[{"internalType":"address","name":"","type":"address"},{"internalType":"uint256","name":"","type":"uint256"}],"name":"storedGroupHashes","outputs":[{"internalType":"bytes32","name":"","type":"bytes32"}],"stateMutability":"view","type":"function"},{"inputs":[{"internalType":"uint256","name":"_challengeIndex","type":"uint256"}],"name":"verifyChallenge","outputs":[],"stateMutability":"nonpayable","type":"function"}],"evm":{"bytecode":{"linkReferences":{},"object":"608060405234801561001057600080fd5b5061283c806100206000396000f3fe608060405234801561001057600080fd5b50600436106100f55760003560e01c80635c53d4e4116100975780638fb60ad6116100665780638fb60ad61461029f5780639238f9e3146102bd578063f3d9ea82146102d9578063fc4306bb14610309576100f5565b80635c53d4e4146102025780635e9b786b1461021e5780638e7e34d71461023c5780638f1d37761461026c576100f5565b80631bdd4b74116100d35780631bdd4b74146101645780632a94aac8146101985780632ecb20d3146101b65780633e2882bf146101e6576100f5565b80630160196b146100fa5780630aec04631461012a5780630dc715c414610148575b600080fd5b610114600480360381019061010f91906116b4565b610327565b604051610121919061170d565b60405180910390f35b610132610358565b60405161013f9190611737565b60405180910390f35b610162600480360381019061015d919061198c565b61035d565b005b61017e60048036038101906101799190611a17565b610595565b60405161018f959493929190611cc0565b60405180910390f35b6101a0610811565b6040516101ad9190611737565b60405180910390f35b6101d060048036038101906101cb9190611d61565b610816565b6040516101dd9190611d9d565b60405180910390f35b61020060048036038101906101fb9190611a17565b610bbb565b005b61021c60048036038101906102179190611e99565b610dd8565b005b61022661106b565b6040516102339190611737565b60405180910390f35b61025660048036038101906102519190611ef5565b611074565b6040516102639190611f93565b60405180910390f35b61028660048036038101906102819190611a17565b6111f8565b6040516102969493929190611fb5565b60405180910390f35b6102a76112ed565b6040516102b49190611737565b60405180910390f35b6102d760048036038101906102d2919061198c565b6112f2565b005b6102f360048036038101906102ee9190612001565b61139b565b604051610300919061202e565b60405180910390f35b610311611432565b60405161031e9190611737565b60405180910390f35b6001602052816000526040600020818154811061034357600080fd5b90600052602060002001600091509150505481565b602381565b60238151146103a1576040517f08c379a0000000000000000000000000000000000000000000000000000000008152600401610398906120c2565b60405180910390fd5b6000602367ffffffffffffffff8111156103be576103bd61176d565b5b6040519080825280602002602001820160405280156103f157816020015b60608152602001906001900390816103dc5790505b50905060006040518060c001604052808673ffffffffffffffffffffffffffffffffffffffff16815260200185815260200184815260200183815260200143815260200160001515815250908060018154018082558091505060019003906000526020600020906006020160009091909190915060008201518160000160006101000a81548173ffffffffffffffffffffffffffffffffffffffff021916908373ffffffffffffffffffffffffffffffffffffffff16021790555060208201518160010190805190602001906104c892919061143b565b5060408201518160020190805190602001906104e59291906114c1565b50606082015181600301908051906020019061050292919061150e565b506080820151816004015560a08201518160050160006101000a81548160ff02191690831515021790555050508373ffffffffffffffffffffffffffffffffffffffff1660016000805490506105589190612111565b7faf3686120498284b7a85c7a631a89f736892ddb32e262a896a8cc472c1bb005e856040516105879190612145565b60405180910390a350505050565b600060608060606000808054905086106105e4576040517f08c379a00000000000000000000000000000000000000000000000000000000081526004016105db906121b3565b60405180910390fd5b60008087815481106105f9576105f86121d3565b5b906000526020600020906006020190508060000160009054906101000a900473ffffffffffffffffffffffffffffffffffffffff168160010182600201836003018460050160009054906101000a900460ff1683805461065890612231565b80601f016020809104026020016040519081016040528092919081815260200182805461068490612231565b80156106d15780601f106106a6576101008083540402835291602001916106d1565b820191906000526020600020905b8154815290600101906020018083116106b457829003601f168201915b505050505093508280548060200260200160405190810160405280929190818152602001828054801561072357602002820191906000526020600020905b81548152602001906001019080831161070f575b5050505050925081805480602002602001604051908101604052809291908181526020016000905b828210156107f757838290600052602060002001805461076a90612231565b80601f016020809104026020016040519081016040528092919081815260200182805461079690612231565b80156107e35780601f106107b8576101008083540402835291602001916107e3565b820191906000526020600020905b8154815290600101906020018083116107c657829003601f168201915b50505050508152602001906001019061074b565b505050509150955095509550955095505091939590929450565b602881565b60007f30000000000000000000000000000000000000000000000000000000000000007effffffffffffffffffffffffffffffffffffffffffffffffffffffffffffff19168260f81b7effffffffffffffffffffffffffffffffffffffffffffffffffffffffffffff1916101580156108f657507f39000000000000000000000000000000000000000000000000000000000000007effffffffffffffffffffffffffffffffffffffffffffffffffffffffffffff19168260f81b7effffffffffffffffffffffffffffffffffffffffffffffffffffffffffffff191611155b15610931577f300000000000000000000000000000000000000000000000000000000000000060f81c8261092a9190612263565b9050610bb6565b7f61000000000000000000000000000000000000000000000000000000000000007effffffffffffffffffffffffffffffffffffffffffffffffffffffffffffff19168260f81b7effffffffffffffffffffffffffffffffffffffffffffffffffffffffffffff191610158015610a0f57507f66000000000000000000000000000000000000000000000000000000000000007effffffffffffffffffffffffffffffffffffffffffffffffffffffffffffff19168260f81b7effffffffffffffffffffffffffffffffffffffffffffffffffffffffffffff191611155b15610a56577f610000000000000000000000000000000000000000000000000000000000000060f81c82600a610a459190612297565b610a4f9190612263565b9050610bb6565b7f41000000000000000000000000000000000000000000000000000000000000007effffffffffffffffffffffffffffffffffffffffffffffffffffffffffffff19168260f81b7effffffffffffffffffffffffffffffffffffffffffffffffffffffffffffff191610158015610b3457507f46000000000000000000000000000000000000000000000000000000000000007effffffffffffffffffffffffffffffffffffffffffffffffffffffffffffff19168260f81b7effffffffffffffffffffffffffffffffffffffffffffffffffffffffffffff191611155b15610b7b577f410000000000000000000000000000000000000000000000000000000000000060f81c82600a610b6a9190612297565b610b749190612263565b9050610bb6565b6040517f08c379a0000000000000000000000000000000000000000000000000000000008152600401610bad9061231a565b60405180910390fd5b919050565b6000805490508110610c02576040517f08c379a0000000000000000000000000000000000000000000000000000000008152600401610bf9906121b3565b60405180910390fd5b6000808281548110610c1757610c166121d3565b5b9060005260206000209060060201905060008060019050600091505b6023821015610d7e57826002018281548110610c5257610c516121d3565b5b90600052602060002001546002610d10856003018581548110610c7857610c776121d3565b5b906000526020600020018054610c8d90612231565b80601f0160208091040260200160405190810160405280929190818152602001828054610cb990612231565b8015610d065780601f10610cdb57610100808354040283529160200191610d06565b820191906000526020600020905b815481529060010190602001808311610ce957829003601f168201915b5050505050611074565b604051610d1d9190612376565b602060405180830381855afa158015610d3a573d6000803e3d6000fd5b5050506040513d601f19601f82011682018060405250810190610d5d91906123a2565b14610d6b5760009050610d7e565b8180610d76906123cf565b925050610c33565b808360050160006101000a81548160ff021916908315150217905550837fed287b85322607d368e29155e2b399aace27679511a17db14b426f852847688383604051610dca9190611737565b60405180910390a250505050565b6000805490508210610e1f576040517f08c379a0000000000000000000000000000000000000000000000000000000008152600401610e16906121b3565b60405180910390fd5b602381511115610e64576040517f08c379a0000000000000000000000000000000000000000000000000000000008152600401610e5b90612464565b60405180910390fd5b6000808381548110610e7957610e786121d3565b5b906000526020600020906006020190508060050160009054906101000a900460ff1615610edb576040517f08c379a0000000000000000000000000000000000000000000000000000000008152600401610ed2906124d0565b60405180910390fd5b8060000160009054906101000a900473ffffffffffffffffffffffffffffffffffffffff1673ffffffffffffffffffffffffffffffffffffffff163373ffffffffffffffffffffffffffffffffffffffff1614610f6d576040517f08c379a0000000000000000000000000000000000000000000000000000000008152600401610f6490612562565b60405180910390fd5b60288160040154610f7e9190612582565b431115610fc0576040517f08c379a0000000000000000000000000000000000000000000000000000000008152600401610fb79061264a565b60405180910390fd5b60005b825181101561106557828181518110610fdf57610fde6121d3565b5b6020026020010151826003018281548110610ffd57610ffc6121d3565b5b90600052602060002001908051906020019061101a92919061143b565b5080847f300b48d50c243521a20b41f4990ca7faa4991349bf9596908df396d2a3ed16cd60405161104a90612690565b60405180910390a3808061105d906123cf565b915050610fc3565b50505050565b6000601e905090565b6060600082905060006002825161108b91906126d8565b1461109557600080fd5b6000600282516110a59190612709565b67ffffffffffffffff8111156110be576110bd61176d565b5b6040519080825280601f01601f1916602001820160405280156110f05781602001600182028036833780820191505090505b50905060005b600283516111049190612709565b8110156111ed5761114c83600183600261111e919061273a565b6111289190612582565b81518110611139576111386121d3565b5b602001015160f81c60f81b60f81c610816565b60106111838584600261115f919061273a565b815181106111705761116f6121d3565b5b602001015160f81c60f81b60f81c610816565b61118d9190612794565b6111979190612297565b60f81b8282815181106111ad576111ac6121d3565b5b60200101907effffffffffffffffffffffffffffffffffffffffffffffffffffffffffffff1916908160001a905350806111e6906123cf565b90506110f6565b508092505050919050565b6000818154811061120857600080fd5b90600052602060002090600602016000915090508060000160009054906101000a900473ffffffffffffffffffffffffffffffffffffffff169080600101805461125190612231565b80601f016020809104026020016040519081016040528092919081815260200182805461127d90612231565b80156112ca5780601f1061129f576101008083540402835291602001916112ca565b820191906000526020600020905b8154815290600101906020018083116112ad57829003601f168201915b5050505050908060040154908060050160009054906101000a900460ff16905084565b601e81565b80600160008573ffffffffffffffffffffffffffffffffffffffff1673ffffffffffffffffffffffffffffffffffffffff16815260200190815260200160002090805190602001906113459291906114c1565b508273ffffffffffffffffffffffffffffffffffffffff167f545592993c371cf37deb35fd8934967acacb9a2753d006658abf01b2b8bdddfa838360405161138e9291906127cf565b60405180910390a2505050565b6060600160008373ffffffffffffffffffffffffffffffffffffffff1673ffffffffffffffffffffffffffffffffffffffff16815260200190815260200160002080548060200260200160405190810160405280929190818152602001828054801561142657602002820191906000526020600020905b815481526020019060010190808311611412575b50505050509050919050565b60006023905090565b82805461144790612231565b90600052602060002090601f01602090048101928261146957600085556114b0565b82601f1061148257805160ff19168380011785556114b0565b828001600101855582156114b0579182015b828111156114af578251825591602001919060010190611494565b5b5090506114bd919061156e565b5090565b8280548282559060005260206000209081019282156114fd579160200282015b828111156114fc5782518255916020019190600101906114e1565b5b50905061150a919061158b565b5090565b82805482825590600052602060002090810192821561155d579160200282015b8281111561155c57825182908051906020019061154c92919061143b565b509160200191906001019061152e565b5b50905061156a91906115a8565b5090565b5b8082111561158757600081600090555060010161156f565b5090565b5b808211156115a457600081600090555060010161158c565b5090565b5b808211156115c857600081816115bf91906115cc565b506001016115a9565b5090565b5080546115d890612231565b6000825580601f106115ea5750611609565b601f016020900490600052602060002090810190611608919061156e565b5b50565b6000604051905090565b600080fd5b600080fd5b600073ffffffffffffffffffffffffffffffffffffffff82169050919050565b600061164b82611620565b9050919050565b61165b81611640565b811461166657600080fd5b50565b60008135905061167881611652565b92915050565b6000819050919050565b6116918161167e565b811461169c57600080fd5b50565b6000813590506116ae81611688565b92915050565b600080604083850312156116cb576116ca611616565b5b60006116d985828601611669565b92505060206116ea8582860161169f565b9150509250929050565b6000819050919050565b611707816116f4565b82525050565b600060208201905061172260008301846116fe565b92915050565b6117318161167e565b82525050565b600060208201905061174c6000830184611728565b92915050565b600080fd5b600080fd5b6000601f19601f8301169050919050565b7f4e487b7100000000000000000000000000000000000000000000000000000000600052604160045260246000fd5b6117a58261175c565b810181811067ffffffffffffffff821117156117c4576117c361176d565b5b80604052505050565b60006117d761160c565b90506117e3828261179c565b919050565b600067ffffffffffffffff8211156118035761180261176d565b5b61180c8261175c565b9050602081019050919050565b82818337600083830152505050565b600061183b611836846117e8565b6117cd565b90508281526020810184848401111561185757611856611757565b5b611862848285611819565b509392505050565b600082601f83011261187f5761187e611752565b5b813561188f848260208601611828565b91505092915050565b600067ffffffffffffffff8211156118b3576118b261176d565b5b602082029050602081019050919050565b600080fd5b6118d2816116f4565b81146118dd57600080fd5b50565b6000813590506118ef816118c9565b92915050565b600061190861190384611898565b6117cd565b9050808382526020820190506020840283018581111561192b5761192a6118c4565b5b835b81811015611954578061194088826118e0565b84526020840193505060208101905061192d565b5050509392505050565b600082601f83011261197357611972611752565b5b81356119838482602086016118f5565b91505092915050565b6000806000606084860312156119a5576119a4611616565b5b60006119b386828701611669565b935050602084013567ffffffffffffffff8111156119d4576119d361161b565b5b6119e08682870161186a565b925050604084013567ffffffffffffffff811115611a0157611a0061161b565b5b611a0d8682870161195e565b9150509250925092565b600060208284031215611a2d57611a2c611616565b5b6000611a3b8482850161169f565b91505092915050565b611a4d81611640565b82525050565b600081519050919050565b600082825260208201905092915050565b60005b83811015611a8d578082015181840152602081019050611a72565b83811115611a9c576000848401525b50505050565b6000611aad82611a53565b611ab78185611a5e565b9350611ac7818560208601611a6f565b611ad08161175c565b840191505092915050565b600081519050919050565b600082825260208201905092915050565b6000819050602082019050919050565b611b10816116f4565b82525050565b6000611b228383611b07565b60208301905092915050565b6000602082019050919050565b6000611b4682611adb565b611b508185611ae6565b9350611b5b83611af7565b8060005b83811015611b8c578151611b738882611b16565b9750611b7e83611b2e565b925050600181019050611b5f565b5085935050505092915050565b600081519050919050565b600082825260208201905092915050565b6000819050602082019050919050565b600082825260208201905092915050565b6000611be182611a53565b611beb8185611bc5565b9350611bfb818560208601611a6f565b611c048161175c565b840191505092915050565b6000611c1b8383611bd6565b905092915050565b6000602082019050919050565b6000611c3b82611b99565b611c458185611ba4565b935083602082028501611c5785611bb5565b8060005b85811015611c935784840389528151611c748582611c0f565b9450611c7f83611c23565b925060208a01995050600181019050611c5b565b50829750879550505050505092915050565b60008115159050919050565b611cba81611ca5565b82525050565b600060a082019050611cd56000830188611a44565b8181036020830152611ce78187611aa2565b90508181036040830152611cfb8186611b3b565b90508181036060830152611d0f8185611c30565b9050611d1e6080830184611cb1565b9695505050505050565b600060ff82169050919050565b611d3e81611d28565b8114611d4957600080fd5b50565b600081359050611d5b81611d35565b92915050565b600060208284031215611d7757611d76611616565b5b6000611d8584828501611d4c565b91505092915050565b611d9781611d28565b82525050565b6000602082019050611db26000830184611d8e565b92915050565b600067ffffffffffffffff821115611dd357611dd261176d565b5b602082029050602081019050919050565b6000611df7611df284611db8565b6117cd565b90508083825260208201905060208402830185811115611e1a57611e196118c4565b5b835b81811015611e6157803567ffffffffffffffff811115611e3f57611e3e611752565b5b808601611e4c898261186a565b85526020850194505050602081019050611e1c565b5050509392505050565b600082601f830112611e8057611e7f611752565b5b8135611e90848260208601611de4565b91505092915050565b60008060408385031215611eb057611eaf611616565b5b6000611ebe8582860161169f565b925050602083013567ffffffffffffffff811115611edf57611ede61161b565b5b611eeb85828601611e6b565b9150509250929050565b600060208284031215611f0b57611f0a611616565b5b600082013567ffffffffffffffff811115611f2957611f2861161b565b5b611f358482850161186a565b91505092915050565b600081519050919050565b600082825260208201905092915050565b6000611f6582611f3e565b611f6f8185611f49565b9350611f7f818560208601611a6f565b611f888161175c565b840191505092915050565b60006020820190508181036000830152611fad8184611f5a565b905092915050565b6000608082019050611fca6000830187611a44565b8181036020830152611fdc8186611aa2565b9050611feb6040830185611728565b611ff86060830184611cb1565b95945050505050565b60006020828403121561201757612016611616565b5b600061202584828501611669565b91505092915050565b600060208201905081810360008301526120488184611b3b565b905092915050565b7f5468657265206d7573742062652065786163746c79203335207375622d63686160008201527f6c6c656e6765732e000000000000000000000000000000000000000000000000602082015250565b60006120ac602883611a5e565b91506120b782612050565b604082019050919050565b600060208201905081810360008301526120db8161209f565b9050919050565b7f4e487b7100000000000000000000000000000000000000000000000000000000600052601160045260246000fd5b600061211c8261167e565b91506121278361167e565b92508282101561213a576121396120e2565b5b828203905092915050565b6000602082019050818103600083015261215f8184611aa2565b905092915050565b7f4368616c6c656e676520646f6573206e6f742065786973742e00000000000000600082015250565b600061219d601983611a5e565b91506121a882612167565b602082019050919050565b600060208201905081810360008301526121cc81612190565b9050919050565b7f4e487b7100000000000000000000000000000000000000000000000000000000600052603260045260246000fd5b7f4e487b7100000000000000000000000000000000000000000000000000000000600052602260045260246000fd5b6000600282049050600182168061224957607f821691505b6020821081141561225d5761225c612202565b5b50919050565b600061226e82611d28565b915061227983611d28565b92508282101561228c5761228b6120e2565b5b828203905092915050565b60006122a282611d28565b91506122ad83611d28565b92508260ff038211156122c3576122c26120e2565b5b828201905092915050565b7f6661696c00000000000000000000000000000000000000000000000000000000600082015250565b6000612304600483611a5e565b915061230f826122ce565b602082019050919050565b60006020820190508181036000830152612333816122f7565b9050919050565b600081905092915050565b600061235082611f3e565b61235a818561233a565b935061236a818560208601611a6f565b80840191505092915050565b60006123828284612345565b915081905092915050565b60008151905061239c816118c9565b92915050565b6000602082840312156123b8576123b7611616565b5b60006123c68482850161238d565b91505092915050565b60006123da8261167e565b91507fffffffffffffffffffffffffffffffffffffffffffffffffffffffffffffffff82141561240d5761240c6120e2565b5b600182019050919050565b7f546f6f206d616e7920736f6c7574696f6e732e00000000000000000000000000600082015250565b600061244e601383611a5e565b915061245982612418565b602082019050919050565b6000602082019050818103600083015261247d81612441565b9050919050565b7f4368616c6c656e676520616c726561647920736f6c7665642e00000000000000600082015250565b60006124ba601983611a5e565b91506124c582612484565b602082019050919050565b600060208201905081810360008301526124e9816124ad565b9050919050565b7f4f6e6c792074686520726563697069656e742063616e20736f6c76652074686960008201527f73206368616c6c656e67652e0000000000000000000000000000000000000000602082015250565b600061254c602c83611a5e565b9150612557826124f0565b604082019050919050565b6000602082019050818103600083015261257b8161253f565b9050919050565b600061258d8261167e565b91506125988361167e565b9250827fffffffffffffffffffffffffffffffffffffffffffffffffffffffffffffffff038211156125cd576125cc6120e2565b5b828201905092915050565b7f536f6c7574696f6e732063616e206f6e6c79206265207265706f72746564206260008201527f65666f726520626c6f636b2074696d65206c696d697400000000000000000000602082015250565b6000612634603683611a5e565b915061263f826125d8565b604082019050919050565b6000602082019050818103600083015261266381612627565b9050919050565b7f3100000000000000000000000000000000000000000000000000000000000000815250565b60006020820190506126a46000830161266a565b919050565b7f4e487b7100000000000000000000000000000000000000000000000000000000600052601260045260246000fd5b60006126e38261167e565b91506126ee8361167e565b9250826126fe576126fd6126a9565b5b828206905092915050565b60006127148261167e565b915061271f8361167e565b92508261272f5761272e6126a9565b5b828204905092915050565b60006127458261167e565b91506127508361167e565b9250817fffffffffffffffffffffffffffffffffffffffffffffffffffffffffffffffff0483118215151615612789576127886120e2565b5b828202905092915050565b600061279f82611d28565b91506127aa83611d28565b92508160ff04831182151516156127c4576127c36120e2565b5b828202905092915050565b600060408201905081810360008301526127e98185611aa2565b905081810360208301526127fd8184611b3b565b9050939250505056fea264697066735822122089e94ce114f4c1b0ac894e298903eb4101973d91fdad7f1e47a5506e94d367b364736f6c63430008080033","opcodes":"PUSH1 0x80 PUSH1 0x40 MSTORE CALLVALUE DUP1 ISZERO PUSH2 0x10 JUMPI PUSH1 0x0 DUP1 REVERT JUMPDEST POP PUSH2 0x283C DUP1 PUSH2 0x20 PUSH1 0x0 CODECOPY PUSH1 0x0 RETURN INVALID PUSH1 0x80 PUSH1 0x40 MSTORE CALLVALUE DUP1 ISZERO PUSH2 0x10 JUMPI PUSH1 0x0 DUP1 REVERT JUMPDEST POP PUSH1 0x4 CALLDATASIZE LT PUSH2 0xF5 JUMPI PUSH1 0x0 CALLDATALOAD PUSH1 0xE0 SHR DUP1 PUSH4 0x5C53D4E4 GT PUSH2 0x97 JUMPI DUP1 PUSH4 0x8FB60AD6 GT PUSH2 0x66 JUMPI DUP1 PUSH4 0x8FB60AD6 EQ PUSH2 0x29F JUMPI DUP1 PUSH4 0x9238F9E3 EQ PUSH2 0x2BD JUMPI DUP1 PUSH4 0xF3D9EA82 EQ PUSH2 0x2D9 JUMPI DUP1 PUSH4 0xFC4306BB EQ PUSH2 0x309 JUMPI PUSH2 0xF5 JUMP JUMPDEST DUP1 PUSH4 0x5C53D4E4 EQ PUSH2 0x202 JUMPI DUP1 PUSH4 0x5E9B786B EQ PUSH2 0x21E JUMPI DUP1 PUSH4 0x8E7E34D7 EQ PUSH2 0x23C JUMPI DUP1 PUSH4 0x8F1D3776 EQ PUSH2 0x26C JUMPI PUSH2 0xF5 JUMP JUMPDEST DUP1 PUSH4 0x1BDD4B74 GT PUSH2 0xD3 JUMPI DUP1 PUSH4 0x1BDD4B74 EQ PUSH2 0x164 JUMPI DUP1 PUSH4 0x2A94AAC8 EQ PUSH2 0x198 JUMPI DUP1 PUSH4 0x2ECB20D3 EQ PUSH2 0x1B6 JUMPI DUP1 PUSH4 0x3E2882BF EQ PUSH2 0x1E6 JUMPI PUSH2 0xF5 JUMP JUMPDEST DUP1 PUSH4 0x160196B EQ PUSH2 0xFA JUMPI DUP1 PUSH4 0xAEC0463 EQ PUSH2 0x12A JUMPI DUP1 PUSH4 0xDC715C4 EQ PUSH2 0x148 JUMPI JUMPDEST PUSH1 0x0 DUP1 REVERT JUMPDEST PUSH2 0x114 PUSH1 0x4 DUP1 CALLDATASIZE SUB DUP2 ADD SWAP1 PUSH2 0x10F SWAP2 SWAP1 PUSH2 0x16B4 JUMP JUMPDEST PUSH2 0x327 JUMP JUMPDEST PUSH1 0x40 MLOAD PUSH2 0x121 SWAP2 SWAP1 PUSH2 0x170D JUMP JUMPDEST PUSH1 0x40 MLOAD DUP1 SWAP2 SUB SWAP1 RETURN JUMPDEST PUSH2 0x132 PUSH2 0x358 JUMP JUMPDEST PUSH1 0x40 MLOAD PUSH2 0x13F SWAP2 SWAP1 PUSH2 0x1737 JUMP JUMPDEST PUSH1 0x40 MLOAD DUP1 SWAP2 SUB SWAP1 RETURN JUMPDEST PUSH2 0x162 PUSH1 0x4 DUP1 CALLDATASIZE SUB DUP2 ADD SWAP1 PUSH2 0x15D SWAP2 SWAP1 PUSH2 0x198C JUMP JUMPDEST PUSH2 0x35D JUMP JUMPDEST STOP JUMPDEST PUSH2 0x17E PUSH1 0x4 DUP1 CALLDATASIZE SUB DUP2 ADD SWAP1 PUSH2 0x179 SWAP2 SWAP1 PUSH2 0x1A17 JUMP JUMPDEST PUSH2 0x595 JUMP JUMPDEST PUSH1 0x40 MLOAD PUSH2 0x18F SWAP6 SWAP5 SWAP4 SWAP3 SWAP2 SWAP1 PUSH2 0x1CC0 JUMP JUMPDEST PUSH1 0x40 MLOAD DUP1 SWAP2 SUB SWAP1 RETURN JUMPDEST PUSH2 0x1A0 PUSH2 0x811 JUMP JUMPDEST PUSH1 0x40 MLOAD PUSH2 0x1AD SWAP2 SWAP1 PUSH2 0x1737 JUMP JUMPDEST PUSH1 0x40 MLOAD DUP1 SWAP2 SUB SWAP1 RETURN JUMPDEST PUSH2 0x1D0 PUSH1 0x4 DUP1 CALLDATASIZE SUB DUP2 ADD SWAP1 PUSH2 0x1CB SWAP2 SWAP1 PUSH2 0x1D61 JUMP JUMPDEST PUSH2 0x816 JUMP JUMPDEST PUSH1 0x40 MLOAD PUSH2 0x1DD SWAP2 SWAP1 PUSH2 0x1D9D JUMP JUMPDEST PUSH1 0x40 MLOAD DUP1 SWAP2 SUB SWAP1 RETURN JUMPDEST PUSH2 0x200 PUSH1 0x4 DUP1 CALLDATASIZE SUB DUP2 ADD SWAP1 PUSH2 0x1FB SWAP2 SWAP1 PUSH2 0x1A17 JUMP JUMPDEST PUSH2 0xBBB JUMP JUMPDEST STOP JUMPDEST PUSH2 0x21C PUSH1 0x4 DUP1 CALLDATASIZE SUB DUP2 ADD SWAP1 PUSH2 0x217 SWAP2 SWAP1 PUSH2 0x1E99 JUMP JUMPDEST PUSH2 0xDD8 JUMP JUMPDEST STOP JUMPDEST PUSH2 0x226 PUSH2 0x106B JUMP JUMPDEST PUSH1 0x40 MLOAD PUSH2 0x233 SWAP2 SWAP1 PUSH2 0x1737 JUMP JUMPDEST PUSH1 0x40 MLOAD DUP1 SWAP2 SUB SWAP1 RETURN JUMPDEST PUSH2 0x256 PUSH1 0x4 DUP1 CALLDATASIZE SUB DUP2 ADD SWAP1 PUSH2 0x251 SWAP2 SWAP1 PUSH2 0x1EF5 JUMP JUMPDEST PUSH2 0x1074 JUMP JUMPDEST PUSH1 0x40 MLOAD PUSH2 0x263 SWAP2 SWAP1 PUSH2 0x1F93 JUMP JUMPDEST PUSH1 0x40 MLOAD DUP1 SWAP2 SUB SWAP1 RETURN JUMPDEST PUSH2 0x286 PUSH1 0x4 DUP1 CALLDATASIZE SUB DUP2 ADD SWAP1 PUSH2 0x281 SWAP2 SWAP1 PUSH2 0x1A17 JUMP JUMPDEST PUSH2 0x11F8 JUMP JUMPDEST PUSH1 0x40 MLOAD PUSH2 0x296 SWAP5 SWAP4 SWAP3 SWAP2 SWAP1 PUSH2 0x1FB5 JUMP JUMPDEST PUSH1 0x40 MLOAD DUP1 SWAP2 SUB SWAP1 RETURN JUMPDEST PUSH2 0x2A7 PUSH2 0x12ED JUMP JUMPDEST PUSH1 0x40 MLOAD PUSH2 0x2B4 SWAP2 SWAP1 PUSH2 0x1737 JUMP JUMPDEST PUSH1 0x40 MLOAD DUP1 SWAP2 SUB SWAP1 RETURN JUMPDEST PUSH2 0x2D7 PUSH1 0x4 DUP1 CALLDATASIZE SUB DUP2 ADD SWAP1 PUSH2 0x2D2 SWAP2 SWAP1 PUSH2 0x198C JUMP JUMPDEST PUSH2 0x12F2 JUMP JUMPDEST STOP JUMPDEST PUSH2 0x2F3 PUSH1 0x4 DUP1 CALLDATASIZE SUB DUP2 ADD SWAP1 PUSH2 0x2EE SWAP2 SWAP1 PUSH2 0x2001 JUMP JUMPDEST PUSH2 0x139B JUMP JUMPDEST PUSH1 0x40 MLOAD PUSH2 0x300 SWAP2 SWAP1 PUSH2 0x202E JUMP JUMPDEST PUSH1 0x40 MLOAD DUP1 SWAP2 SUB SWAP1 RETURN JUMPDEST PUSH2 0x311 PUSH2 0x1432 JUMP JUMPDEST PUSH1 0x40 MLOAD PUSH2 0x31E SWAP2 SWAP1 PUSH2 0x1737 JUMP JUMPDEST PUSH1 0x40 MLOAD DUP1 SWAP2 SUB SWAP1 RETURN JUMPDEST PUSH1 0x1 PUSH1 0x20 MSTORE DUP2 PUSH1 0x0 MSTORE PUSH1 0x40 PUSH1 0x0 KECCAK256 DUP2 DUP2 SLOAD DUP2 LT PUSH2 0x343 JUMPI PUSH1 0x0 DUP1 REVERT JUMPDEST SWAP1 PUSH1 0x0 MSTORE PUSH1 0x20 PUSH1 0x0 KECCAK256 ADD PUSH1 0x0 SWAP2 POP SWAP2 POP POP SLOAD DUP2 JUMP JUMPDEST PUSH1 0x23 DUP2 JUMP JUMPDEST PUSH1 0x23 DUP2 MLOAD EQ PUSH2 0x3A1 JUMPI PUSH1 0x40 MLOAD PUSH32 0x8C379A000000000000000000000000000000000000000000000000000000000 DUP2 MSTORE PUSH1 0x4 ADD PUSH2 0x398 SWAP1 PUSH2 0x20C2 JUMP JUMPDEST PUSH1 0x40 MLOAD DUP1 SWAP2 SUB SWAP1 REVERT JUMPDEST PUSH1 0x0 PUSH1 0x23 PUSH8 0xFFFFFFFFFFFFFFFF DUP2 GT ISZERO PUSH2 0x3BE JUMPI PUSH2 0x3BD PUSH2 0x176D JUMP JUMPDEST JUMPDEST PUSH1 0x40 MLOAD SWAP1 DUP1 DUP3 MSTORE DUP1 PUSH1 0x20 MUL PUSH1 0x20 ADD DUP3 ADD PUSH1 0x40 MSTORE DUP1 ISZERO PUSH2 0x3F1 JUMPI DUP2 PUSH1 0x20 ADD JUMPDEST PUSH1 0x60 DUP2 MSTORE PUSH1 0x20 ADD SWAP1 PUSH1 0x1 SWAP1 SUB SWAP1 DUP2 PUSH2 0x3DC JUMPI SWAP1 POP JUMPDEST POP SWAP1 POP PUSH1 0x0 PUSH1 0x40 MLOAD DUP1 PUSH1 0xC0 ADD PUSH1 0x40 MSTORE DUP1 DUP7 PUSH20 0xFFFFFFFFFFFFFFFFFFFFFFFFFFFFFFFFFFFFFFFF AND DUP2 MSTORE PUSH1 0x20 ADD DUP6 DUP2 MSTORE PUSH1 0x20 ADD DUP5 DUP2 MSTORE PUSH1 0x20 ADD DUP4 DUP2 MSTORE PUSH1 0x20 ADD NUMBER DUP2 MSTORE PUSH1 0x20 ADD PUSH1 0x0 ISZERO ISZERO DUP2 MSTORE POP SWAP1 DUP1 PUSH1 0x1 DUP2 SLOAD ADD DUP1 DUP3 SSTORE DUP1 SWAP2 POP POP PUSH1 0x1 SWAP1 SUB SWAP1 PUSH1 0x0 MSTORE PUSH1 0x20 PUSH1 0x0 KECCAK256 SWAP1 PUSH1 0x6 MUL ADD PUSH1 0x0 SWAP1 SWAP2 SWAP1 SWAP2 SWAP1 SWAP2 POP PUSH1 0x0 DUP3 ADD MLOAD DUP2 PUSH1 0x0 ADD PUSH1 0x0 PUSH2 0x100 EXP DUP2 SLOAD DUP2 PUSH20 0xFFFFFFFFFFFFFFFFFFFFFFFFFFFFFFFFFFFFFFFF MUL NOT AND SWAP1 DUP4 PUSH20 0xFFFFFFFFFFFFFFFFFFFFFFFFFFFFFFFFFFFFFFFF AND MUL OR SWAP1 SSTORE POP PUSH1 0x20 DUP3 ADD MLOAD DUP2 PUSH1 0x1 ADD SWAP1 DUP1 MLOAD SWAP1 PUSH1 0x20 ADD SWAP1 PUSH2 0x4C8 SWAP3 SWAP2 SWAP1 PUSH2 0x143B JUMP JUMPDEST POP PUSH1 0x40 DUP3 ADD MLOAD DUP2 PUSH1 0x2 ADD SWAP1 DUP1 MLOAD SWAP1 PUSH1 0x20 ADD SWAP1 PUSH2 0x4E5 SWAP3 SWAP2 SWAP1 PUSH2 0x14C1 JUMP JUMPDEST POP PUSH1 0x60 DUP3 ADD MLOAD DUP2 PUSH1 0x3 ADD SWAP1 DUP1 MLOAD SWAP1 PUSH1 0x20 ADD SWAP1 PUSH2 0x502 SWAP3 SWAP2 SWAP1 PUSH2 0x150E JUMP JUMPDEST POP PUSH1 0x80 DUP3 ADD MLOAD DUP2 PUSH1 0x4 ADD SSTORE PUSH1 0xA0 DUP3 ADD MLOAD DUP2 PUSH1 0x5 ADD PUSH1 0x0 PUSH2 0x100 EXP DUP2 SLOAD DUP2 PUSH1 0xFF MUL NOT AND SWAP1 DUP4 ISZERO ISZERO MUL OR SWAP1 SSTORE POP POP POP DUP4 PUSH20 0xFFFFFFFFFFFFFFFFFFFFFFFFFFFFFFFFFFFFFFFF AND PUSH1 0x1 PUSH1 0x0 DUP1 SLOAD SWAP1 POP PUSH2 0x558 SWAP2 SWAP1 PUSH2 0x2111 JUMP JUMPDEST PUSH32 0xAF3686120498284B7A85C7A631A89F736892DDB32E262A896A8CC472C1BB005E DUP6 PUSH1 0x40 MLOAD PUSH2 0x587 SWAP2 SWAP1 PUSH2 0x2145 JUMP JUMPDEST PUSH1 0x40 MLOAD DUP1 SWAP2 SUB SWAP1 LOG3 POP POP POP POP JUMP JUMPDEST PUSH1 0x0 PUSH1 0x60 DUP1 PUSH1 0x60 PUSH1 0x0 DUP1 DUP1 SLOAD SWAP1 POP DUP7 LT PUSH2 0x5E4 JUMPI PUSH1 0x40 MLOAD PUSH32 0x8C379A000000000000000000000000000000000000000000000000000000000 DUP2 MSTORE PUSH1 0x4 ADD PUSH2 0x5DB SWAP1 PUSH2 0x21B3 JUMP JUMPDEST PUSH1 0x40 MLOAD DUP1 SWAP2 SUB SWAP1 REVERT JUMPDEST PUSH1 0x0 DUP1 DUP8 DUP2 SLOAD DUP2 LT PUSH2 0x5F9 JUMPI PUSH2 0x5F8 PUSH2 0x21D3 JUMP JUMPDEST JUMPDEST SWAP1 PUSH1 0x0 MSTORE PUSH1 0x20 PUSH1 0x0 KECCAK256 SWAP1 PUSH1 0x6 MUL ADD SWAP1 POP DUP1 PUSH1 0x0 ADD PUSH1 0x0 SWAP1 SLOAD SWAP1 PUSH2 0x100 EXP SWAP1 DIV PUSH20 0xFFFFFFFFFFFFFFFFFFFFFFFFFFFFFFFFFFFFFFFF AND DUP2 PUSH1 0x1 ADD DUP3 PUSH1 0x2 ADD DUP4 PUSH1 0x3 ADD DUP5 PUSH1 0x5 ADD PUSH1 0x0 SWAP1 SLOAD SWAP1 PUSH2 0x100 EXP SWAP1 DIV PUSH1 0xFF AND DUP4 DUP1 SLOAD PUSH2 0x658 SWAP1 PUSH2 0x2231 JUMP JUMPDEST DUP1 PUSH1 0x1F ADD PUSH1 0x20 DUP1 SWAP2 DIV MUL PUSH1 0x20 ADD PUSH1 0x40 MLOAD SWAP1 DUP2 ADD PUSH1 0x40 MSTORE DUP1 SWAP3 SWAP2 SWAP1 DUP2 DUP2 MSTORE PUSH1 0x20 ADD DUP3 DUP1 SLOAD PUSH2 0x684 SWAP1 PUSH2 0x2231 JUMP JUMPDEST DUP1 ISZERO PUSH2 0x6D1 JUMPI DUP1 PUSH1 0x1F LT PUSH2 0x6A6 JUMPI PUSH2 0x100 DUP1 DUP4 SLOAD DIV MUL DUP4 MSTORE SWAP2 PUSH1 0x20 ADD SWAP2 PUSH2 0x6D1 JUMP JUMPDEST DUP3 ADD SWAP2 SWAP1 PUSH1 0x0 MSTORE PUSH1 0x20 PUSH1 0x0 KECCAK256 SWAP1 JUMPDEST DUP2 SLOAD DUP2 MSTORE SWAP1 PUSH1 0x1 ADD SWAP1 PUSH1 0x20 ADD DUP1 DUP4 GT PUSH2 0x6B4 JUMPI DUP3 SWAP1 SUB PUSH1 0x1F AND DUP3 ADD SWAP2 JUMPDEST POP POP POP POP POP SWAP4 POP DUP3 DUP1 SLOAD DUP1 PUSH1 0x20 MUL PUSH1 0x20 ADD PUSH1 0x40 MLOAD SWAP1 DUP2 ADD PUSH1 0x40 MSTORE DUP1 SWAP3 SWAP2 SWAP1 DUP2 DUP2 MSTORE PUSH1 0x20 ADD DUP3 DUP1 SLOAD DUP1 ISZERO PUSH2 0x723 JUMPI PUSH1 0x20 MUL DUP3 ADD SWAP2 SWAP1 PUSH1 0x0 MSTORE PUSH1 0x20 PUSH1 0x0 KECCAK256 SWAP1 JUMPDEST DUP2 SLOAD DUP2 MSTORE PUSH1 0x20 ADD SWAP1 PUSH1 0x1 ADD SWAP1 DUP1 DUP4 GT PUSH2 0x70F JUMPI JUMPDEST POP POP POP POP POP SWAP3 POP DUP2 DUP1 SLOAD DUP1 PUSH1 0x20 MUL PUSH1 0x20 ADD PUSH1 0x40 MLOAD SWAP1 DUP2 ADD PUSH1 0x40 MSTORE DUP1 SWAP3 SWAP2 SWAP1 DUP2 DUP2 MSTORE PUSH1 0x20 ADD PUSH1 0x0 SWAP1 JUMPDEST DUP3 DUP3 LT ISZERO PUSH2 0x7F7 JUMPI DUP4 DUP3 SWAP1 PUSH1 0x0 MSTORE PUSH1 0x20 PUSH1 0x0 KECCAK256 ADD DUP1 SLOAD PUSH2 0x76A SWAP1 PUSH2 0x2231 JUMP JUMPDEST DUP1 PUSH1 0x1F ADD PUSH1 0x20 DUP1 SWAP2 DIV MUL PUSH1 0x20 ADD PUSH1 0x40 MLOAD SWAP1 DUP2 ADD PUSH1 0x40 MSTORE DUP1 SWAP3 SWAP2 SWAP1 DUP2 DUP2 MSTORE PUSH1 0x20 ADD DUP3 DUP1 SLOAD PUSH2 0x796 SWAP1 PUSH2 0x2231 JUMP JUMPDEST DUP1 ISZERO PUSH2 0x7E3 JUMPI DUP1 PUSH1 0x1F LT PUSH2 0x7B8 JUMPI PUSH2 0x100 DUP1 DUP4 SLOAD DIV MUL DUP4 MSTORE SWAP2 PUSH1 0x20 ADD SWAP2 PUSH2 0x7E3 JUMP JUMPDEST DUP3 ADD SWAP2 SWAP1 PUSH1 0x0 MSTORE PUSH1 0x20 PUSH1 0x0 KECCAK256 SWAP1 JUMPDEST DUP2 SLOAD DUP2 MSTORE SWAP1 PUSH1 0x1 ADD SWAP1 PUSH1 0x20 ADD DUP1 DUP4 GT PUSH2 0x7C6 JUMPI DUP3 SWAP1 SUB PUSH1 0x1F AND DUP3 ADD SWAP2 JUMPDEST POP POP POP POP POP DUP2 MSTORE PUSH1 0x20 ADD SWAP1 PUSH1 0x1 ADD SWAP1 PUSH2 0x74B JUMP JUMPDEST POP POP POP POP SWAP2 POP SWAP6 POP SWAP6 POP SWAP6 POP SWAP6 POP SWAP6 POP POP SWAP2 SWAP4 SWAP6 SWAP1 SWAP3 SWAP5 POP JUMP JUMPDEST PUSH1 0x28 DUP2 JUMP JUMPDEST PUSH1 0x0 PUSH32 0x3000000000000000000000000000000000000000000000000000000000000000 PUSH31 0xFFFFFFFFFFFFFFFFFFFFFFFFFFFFFFFFFFFFFFFFFFFFFFFFFFFFFFFFFFFFFF NOT AND DUP3 PUSH1 0xF8 SHL PUSH31 0xFFFFFFFFFFFFFFFFFFFFFFFFFFFFFFFFFFFFFFFFFFFFFFFFFFFFFFFFFFFFFF NOT AND LT ISZERO DUP1 ISZERO PUSH2 0x8F6 JUMPI POP PUSH32 0x3900000000000000000000000000000000000000000000000000000000000000 PUSH31 0xFFFFFFFFFFFFFFFFFFFFFFFFFFFFFFFFFFFFFFFFFFFFFFFFFFFFFFFFFFFFFF NOT AND DUP3 PUSH1 0xF8 SHL PUSH31 0xFFFFFFFFFFFFFFFFFFFFFFFFFFFFFFFFFFFFFFFFFFFFFFFFFFFFFFFFFFFFFF NOT AND GT ISZERO JUMPDEST ISZERO PUSH2 0x931 JUMPI PUSH32 0x3000000000000000000000000000000000000000000000000000000000000000 PUSH1 0xF8 SHR DUP3 PUSH2 0x92A SWAP2 SWAP1 PUSH2 0x2263 JUMP JUMPDEST SWAP1 POP PUSH2 0xBB6 JUMP JUMPDEST PUSH32 0x6100000000000000000000000000000000000000000000000000000000000000 PUSH31 0xFFFFFFFFFFFFFFFFFFFFFFFFFFFFFFFFFFFFFFFFFFFFFFFFFFFFFFFFFFFFFF NOT AND DUP3 PUSH1 0xF8 SHL PUSH31 0xFFFFFFFFFFFFFFFFFFFFFFFFFFFFFFFFFFFFFFFFFFFFFFFFFFFFFFFFFFFFFF NOT AND LT ISZERO DUP1 ISZERO PUSH2 0xA0F JUMPI POP PUSH32 0x6600000000000000000000000000000000000000000000000000000000000000 PUSH31 0xFFFFFFFFFFFFFFFFFFFFFFFFFFFFFFFFFFFFFFFFFFFFFFFFFFFFFFFFFFFFFF NOT AND DUP3 PUSH1 0xF8 SHL PUSH31 0xFFFFFFFFFFFFFFFFFFFFFFFFFFFFFFFFFFFFFFFFFFFFFFFFFFFFFFFFFFFFFF NOT AND GT ISZERO JUMPDEST ISZERO PUSH2 0xA56 JUMPI PUSH32 0x6100000000000000000000000000000000000000000000000000000000000000 PUSH1 0xF8 SHR DUP3 PUSH1 0xA PUSH2 0xA45 SWAP2 SWAP1 PUSH2 0x2297 JUMP JUMPDEST PUSH2 0xA4F SWAP2 SWAP1 PUSH2 0x2263 JUMP JUMPDEST SWAP1 POP PUSH2 0xBB6 JUMP JUMPDEST PUSH32 0x4100000000000000000000000000000000000000000000000000000000000000 PUSH31 0xFFFFFFFFFFFFFFFFFFFFFFFFFFFFFFFFFFFFFFFFFFFFFFFFFFFFFFFFFFFFFF NOT AND DUP3 PUSH1 0xF8 SHL PUSH31 0xFFFFFFFFFFFFFFFFFFFFFFFFFFFFFFFFFFFFFFFFFFFFFFFFFFFFFFFFFFFFFF NOT AND LT ISZERO DUP1 ISZERO PUSH2 0xB34 JUMPI POP PUSH32 0x4600000000000000000000000000000000000000000000000000000000000000 PUSH31 0xFFFFFFFFFFFFFFFFFFFFFFFFFFFFFFFFFFFFFFFFFFFFFFFFFFFFFFFFFFFFFF NOT AND DUP3 PUSH1 0xF8 SHL PUSH31 0xFFFFFFFFFFFFFFFFFFFFFFFFFFFFFFFFFFFFFFFFFFFFFFFFFFFFFFFFFFFFFF NOT AND GT ISZERO JUMPDEST ISZERO PUSH2 0xB7B JUMPI PUSH32 0x4100000000000000000000000000000000000000000000000000000000000000 PUSH1 0xF8 SHR DUP3 PUSH1 0xA PUSH2 0xB6A SWAP2 SWAP1 PUSH2 0x2297 JUMP JUMPDEST PUSH2 0xB74 SWAP2 SWAP1 PUSH2 0x2263 JUMP JUMPDEST SWAP1 POP PUSH2 0xBB6 JUMP JUMPDEST PUSH1 0x40 MLOAD PUSH32 0x8C379A000000000000000000000000000000000000000000000000000000000 DUP2 MSTORE PUSH1 0x4 ADD PUSH2 0xBAD SWAP1 PUSH2 0x231A JUMP JUMPDEST PUSH1 0x40 MLOAD DUP1 SWAP2 SUB SWAP1 REVERT JUMPDEST SWAP2 SWAP1 POP JUMP JUMPDEST PUSH1 0x0 DUP1 SLOAD SWAP1 POP DUP2 LT PUSH2 0xC02 JUMPI PUSH1 0x40 MLOAD PUSH32 0x8C379A000000000000000000000000000000000000000000000000000000000 DUP2 MSTORE PUSH1 0x4 ADD PUSH2 0xBF9 SWAP1 PUSH2 0x21B3 JUMP JUMPDEST PUSH1 0x40 MLOAD DUP1 SWAP2 SUB SWAP1 REVERT JUMPDEST PUSH1 0x0 DUP1 DUP3 DUP2 SLOAD DUP2 LT PUSH2 0xC17 JUMPI PUSH2 0xC16 PUSH2 0x21D3 JUMP JUMPDEST JUMPDEST SWAP1 PUSH1 0x0 MSTORE PUSH1 0x20 PUSH1 0x0 KECCAK256 SWAP1 PUSH1 0x6 MUL ADD SWAP1 POP PUSH1 0x0 DUP1 PUSH1 0x1 SWAP1 POP PUSH1 0x0 SWAP2 POP JUMPDEST PUSH1 0x23 DUP3 LT ISZERO PUSH2 0xD7E JUMPI DUP3 PUSH1 0x2 ADD DUP3 DUP2 SLOAD DUP2 LT PUSH2 0xC52 JUMPI PUSH2 0xC51 PUSH2 0x21D3 JUMP JUMPDEST JUMPDEST SWAP1 PUSH1 0x0 MSTORE PUSH1 0x20 PUSH1 0x0 KECCAK256 ADD SLOAD PUSH1 0x2 PUSH2 0xD10 DUP6 PUSH1 0x3 ADD DUP6 DUP2 SLOAD DUP2 LT PUSH2 0xC78 JUMPI PUSH2 0xC77 PUSH2 0x21D3 JUMP JUMPDEST JUMPDEST SWAP1 PUSH1 0x0 MSTORE PUSH1 0x20 PUSH1 0x0 KECCAK256 ADD DUP1 SLOAD PUSH2 0xC8D SWAP1 PUSH2 0x2231 JUMP JUMPDEST DUP1 PUSH1 0x1F ADD PUSH1 0x20 DUP1 SWAP2 DIV MUL PUSH1 0x20 ADD PUSH1 0x40 MLOAD SWAP1 DUP2 ADD PUSH1 0x40 MSTORE DUP1 SWAP3 SWAP2 SWAP1 DUP2 DUP2 MSTORE PUSH1 0x20 ADD DUP3 DUP1 SLOAD PUSH2 0xCB9 SWAP1 PUSH2 0x2231 JUMP JUMPDEST DUP1 ISZERO PUSH2 0xD06 JUMPI DUP1 PUSH1 0x1F LT PUSH2 0xCDB JUMPI PUSH2 0x100 DUP1 DUP4 SLOAD DIV MUL DUP4 MSTORE SWAP2 PUSH1 0x20 ADD SWAP2 PUSH2 0xD06 JUMP JUMPDEST DUP3 ADD SWAP2 SWAP1 PUSH1 0x0 MSTORE PUSH1 0x20 PUSH1 0x0 KECCAK256 SWAP1 JUMPDEST DUP2 SLOAD DUP2 MSTORE SWAP1 PUSH1 0x1 ADD SWAP1 PUSH1 0x20 ADD DUP1 DUP4 GT PUSH2 0xCE9 JUMPI DUP3 SWAP1 SUB PUSH1 0x1F AND DUP3 ADD SWAP2 JUMPDEST POP POP POP POP POP PUSH2 0x1074 JUMP JUMPDEST PUSH1 0x40 MLOAD PUSH2 0xD1D SWAP2 SWAP1 PUSH2 0x2376 JUMP JUMPDEST PUSH1 0x20 PUSH1 0x40 MLOAD DUP1 DUP4 SUB DUP2 DUP6 GAS STATICCALL ISZERO DUP1 ISZERO PUSH2 0xD3A JUMPI RETURNDATASIZE PUSH1 0x0 DUP1 RETURNDATACOPY RETURNDATASIZE PUSH1 0x0 REVERT JUMPDEST POP POP POP PUSH1 0x40 MLOAD RETURNDATASIZE PUSH1 0x1F NOT PUSH1 0x1F DUP3 ADD AND DUP3 ADD DUP1 PUSH1 0x40 MSTORE POP DUP2 ADD SWAP1 PUSH2 0xD5D SWAP2 SWAP1 PUSH2 0x23A2 JUMP JUMPDEST EQ PUSH2 0xD6B JUMPI PUSH1 0x0 SWAP1 POP PUSH2 0xD7E JUMP JUMPDEST DUP2 DUP1 PUSH2 0xD76 SWAP1 PUSH2 0x23CF JUMP JUMPDEST SWAP3 POP POP PUSH2 0xC33 JUMP JUMPDEST DUP1 DUP4 PUSH1 0x5 ADD PUSH1 0x0 PUSH2 0x100 EXP DUP2 SLOAD DUP2 PUSH1 0xFF MUL NOT AND SWAP1 DUP4 ISZERO ISZERO MUL OR SWAP1 SSTORE POP DUP4 PUSH32 0xED287B85322607D368E29155E2B399AACE27679511A17DB14B426F8528476883 DUP4 PUSH1 0x40 MLOAD PUSH2 0xDCA SWAP2 SWAP1 PUSH2 0x1737 JUMP JUMPDEST PUSH1 0x40 MLOAD DUP1 SWAP2 SUB SWAP1 LOG2 POP POP POP POP JUMP JUMPDEST PUSH1 0x0 DUP1 SLOAD SWAP1 POP DUP3 LT PUSH2 0xE1F JUMPI PUSH1 0x40 MLOAD PUSH32 0x8C379A000000000000000000000000000000000000000000000000000000000 DUP2 MSTORE PUSH1 0x4 ADD PUSH2 0xE16 SWAP1 PUSH2 0x21B3 JUMP JUMPDEST PUSH1 0x40 MLOAD DUP1 SWAP2 SUB SWAP1 REVERT JUMPDEST PUSH1 0x23 DUP2 MLOAD GT ISZERO PUSH2 0xE64 JUMPI PUSH1 0x40 MLOAD PUSH32 0x8C379A000000000000000000000000000000000000000000000000000000000 DUP2 MSTORE PUSH1 0x4 ADD PUSH2 0xE5B SWAP1 PUSH2 0x2464 JUMP JUMPDEST PUSH1 0x40 MLOAD DUP1 SWAP2 SUB SWAP1 REVERT JUMPDEST PUSH1 0x0 DUP1 DUP4 DUP2 SLOAD DUP2 LT PUSH2 0xE79 JUMPI PUSH2 0xE78 PUSH2 0x21D3 JUMP JUMPDEST JUMPDEST SWAP1 PUSH1 0x0 MSTORE PUSH1 0x20 PUSH1 0x0 KECCAK256 SWAP1 PUSH1 0x6 MUL ADD SWAP1 POP DUP1 PUSH1 0x5 ADD PUSH1 0x0 SWAP1 SLOAD SWAP1 PUSH2 0x100 EXP SWAP1 DIV PUSH1 0xFF AND ISZERO PUSH2 0xEDB JUMPI PUSH1 0x40 MLOAD PUSH32 0x8C379A000000000000000000000000000000000000000000000000000000000 DUP2 MSTORE PUSH1 0x4 ADD PUSH2 0xED2 SWAP1 PUSH2 0x24D0 JUMP JUMPDEST PUSH1 0x40 MLOAD DUP1 SWAP2 SUB SWAP1 REVERT JUMPDEST DUP1 PUSH1 0x0 ADD PUSH1 0x0 SWAP1 SLOAD SWAP1 PUSH2 0x100 EXP SWAP1 DIV PUSH20 0xFFFFFFFFFFFFFFFFFFFFFFFFFFFFFFFFFFFFFFFF AND PUSH20 0xFFFFFFFFFFFFFFFFFFFFFFFFFFFFFFFFFFFFFFFF AND CALLER PUSH20 0xFFFFFFFFFFFFFFFFFFFFFFFFFFFFFFFFFFFFFFFF AND EQ PUSH2 0xF6D JUMPI PUSH1 0x40 MLOAD PUSH32 0x8C379A000000000000000000000000000000000000000000000000000000000 DUP2 MSTORE PUSH1 0x4 ADD PUSH2 0xF64 SWAP1 PUSH2 0x2562 JUMP JUMPDEST PUSH1 0x40 MLOAD DUP1 SWAP2 SUB SWAP1 REVERT JUMPDEST PUSH1 0x28 DUP2 PUSH1 0x4 ADD SLOAD PUSH2 0xF7E SWAP2 SWAP1 PUSH2 0x2582 JUMP JUMPDEST NUMBER GT ISZERO PUSH2 0xFC0 JUMPI PUSH1 0x40 MLOAD PUSH32 0x8C379A000000000000000000000000000000000000000000000000000000000 DUP2 MSTORE PUSH1 0x4 ADD PUSH2 0xFB7 SWAP1 PUSH2 0x264A JUMP JUMPDEST PUSH1 0x40 MLOAD DUP1 SWAP2 SUB SWAP1 REVERT JUMPDEST PUSH1 0x0 JUMPDEST DUP3 MLOAD DUP2 LT ISZERO PUSH2 0x1065 JUMPI DUP3 DUP2 DUP2 MLOAD DUP2 LT PUSH2 0xFDF JUMPI PUSH2 0xFDE PUSH2 0x21D3 JUMP JUMPDEST JUMPDEST PUSH1 0x20 MUL PUSH1 0x20 ADD ADD MLOAD DUP3 PUSH1 0x3 ADD DUP3 DUP2 SLOAD DUP2 LT PUSH2 0xFFD JUMPI PUSH2 0xFFC PUSH2 0x21D3 JUMP JUMPDEST JUMPDEST SWAP1 PUSH1 0x0 MSTORE PUSH1 0x20 PUSH1 0x0 KECCAK256 ADD SWAP1 DUP1 MLOAD SWAP1 PUSH1 0x20 ADD SWAP1 PUSH2 0x101A SWAP3 SWAP2 SWAP1 PUSH2 0x143B JUMP JUMPDEST POP DUP1 DUP5 PUSH32 0x300B48D50C243521A20B41F4990CA7FAA4991349BF9596908DF396D2A3ED16CD PUSH1 0x40 MLOAD PUSH2 0x104A SWAP1 PUSH2 0x2690 JUMP JUMPDEST PUSH1 0x40 MLOAD DUP1 SWAP2 SUB SWAP1 LOG3 DUP1 DUP1 PUSH2 0x105D SWAP1 PUSH2 0x23CF JUMP JUMPDEST SWAP2 POP POP PUSH2 0xFC3 JUMP JUMPDEST POP POP POP POP JUMP JUMPDEST PUSH1 0x0 PUSH1 0x1E SWAP1 POP SWAP1 JUMP JUMPDEST PUSH1 0x60 PUSH1 0x0 DUP3 SWAP1 POP PUSH1 0x0 PUSH1 0x2 DUP3 MLOAD PUSH2 0x108B SWAP2 SWAP1 PUSH2 0x26D8 JUMP JUMPDEST EQ PUSH2 0x1095 JUMPI PUSH1 0x0 DUP1 REVERT JUMPDEST PUSH1 0x0 PUSH1 0x2 DUP3 MLOAD PUSH2 0x10A5 SWAP2 SWAP1 PUSH2 0x2709 JUMP JUMPDEST PUSH8 0xFFFFFFFFFFFFFFFF DUP2 GT ISZERO PUSH2 0x10BE JUMPI PUSH2 0x10BD PUSH2 0x176D JUMP JUMPDEST JUMPDEST PUSH1 0x40 MLOAD SWAP1 DUP1 DUP3 MSTORE DUP1 PUSH1 0x1F ADD PUSH1 0x1F NOT AND PUSH1 0x20 ADD DUP3 ADD PUSH1 0x40 MSTORE DUP1 ISZERO PUSH2 0x10F0 JUMPI DUP2 PUSH1 0x20 ADD PUSH1 0x1 DUP3 MUL DUP1 CALLDATASIZE DUP4 CALLDATACOPY DUP1 DUP3 ADD SWAP2 POP POP SWAP1 POP JUMPDEST POP SWAP1 POP PUSH1 0x0 JUMPDEST PUSH1 0x2 DUP4 MLOAD PUSH2 0x1104 SWAP2 SWAP1 PUSH2 0x2709 JUMP JUMPDEST DUP2 LT ISZERO PUSH2 0x11ED JUMPI PUSH2 0x114C DUP4 PUSH1 0x1 DUP4 PUSH1 0x2 PUSH2 0x111E SWAP2 SWAP1 PUSH2 0x273A JUMP JUMPDEST PUSH2 0x1128 SWAP2 SWAP1 PUSH2 0x2582 JUMP JUMPDEST DUP2 MLOAD DUP2 LT PUSH2 0x1139 JUMPI PUSH2 0x1138 PUSH2 0x21D3 JUMP JUMPDEST JUMPDEST PUSH1 0x20 ADD ADD MLOAD PUSH1 0xF8 SHR PUSH1 0xF8 SHL PUSH1 0xF8 SHR PUSH2 0x816 JUMP JUMPDEST PUSH1 0x10 PUSH2 0x1183 DUP6 DUP5 PUSH1 0x2 PUSH2 0x115F SWAP2 SWAP1 PUSH2 0x273A JUMP JUMPDEST DUP2 MLOAD DUP2 LT PUSH2 0x1170 JUMPI PUSH2 0x116F PUSH2 0x21D3 JUMP JUMPDEST JUMPDEST PUSH1 0x20 ADD ADD MLOAD PUSH1 0xF8 SHR PUSH1 0xF8 SHL PUSH1 0xF8 SHR PUSH2 0x816 JUMP JUMPDEST PUSH2 0x118D SWAP2 SWAP1 PUSH2 0x2794 JUMP JUMPDEST PUSH2 0x1197 SWAP2 SWAP1 PUSH2 0x2297 JUMP JUMPDEST PUSH1 0xF8 SHL DUP3 DUP3 DUP2 MLOAD DUP2 LT PUSH2 0x11AD JUMPI PUSH2 0x11AC PUSH2 0x21D3 JUMP JUMPDEST JUMPDEST PUSH1 0x20 ADD ADD SWAP1 PUSH31 0xFFFFFFFFFFFFFFFFFFFFFFFFFFFFFFFFFFFFFFFFFFFFFFFFFFFFFFFFFFFFFF NOT AND SWAP1 DUP2 PUSH1 0x0 BYTE SWAP1 MSTORE8 POP DUP1 PUSH2 0x11E6 SWAP1 PUSH2 0x23CF JUMP JUMPDEST SWAP1 POP PUSH2 0x10F6 JUMP JUMPDEST POP DUP1 SWAP3 POP POP POP SWAP2 SWAP1 POP JUMP JUMPDEST PUSH1 0x0 DUP2 DUP2 SLOAD DUP2 LT PUSH2 0x1208 JUMPI PUSH1 0x0 DUP1 REVERT JUMPDEST SWAP1 PUSH1 0x0 MSTORE PUSH1 0x20 PUSH1 0x0 KECCAK256 SWAP1 PUSH1 0x6 MUL ADD PUSH1 0x0 SWAP2 POP SWAP1 POP DUP1 PUSH1 0x0 ADD PUSH1 0x0 SWAP1 SLOAD SWAP1 PUSH2 0x100 EXP SWAP1 DIV PUSH20 0xFFFFFFFFFFFFFFFFFFFFFFFFFFFFFFFFFFFFFFFF AND SWAP1 DUP1 PUSH1 0x1 ADD DUP1 SLOAD PUSH2 0x1251 SWAP1 PUSH2 0x2231 JUMP JUMPDEST DUP1 PUSH1 0x1F ADD PUSH1 0x20 DUP1 SWAP2 DIV MUL PUSH1 0x20 ADD PUSH1 0x40 MLOAD SWAP1 DUP2 ADD PUSH1 0x40 MSTORE DUP1 SWAP3 SWAP2 SWAP1 DUP2 DUP2 MSTORE PUSH1 0x20 ADD DUP3 DUP1 SLOAD PUSH2 0x127D SWAP1 PUSH2 0x2231 JUMP JUMPDEST DUP1 ISZERO PUSH2 0x12CA JUMPI DUP1 PUSH1 0x1F LT PUSH2 0x129F JUMPI PUSH2 0x100 DUP1 DUP4 SLOAD DIV MUL DUP4 MSTORE SWAP2 PUSH1 0x20 ADD SWAP2 PUSH2 0x12CA JUMP JUMPDEST DUP3 ADD SWAP2 SWAP1 PUSH1 0x0 MSTORE PUSH1 0x20 PUSH1 0x0 KECCAK256 SWAP1 JUMPDEST DUP2 SLOAD DUP2 MSTORE SWAP1 PUSH1 0x1 ADD SWAP1 PUSH1 0x20 ADD DUP1 DUP4 GT PUSH2 0x12AD JUMPI DUP3 SWAP1 SUB PUSH1 0x1F AND DUP3 ADD SWAP2 JUMPDEST POP POP POP POP POP SWAP1 DUP1 PUSH1 0x4 ADD SLOAD SWAP1 DUP1 PUSH1 0x5 ADD PUSH1 0x0 SWAP1 SLOAD SWAP1 PUSH2 0x100 EXP SWAP1 DIV PUSH1 0xFF AND SWAP1 POP DUP5 JUMP JUMPDEST PUSH1 0x1E DUP2 JUMP JUMPDEST DUP1 PUSH1 0x1 PUSH1 0x0 DUP6 PUSH20 0xFFFFFFFFFFFFFFFFFFFFFFFFFFFFFFFFFFFFFFFF AND PUSH20 0xFFFFFFFFFFFFFFFFFFFFFFFFFFFFFFFFFFFFFFFF AND DUP2 MSTORE PUSH1 0x20 ADD SWAP1 DUP2 MSTORE PUSH1 0x20 ADD PUSH1 0x0 KECCAK256 SWAP1 DUP1 MLOAD SWAP1 PUSH1 0x20 ADD SWAP1 PUSH2 0x1345 SWAP3 SWAP2 SWAP1 PUSH2 0x14C1 JUMP JUMPDEST POP DUP3 PUSH20 0xFFFFFFFFFFFFFFFFFFFFFFFFFFFFFFFFFFFFFFFF AND PUSH32 0x545592993C371CF37DEB35FD8934967ACACB9A2753D006658ABF01B2B8BDDDFA DUP4 DUP4 PUSH1 0x40 MLOAD PUSH2 0x138E SWAP3 SWAP2 SWAP1 PUSH2 0x27CF JUMP JUMPDEST PUSH1 0x40 MLOAD DUP1 SWAP2 SUB SWAP1 LOG2 POP POP POP JUMP JUMPDEST PUSH1 0x60 PUSH1 0x1 PUSH1 0x0 DUP4 PUSH20 0xFFFFFFFFFFFFFFFFFFFFFFFFFFFFFFFFFFFFFFFF AND PUSH20 0xFFFFFFFFFFFFFFFFFFFFFFFFFFFFFFFFFFFFFFFF AND DUP2 MSTORE PUSH1 0x20 ADD SWAP1 DUP2 MSTORE PUSH1 0x20 ADD PUSH1 0x0 KECCAK256 DUP1 SLOAD DUP1 PUSH1 0x20 MUL PUSH1 0x20 ADD PUSH1 0x40 MLOAD SWAP1 DUP2 ADD PUSH1 0x40 MSTORE DUP1 SWAP3 SWAP2 SWAP1 DUP2 DUP2 MSTORE PUSH1 0x20 ADD DUP3 DUP1 SLOAD DUP1 ISZERO PUSH2 0x1426 JUMPI PUSH1 0x20 MUL DUP3 ADD SWAP2 SWAP1 PUSH1 0x0 MSTORE PUSH1 0x20 PUSH1 0x0 KECCAK256 SWAP1 JUMPDEST DUP2 SLOAD DUP2 MSTORE PUSH1 0x20 ADD SWAP1 PUSH1 0x1 ADD SWAP1 DUP1 DUP4 GT PUSH2 0x1412 JUMPI JUMPDEST POP POP POP POP POP SWAP1 POP SWAP2 SWAP1 POP JUMP JUMPDEST PUSH1 0x0 PUSH1 0x23 SWAP1 POP SWAP1 JUMP JUMPDEST DUP3 DUP1 SLOAD PUSH2 0x1447 SWAP1 PUSH2 0x2231 JUMP JUMPDEST SWAP1 PUSH1 0x0 MSTORE PUSH1 0x20 PUSH1 0x0 KECCAK256 SWAP1 PUSH1 0x1F ADD PUSH1 0x20 SWAP1 DIV DUP2 ADD SWAP3 DUP3 PUSH2 0x1469 JUMPI PUSH1 0x0 DUP6 SSTORE PUSH2 0x14B0 JUMP JUMPDEST DUP3 PUSH1 0x1F LT PUSH2 0x1482 JUMPI DUP1 MLOAD PUSH1 0xFF NOT AND DUP4 DUP1 ADD OR DUP6 SSTORE PUSH2 0x14B0 JUMP JUMPDEST DUP3 DUP1 ADD PUSH1 0x1 ADD DUP6 SSTORE DUP3 ISZERO PUSH2 0x14B0 JUMPI SWAP2 DUP3 ADD JUMPDEST DUP3 DUP2 GT ISZERO PUSH2 0x14AF JUMPI DUP3 MLOAD DUP3 SSTORE SWAP2 PUSH1 0x20 ADD SWAP2 SWAP1 PUSH1 0x1 ADD SWAP1 PUSH2 0x1494 JUMP JUMPDEST JUMPDEST POP SWAP1 POP PUSH2 0x14BD SWAP2 SWAP1 PUSH2 0x156E JUMP JUMPDEST POP SWAP1 JUMP JUMPDEST DUP3 DUP1 SLOAD DUP3 DUP3 SSTORE SWAP1 PUSH1 0x0 MSTORE PUSH1 0x20 PUSH1 0x0 KECCAK256 SWAP1 DUP2 ADD SWAP3 DUP3 ISZERO PUSH2 0x14FD JUMPI SWAP2 PUSH1 0x20 MUL DUP3 ADD JUMPDEST DUP3 DUP2 GT ISZERO PUSH2 0x14FC JUMPI DUP3 MLOAD DUP3 SSTORE SWAP2 PUSH1 0x20 ADD SWAP2 SWAP1 PUSH1 0x1 ADD SWAP1 PUSH2 0x14E1 JUMP JUMPDEST JUMPDEST POP SWAP1 POP PUSH2 0x150A SWAP2 SWAP1 PUSH2 0x158B JUMP JUMPDEST POP SWAP1 JUMP JUMPDEST DUP3 DUP1 SLOAD DUP3 DUP3 SSTORE SWAP1 PUSH1 0x0 MSTORE PUSH1 0x20 PUSH1 0x0 KECCAK256 SWAP1 DUP2 ADD SWAP3 DUP3 ISZERO PUSH2 0x155D JUMPI SWAP2 PUSH1 0x20 MUL DUP3 ADD JUMPDEST DUP3 DUP2 GT ISZERO PUSH2 0x155C JUMPI DUP3 MLOAD DUP3 SWAP1 DUP1 MLOAD SWAP1 PUSH1 0x20 ADD SWAP1 PUSH2 0x154C SWAP3 SWAP2 SWAP1 PUSH2 0x143B JUMP JUMPDEST POP SWAP2 PUSH1 0x20 ADD SWAP2 SWAP1 PUSH1 0x1 ADD SWAP1 PUSH2 0x152E JUMP JUMPDEST JUMPDEST POP SWAP1 POP PUSH2 0x156A SWAP2 SWAP1 PUSH2 0x15A8 JUMP JUMPDEST POP SWAP1 JUMP JUMPDEST JUMPDEST DUP1 DUP3 GT ISZERO PUSH2 0x1587 JUMPI PUSH1 0x0 DUP2 PUSH1 0x0 SWAP1 SSTORE POP PUSH1 0x1 ADD PUSH2 0x156F JUMP JUMPDEST POP SWAP1 JUMP JUMPDEST JUMPDEST DUP1 DUP3 GT ISZERO PUSH2 0x15A4 JUMPI PUSH1 0x0 DUP2 PUSH1 0x0 SWAP1 SSTORE POP PUSH1 0x1 ADD PUSH2 0x158C JUMP JUMPDEST POP SWAP1 JUMP JUMPDEST JUMPDEST DUP1 DUP3 GT ISZERO PUSH2 0x15C8 JUMPI PUSH1 0x0 DUP2 DUP2 PUSH2 0x15BF SWAP2 SWAP1 PUSH2 0x15CC JUMP JUMPDEST POP PUSH1 0x1 ADD PUSH2 0x15A9 JUMP JUMPDEST POP SWAP1 JUMP JUMPDEST POP DUP1 SLOAD PUSH2 0x15D8 SWAP1 PUSH2 0x2231 JUMP JUMPDEST PUSH1 0x0 DUP3 SSTORE DUP1 PUSH1 0x1F LT PUSH2 0x15EA JUMPI POP PUSH2 0x1609 JUMP JUMPDEST PUSH1 0x1F ADD PUSH1 0x20 SWAP1 DIV SWAP1 PUSH1 0x0 MSTORE PUSH1 0x20 PUSH1 0x0 KECCAK256 SWAP1 DUP2 ADD SWAP1 PUSH2 0x1608 SWAP2 SWAP1 PUSH2 0x156E JUMP JUMPDEST JUMPDEST POP JUMP JUMPDEST PUSH1 0x0 PUSH1 0x40 MLOAD SWAP1 POP SWAP1 JUMP JUMPDEST PUSH1 0x0 DUP1 REVERT JUMPDEST PUSH1 0x0 DUP1 REVERT JUMPDEST PUSH1 0x0 PUSH20 0xFFFFFFFFFFFFFFFFFFFFFFFFFFFFFFFFFFFFFFFF DUP3 AND SWAP1 POP SWAP2 SWAP1 POP JUMP JUMPDEST PUSH1 0x0 PUSH2 0x164B DUP3 PUSH2 0x1620 JUMP JUMPDEST SWAP1 POP SWAP2 SWAP1 POP JUMP JUMPDEST PUSH2 0x165B DUP2 PUSH2 0x1640 JUMP JUMPDEST DUP2 EQ PUSH2 0x1666 JUMPI PUSH1 0x0 DUP1 REVERT JUMPDEST POP JUMP JUMPDEST PUSH1 0x0 DUP2 CALLDATALOAD SWAP1 POP PUSH2 0x1678 DUP2 PUSH2 0x1652 JUMP JUMPDEST SWAP3 SWAP2 POP POP JUMP JUMPDEST PUSH1 0x0 DUP2 SWAP1 POP SWAP2 SWAP1 POP JUMP JUMPDEST PUSH2 0x1691 DUP2 PUSH2 0x167E JUMP JUMPDEST DUP2 EQ PUSH2 0x169C JUMPI PUSH1 0x0 DUP1 REVERT JUMPDEST POP JUMP JUMPDEST PUSH1 0x0 DUP2 CALLDATALOAD SWAP1 POP PUSH2 0x16AE DUP2 PUSH2 0x1688 JUMP JUMPDEST SWAP3 SWAP2 POP POP JUMP JUMPDEST PUSH1 0x0 DUP1 PUSH1 0x40 DUP4 DUP6 SUB SLT ISZERO PUSH2 0x16CB JUMPI PUSH2 0x16CA PUSH2 0x1616 JUMP JUMPDEST JUMPDEST PUSH1 0x0 PUSH2 0x16D9 DUP6 DUP3 DUP7 ADD PUSH2 0x1669 JUMP JUMPDEST SWAP3 POP POP PUSH1 0x20 PUSH2 0x16EA DUP6 DUP3 DUP7 ADD PUSH2 0x169F JUMP JUMPDEST SWAP2 POP POP SWAP3 POP SWAP3 SWAP1 POP JUMP JUMPDEST PUSH1 0x0 DUP2 SWAP1 POP SWAP2 SWAP1 POP JUMP JUMPDEST PUSH2 0x1707 DUP2 PUSH2 0x16F4 JUMP JUMPDEST DUP3 MSTORE POP POP JUMP JUMPDEST PUSH1 0x0 PUSH1 0x20 DUP3 ADD SWAP1 POP PUSH2 0x1722 PUSH1 0x0 DUP4 ADD DUP5 PUSH2 0x16FE JUMP JUMPDEST SWAP3 SWAP2 POP POP JUMP JUMPDEST PUSH2 0x1731 DUP2 PUSH2 0x167E JUMP JUMPDEST DUP3 MSTORE POP POP JUMP JUMPDEST PUSH1 0x0 PUSH1 0x20 DUP3 ADD SWAP1 POP PUSH2 0x174C PUSH1 0x0 DUP4 ADD DUP5 PUSH2 0x1728 JUMP JUMPDEST SWAP3 SWAP2 POP POP JUMP JUMPDEST PUSH1 0x0 DUP1 REVERT JUMPDEST PUSH1 0x0 DUP1 REVERT JUMPDEST PUSH1 0x0 PUSH1 0x1F NOT PUSH1 0x1F DUP4 ADD AND SWAP1 POP SWAP2 SWAP1 POP JUMP JUMPDEST PUSH32 0x4E487B7100000000000000000000000000000000000000000000000000000000 PUSH1 0x0 MSTORE PUSH1 0x41 PUSH1 0x4 MSTORE PUSH1 0x24 PUSH1 0x0 REVERT JUMPDEST PUSH2 0x17A5 DUP3 PUSH2 0x175C JUMP JUMPDEST DUP2 ADD DUP2 DUP2 LT PUSH8 0xFFFFFFFFFFFFFFFF DUP3 GT OR ISZERO PUSH2 0x17C4 JUMPI PUSH2 0x17C3 PUSH2 0x176D JUMP JUMPDEST JUMPDEST DUP1 PUSH1 0x40 MSTORE POP POP POP JUMP JUMPDEST PUSH1 0x0 PUSH2 0x17D7 PUSH2 0x160C JUMP JUMPDEST SWAP1 POP PUSH2 0x17E3 DUP3 DUP3 PUSH2 0x179C JUMP JUMPDEST SWAP2 SWAP1 POP JUMP JUMPDEST PUSH1 0x0 PUSH8 0xFFFFFFFFFFFFFFFF DUP3 GT ISZERO PUSH2 0x1803 JUMPI PUSH2 0x1802 PUSH2 0x176D JUMP JUMPDEST JUMPDEST PUSH2 0x180C DUP3 PUSH2 0x175C JUMP JUMPDEST SWAP1 POP PUSH1 0x20 DUP2 ADD SWAP1 POP SWAP2 SWAP1 POP JUMP JUMPDEST DUP3 DUP2 DUP4 CALLDATACOPY PUSH1 0x0 DUP4 DUP4 ADD MSTORE POP POP POP JUMP JUMPDEST PUSH1 0x0 PUSH2 0x183B PUSH2 0x1836 DUP5 PUSH2 0x17E8 JUMP JUMPDEST PUSH2 0x17CD JUMP JUMPDEST SWAP1 POP DUP3 DUP2 MSTORE PUSH1 0x20 DUP2 ADD DUP5 DUP5 DUP5 ADD GT ISZERO PUSH2 0x1857 JUMPI PUSH2 0x1856 PUSH2 0x1757 JUMP JUMPDEST JUMPDEST PUSH2 0x1862 DUP5 DUP3 DUP6 PUSH2 0x1819 JUMP JUMPDEST POP SWAP4 SWAP3 POP POP POP JUMP JUMPDEST PUSH1 0x0 DUP3 PUSH1 0x1F DUP4 ADD SLT PUSH2 0x187F JUMPI PUSH2 0x187E PUSH2 0x1752 JUMP JUMPDEST JUMPDEST DUP2 CALLDATALOAD PUSH2 0x188F DUP5 DUP3 PUSH1 0x20 DUP7 ADD PUSH2 0x1828 JUMP JUMPDEST SWAP2 POP POP SWAP3 SWAP2 POP POP JUMP JUMPDEST PUSH1 0x0 PUSH8 0xFFFFFFFFFFFFFFFF DUP3 GT ISZERO PUSH2 0x18B3 JUMPI PUSH2 0x18B2 PUSH2 0x176D JUMP JUMPDEST JUMPDEST PUSH1 0x20 DUP3 MUL SWAP1 POP PUSH1 0x20 DUP2 ADD SWAP1 POP SWAP2 SWAP1 POP JUMP JUMPDEST PUSH1 0x0 DUP1 REVERT JUMPDEST PUSH2 0x18D2 DUP2 PUSH2 0x16F4 JUMP JUMPDEST DUP2 EQ PUSH2 0x18DD JUMPI PUSH1 0x0 DUP1 REVERT JUMPDEST POP JUMP JUMPDEST PUSH1 0x0 DUP2 CALLDATALOAD SWAP1 POP PUSH2 0x18EF DUP2 PUSH2 0x18C9 JUMP JUMPDEST SWAP3 SWAP2 POP POP JUMP JUMPDEST PUSH1 0x0 PUSH2 0x1908 PUSH2 0x1903 DUP5 PUSH2 0x1898 JUMP JUMPDEST PUSH2 0x17CD JUMP JUMPDEST SWAP1 POP DUP1 DUP4 DUP3 MSTORE PUSH1 0x20 DUP3 ADD SWAP1 POP PUSH1 0x20 DUP5 MUL DUP4 ADD DUP6 DUP2 GT ISZERO PUSH2 0x192B JUMPI PUSH2 0x192A PUSH2 0x18C4 JUMP JUMPDEST JUMPDEST DUP4 JUMPDEST DUP2 DUP2 LT ISZERO PUSH2 0x1954 JUMPI DUP1 PUSH2 0x1940 DUP9 DUP3 PUSH2 0x18E0 JUMP JUMPDEST DUP5 MSTORE PUSH1 0x20 DUP5 ADD SWAP4 POP POP PUSH1 0x20 DUP2 ADD SWAP1 POP PUSH2 0x192D JUMP JUMPDEST POP POP POP SWAP4 SWAP3 POP POP POP JUMP JUMPDEST PUSH1 0x0 DUP3 PUSH1 0x1F DUP4 ADD SLT PUSH2 0x1973 JUMPI PUSH2 0x1972 PUSH2 0x1752 JUMP JUMPDEST JUMPDEST DUP2 CALLDATALOAD PUSH2 0x1983 DUP5 DUP3 PUSH1 0x20 DUP7 ADD PUSH2 0x18F5 JUMP JUMPDEST SWAP2 POP POP SWAP3 SWAP2 POP POP JUMP JUMPDEST PUSH1 0x0 DUP1 PUSH1 0x0 PUSH1 0x60 DUP5 DUP7 SUB SLT ISZERO PUSH2 0x19A5 JUMPI PUSH2 0x19A4 PUSH2 0x1616 JUMP JUMPDEST JUMPDEST PUSH1 0x0 PUSH2 0x19B3 DUP7 DUP3 DUP8 ADD PUSH2 0x1669 JUMP JUMPDEST SWAP4 POP POP PUSH1 0x20 DUP5 ADD CALLDATALOAD PUSH8 0xFFFFFFFFFFFFFFFF DUP2 GT ISZERO PUSH2 0x19D4 JUMPI PUSH2 0x19D3 PUSH2 0x161B JUMP JUMPDEST JUMPDEST PUSH2 0x19E0 DUP7 DUP3 DUP8 ADD PUSH2 0x186A JUMP JUMPDEST SWAP3 POP POP PUSH1 0x40 DUP5 ADD CALLDATALOAD PUSH8 0xFFFFFFFFFFFFFFFF DUP2 GT ISZERO PUSH2 0x1A01 JUMPI PUSH2 0x1A00 PUSH2 0x161B JUMP JUMPDEST JUMPDEST PUSH2 0x1A0D DUP7 DUP3 DUP8 ADD PUSH2 0x195E JUMP JUMPDEST SWAP2 POP POP SWAP3 POP SWAP3 POP SWAP3 JUMP JUMPDEST PUSH1 0x0 PUSH1 0x20 DUP3 DUP5 SUB SLT ISZERO PUSH2 0x1A2D JUMPI PUSH2 0x1A2C PUSH2 0x1616 JUMP JUMPDEST JUMPDEST PUSH1 0x0 PUSH2 0x1A3B DUP5 DUP3 DUP6 ADD PUSH2 0x169F JUMP JUMPDEST SWAP2 POP POP SWAP3 SWAP2 POP POP JUMP JUMPDEST PUSH2 0x1A4D DUP2 PUSH2 0x1640 JUMP JUMPDEST DUP3 MSTORE POP POP JUMP JUMPDEST PUSH1 0x0 DUP2 MLOAD SWAP1 POP SWAP2 SWAP1 POP JUMP JUMPDEST PUSH1 0x0 DUP3 DUP3 MSTORE PUSH1 0x20 DUP3 ADD SWAP1 POP SWAP3 SWAP2 POP POP JUMP JUMPDEST PUSH1 0x0 JUMPDEST DUP4 DUP2 LT ISZERO PUSH2 0x1A8D JUMPI DUP1 DUP3 ADD MLOAD DUP2 DUP5 ADD MSTORE PUSH1 0x20 DUP2 ADD SWAP1 POP PUSH2 0x1A72 JUMP JUMPDEST DUP4 DUP2 GT ISZERO PUSH2 0x1A9C JUMPI PUSH1 0x0 DUP5 DUP5 ADD MSTORE JUMPDEST POP POP POP POP JUMP JUMPDEST PUSH1 0x0 PUSH2 0x1AAD DUP3 PUSH2 0x1A53 JUMP JUMPDEST PUSH2 0x1AB7 DUP2 DUP6 PUSH2 0x1A5E JUMP JUMPDEST SWAP4 POP PUSH2 0x1AC7 DUP2 DUP6 PUSH1 0x20 DUP7 ADD PUSH2 0x1A6F JUMP JUMPDEST PUSH2 0x1AD0 DUP2 PUSH2 0x175C JUMP JUMPDEST DUP5 ADD SWAP2 POP POP SWAP3 SWAP2 POP POP JUMP JUMPDEST PUSH1 0x0 DUP2 MLOAD SWAP1 POP SWAP2 SWAP1 POP JUMP JUMPDEST PUSH1 0x0 DUP3 DUP3 MSTORE PUSH1 0x20 DUP3 ADD SWAP1 POP SWAP3 SWAP2 POP POP JUMP JUMPDEST PUSH1 0x0 DUP2 SWAP1 POP PUSH1 0x20 DUP3 ADD SWAP1 POP SWAP2 SWAP1 POP JUMP JUMPDEST PUSH2 0x1B10 DUP2 PUSH2 0x16F4 JUMP JUMPDEST DUP3 MSTORE POP POP JUMP JUMPDEST PUSH1 0x0 PUSH2 0x1B22 DUP4 DUP4 PUSH2 0x1B07 JUMP JUMPDEST PUSH1 0x20 DUP4 ADD SWAP1 POP SWAP3 SWAP2 POP POP JUMP JUMPDEST PUSH1 0x0 PUSH1 0x20 DUP3 ADD SWAP1 POP SWAP2 SWAP1 POP JUMP JUMPDEST PUSH1 0x0 PUSH2 0x1B46 DUP3 PUSH2 0x1ADB JUMP JUMPDEST PUSH2 0x1B50 DUP2 DUP6 PUSH2 0x1AE6 JUMP JUMPDEST SWAP4 POP PUSH2 0x1B5B DUP4 PUSH2 0x1AF7 JUMP JUMPDEST DUP1 PUSH1 0x0 JUMPDEST DUP4 DUP2 LT ISZERO PUSH2 0x1B8C JUMPI DUP2 MLOAD PUSH2 0x1B73 DUP9 DUP3 PUSH2 0x1B16 JUMP JUMPDEST SWAP8 POP PUSH2 0x1B7E DUP4 PUSH2 0x1B2E JUMP JUMPDEST SWAP3 POP POP PUSH1 0x1 DUP2 ADD SWAP1 POP PUSH2 0x1B5F JUMP JUMPDEST POP DUP6 SWAP4 POP POP POP POP SWAP3 SWAP2 POP POP JUMP JUMPDEST PUSH1 0x0 DUP2 MLOAD SWAP1 POP SWAP2 SWAP1 POP JUMP JUMPDEST PUSH1 0x0 DUP3 DUP3 MSTORE PUSH1 0x20 DUP3 ADD SWAP1 POP SWAP3 SWAP2 POP POP JUMP JUMPDEST PUSH1 0x0 DUP2 SWAP1 POP PUSH1 0x20 DUP3 ADD SWAP1 POP SWAP2 SWAP1 POP JUMP JUMPDEST PUSH1 0x0 DUP3 DUP3 MSTORE PUSH1 0x20 DUP3 ADD SWAP1 POP SWAP3 SWAP2 POP POP JUMP JUMPDEST PUSH1 0x0 PUSH2 0x1BE1 DUP3 PUSH2 0x1A53 JUMP JUMPDEST PUSH2 0x1BEB DUP2 DUP6 PUSH2 0x1BC5 JUMP JUMPDEST SWAP4 POP PUSH2 0x1BFB DUP2 DUP6 PUSH1 0x20 DUP7 ADD PUSH2 0x1A6F JUMP JUMPDEST PUSH2 0x1C04 DUP2 PUSH2 0x175C JUMP JUMPDEST DUP5 ADD SWAP2 POP POP SWAP3 SWAP2 POP POP JUMP JUMPDEST PUSH1 0x0 PUSH2 0x1C1B DUP4 DUP4 PUSH2 0x1BD6 JUMP JUMPDEST SWAP1 POP SWAP3 SWAP2 POP POP JUMP JUMPDEST PUSH1 0x0 PUSH1 0x20 DUP3 ADD SWAP1 POP SWAP2 SWAP1 POP JUMP JUMPDEST PUSH1 0x0 PUSH2 0x1C3B DUP3 PUSH2 0x1B99 JUMP JUMPDEST PUSH2 0x1C45 DUP2 DUP6 PUSH2 0x1BA4 JUMP JUMPDEST SWAP4 POP DUP4 PUSH1 0x20 DUP3 MUL DUP6 ADD PUSH2 0x1C57 DUP6 PUSH2 0x1BB5 JUMP JUMPDEST DUP1 PUSH1 0x0 JUMPDEST DUP6 DUP2 LT ISZERO PUSH2 0x1C93 JUMPI DUP5 DUP5 SUB DUP10 MSTORE DUP2 MLOAD PUSH2 0x1C74 DUP6 DUP3 PUSH2 0x1C0F JUMP JUMPDEST SWAP5 POP PUSH2 0x1C7F DUP4 PUSH2 0x1C23 JUMP JUMPDEST SWAP3 POP PUSH1 0x20 DUP11 ADD SWAP10 POP POP PUSH1 0x1 DUP2 ADD SWAP1 POP PUSH2 0x1C5B JUMP JUMPDEST POP DUP3 SWAP8 POP DUP8 SWAP6 POP POP POP POP POP POP SWAP3 SWAP2 POP POP JUMP JUMPDEST PUSH1 0x0 DUP2 ISZERO ISZERO SWAP1 POP SWAP2 SWAP1 POP JUMP JUMPDEST PUSH2 0x1CBA DUP2 PUSH2 0x1CA5 JUMP JUMPDEST DUP3 MSTORE POP POP JUMP JUMPDEST PUSH1 0x0 PUSH1 0xA0 DUP3 ADD SWAP1 POP PUSH2 0x1CD5 PUSH1 0x0 DUP4 ADD DUP9 PUSH2 0x1A44 JUMP JUMPDEST DUP2 DUP2 SUB PUSH1 0x20 DUP4 ADD MSTORE PUSH2 0x1CE7 DUP2 DUP8 PUSH2 0x1AA2 JUMP JUMPDEST SWAP1 POP DUP2 DUP2 SUB PUSH1 0x40 DUP4 ADD MSTORE PUSH2 0x1CFB DUP2 DUP7 PUSH2 0x1B3B JUMP JUMPDEST SWAP1 POP DUP2 DUP2 SUB PUSH1 0x60 DUP4 ADD MSTORE PUSH2 0x1D0F DUP2 DUP6 PUSH2 0x1C30 JUMP JUMPDEST SWAP1 POP PUSH2 0x1D1E PUSH1 0x80 DUP4 ADD DUP5 PUSH2 0x1CB1 JUMP JUMPDEST SWAP7 SWAP6 POP POP POP POP POP POP JUMP JUMPDEST PUSH1 0x0 PUSH1 0xFF DUP3 AND SWAP1 POP SWAP2 SWAP1 POP JUMP JUMPDEST PUSH2 0x1D3E DUP2 PUSH2 0x1D28 JUMP JUMPDEST DUP2 EQ PUSH2 0x1D49 JUMPI PUSH1 0x0 DUP1 REVERT JUMPDEST POP JUMP JUMPDEST PUSH1 0x0 DUP2 CALLDATALOAD SWAP1 POP PUSH2 0x1D5B DUP2 PUSH2 0x1D35 JUMP JUMPDEST SWAP3 SWAP2 POP POP JUMP JUMPDEST PUSH1 0x0 PUSH1 0x20 DUP3 DUP5 SUB SLT ISZERO PUSH2 0x1D77 JUMPI PUSH2 0x1D76 PUSH2 0x1616 JUMP JUMPDEST JUMPDEST PUSH1 0x0 PUSH2 0x1D85 DUP5 DUP3 DUP6 ADD PUSH2 0x1D4C JUMP JUMPDEST SWAP2 POP POP SWAP3 SWAP2 POP POP JUMP JUMPDEST PUSH2 0x1D97 DUP2 PUSH2 0x1D28 JUMP JUMPDEST DUP3 MSTORE POP POP JUMP JUMPDEST PUSH1 0x0 PUSH1 0x20 DUP3 ADD SWAP1 POP PUSH2 0x1DB2 PUSH1 0x0 DUP4 ADD DUP5 PUSH2 0x1D8E JUMP JUMPDEST SWAP3 SWAP2 POP POP JUMP JUMPDEST PUSH1 0x0 PUSH8 0xFFFFFFFFFFFFFFFF DUP3 GT ISZERO PUSH2 0x1DD3 JUMPI PUSH2 0x1DD2 PUSH2 0x176D JUMP JUMPDEST JUMPDEST PUSH1 0x20 DUP3 MUL SWAP1 POP PUSH1 0x20 DUP2 ADD SWAP1 POP SWAP2 SWAP1 POP JUMP JUMPDEST PUSH1 0x0 PUSH2 0x1DF7 PUSH2 0x1DF2 DUP5 PUSH2 0x1DB8 JUMP JUMPDEST PUSH2 0x17CD JUMP JUMPDEST SWAP1 POP DUP1 DUP4 DUP3 MSTORE PUSH1 0x20 DUP3 ADD SWAP1 POP PUSH1 0x20 DUP5 MUL DUP4 ADD DUP6 DUP2 GT ISZERO PUSH2 0x1E1A JUMPI PUSH2 0x1E19 PUSH2 0x18C4 JUMP JUMPDEST JUMPDEST DUP4 JUMPDEST DUP2 DUP2 LT ISZERO PUSH2 0x1E61 JUMPI DUP1 CALLDATALOAD PUSH8 0xFFFFFFFFFFFFFFFF DUP2 GT ISZERO PUSH2 0x1E3F JUMPI PUSH2 0x1E3E PUSH2 0x1752 JUMP JUMPDEST JUMPDEST DUP1 DUP7 ADD PUSH2 0x1E4C DUP10 DUP3 PUSH2 0x186A JUMP JUMPDEST DUP6 MSTORE PUSH1 0x20 DUP6 ADD SWAP5 POP POP POP PUSH1 0x20 DUP2 ADD SWAP1 POP PUSH2 0x1E1C JUMP JUMPDEST POP POP POP SWAP4 SWAP3 POP POP POP JUMP JUMPDEST PUSH1 0x0 DUP3 PUSH1 0x1F DUP4 ADD SLT PUSH2 0x1E80 JUMPI PUSH2 0x1E7F PUSH2 0x1752 JUMP JUMPDEST JUMPDEST DUP2 CALLDATALOAD PUSH2 0x1E90 DUP5 DUP3 PUSH1 0x20 DUP7 ADD PUSH2 0x1DE4 JUMP JUMPDEST SWAP2 POP POP SWAP3 SWAP2 POP POP JUMP JUMPDEST PUSH1 0x0 DUP1 PUSH1 0x40 DUP4 DUP6 SUB SLT ISZERO PUSH2 0x1EB0 JUMPI PUSH2 0x1EAF PUSH2 0x1616 JUMP JUMPDEST JUMPDEST PUSH1 0x0 PUSH2 0x1EBE DUP6 DUP3 DUP7 ADD PUSH2 0x169F JUMP JUMPDEST SWAP3 POP POP PUSH1 0x20 DUP4 ADD CALLDATALOAD PUSH8 0xFFFFFFFFFFFFFFFF DUP2 GT ISZERO PUSH2 0x1EDF JUMPI PUSH2 0x1EDE PUSH2 0x161B JUMP JUMPDEST JUMPDEST PUSH2 0x1EEB DUP6 DUP3 DUP7 ADD PUSH2 0x1E6B JUMP JUMPDEST SWAP2 POP POP SWAP3 POP SWAP3 SWAP1 POP JUMP JUMPDEST PUSH1 0x0 PUSH1 0x20 DUP3 DUP5 SUB SLT ISZERO PUSH2 0x1F0B JUMPI PUSH2 0x1F0A PUSH2 0x1616 JUMP JUMPDEST JUMPDEST PUSH1 0x0 DUP3 ADD CALLDATALOAD PUSH8 0xFFFFFFFFFFFFFFFF DUP2 GT ISZERO PUSH2 0x1F29 JUMPI PUSH2 0x1F28 PUSH2 0x161B JUMP JUMPDEST JUMPDEST PUSH2 0x1F35 DUP5 DUP3 DUP6 ADD PUSH2 0x186A JUMP JUMPDEST SWAP2 POP POP SWAP3 SWAP2 POP POP JUMP JUMPDEST PUSH1 0x0 DUP2 MLOAD SWAP1 POP SWAP2 SWAP1 POP JUMP JUMPDEST PUSH1 0x0 DUP3 DUP3 MSTORE PUSH1 0x20 DUP3 ADD SWAP1 POP SWAP3 SWAP2 POP POP JUMP JUMPDEST PUSH1 0x0 PUSH2 0x1F65 DUP3 PUSH2 0x1F3E JUMP JUMPDEST PUSH2 0x1F6F DUP2 DUP6 PUSH2 0x1F49 JUMP JUMPDEST SWAP4 POP PUSH2 0x1F7F DUP2 DUP6 PUSH1 0x20 DUP7 ADD PUSH2 0x1A6F JUMP JUMPDEST PUSH2 0x1F88 DUP2 PUSH2 0x175C JUMP JUMPDEST DUP5 ADD SWAP2 POP POP SWAP3 SWAP2 POP POP JUMP JUMPDEST PUSH1 0x0 PUSH1 0x20 DUP3 ADD SWAP1 POP DUP2 DUP2 SUB PUSH1 0x0 DUP4 ADD MSTORE PUSH2 0x1FAD DUP2 DUP5 PUSH2 0x1F5A JUMP JUMPDEST SWAP1 POP SWAP3 SWAP2 POP POP JUMP JUMPDEST PUSH1 0x0 PUSH1 0x80 DUP3 ADD SWAP1 POP PUSH2 0x1FCA PUSH1 0x0 DUP4 ADD DUP8 PUSH2 0x1A44 JUMP JUMPDEST DUP2 DUP2 SUB PUSH1 0x20 DUP4 ADD MSTORE PUSH2 0x1FDC DUP2 DUP7 PUSH2 0x1AA2 JUMP JUMPDEST SWAP1 POP PUSH2 0x1FEB PUSH1 0x40 DUP4 ADD DUP6 PUSH2 0x1728 JUMP JUMPDEST PUSH2 0x1FF8 PUSH1 0x60 DUP4 ADD DUP5 PUSH2 0x1CB1 JUMP JUMPDEST SWAP6 SWAP5 POP POP POP POP POP JUMP JUMPDEST PUSH1 0x0 PUSH1 0x20 DUP3 DUP5 SUB SLT ISZERO PUSH2 0x2017 JUMPI PUSH2 0x2016 PUSH2 0x1616 JUMP JUMPDEST JUMPDEST PUSH1 0x0 PUSH2 0x2025 DUP5 DUP3 DUP6 ADD PUSH2 0x1669 JUMP JUMPDEST SWAP2 POP POP SWAP3 SWAP2 POP POP JUMP JUMPDEST PUSH1 0x0 PUSH1 0x20 DUP3 ADD SWAP1 POP DUP2 DUP2 SUB PUSH1 0x0 DUP4 ADD MSTORE PUSH2 0x2048 DUP2 DUP5 PUSH2 0x1B3B JUMP JUMPDEST SWAP1 POP SWAP3 SWAP2 POP POP JUMP JUMPDEST PUSH32 0x5468657265206D7573742062652065786163746C79203335207375622D636861 PUSH1 0x0 DUP3 ADD MSTORE PUSH32 0x6C6C656E6765732E000000000000000000000000000000000000000000000000 PUSH1 0x20 DUP3 ADD MSTORE POP JUMP JUMPDEST PUSH1 0x0 PUSH2 0x20AC PUSH1 0x28 DUP4 PUSH2 0x1A5E JUMP JUMPDEST SWAP2 POP PUSH2 0x20B7 DUP3 PUSH2 0x2050 JUMP JUMPDEST PUSH1 0x40 DUP3 ADD SWAP1 POP SWAP2 SWAP1 POP JUMP JUMPDEST PUSH1 0x0 PUSH1 0x20 DUP3 ADD SWAP1 POP DUP2 DUP2 SUB PUSH1 0x0 DUP4 ADD MSTORE PUSH2 0x20DB DUP2 PUSH2 0x209F JUMP JUMPDEST SWAP1 POP SWAP2 SWAP1 POP JUMP JUMPDEST PUSH32 0x4E487B7100000000000000000000000000000000000000000000000000000000 PUSH1 0x0 MSTORE PUSH1 0x11 PUSH1 0x4 MSTORE PUSH1 0x24 PUSH1 0x0 REVERT JUMPDEST PUSH1 0x0 PUSH2 0x211C DUP3 PUSH2 0x167E JUMP JUMPDEST SWAP2 POP PUSH2 0x2127 DUP4 PUSH2 0x167E JUMP JUMPDEST SWAP3 POP DUP3 DUP3 LT ISZERO PUSH2 0x213A JUMPI PUSH2 0x2139 PUSH2 0x20E2 JUMP JUMPDEST JUMPDEST DUP3 DUP3 SUB SWAP1 POP SWAP3 SWAP2 POP POP JUMP JUMPDEST PUSH1 0x0 PUSH1 0x20 DUP3 ADD SWAP1 POP DUP2 DUP2 SUB PUSH1 0x0 DUP4 ADD MSTORE PUSH2 0x215F DUP2 DUP5 PUSH2 0x1AA2 JUMP JUMPDEST SWAP1 POP SWAP3 SWAP2 POP POP JUMP JUMPDEST PUSH32 0x4368616C6C656E676520646F6573206E6F742065786973742E00000000000000 PUSH1 0x0 DUP3 ADD MSTORE POP JUMP JUMPDEST PUSH1 0x0 PUSH2 0x219D PUSH1 0x19 DUP4 PUSH2 0x1A5E JUMP JUMPDEST SWAP2 POP PUSH2 0x21A8 DUP3 PUSH2 0x2167 JUMP JUMPDEST PUSH1 0x20 DUP3 ADD SWAP1 POP SWAP2 SWAP1 POP JUMP JUMPDEST PUSH1 0x0 PUSH1 0x20 DUP3 ADD SWAP1 POP DUP2 DUP2 SUB PUSH1 0x0 DUP4 ADD MSTORE PUSH2 0x21CC DUP2 PUSH2 0x2190 JUMP JUMPDEST SWAP1 POP SWAP2 SWAP1 POP JUMP JUMPDEST PUSH32 0x4E487B7100000000000000000000000000000000000000000000000000000000 PUSH1 0x0 MSTORE PUSH1 0x32 PUSH1 0x4 MSTORE PUSH1 0x24 PUSH1 0x0 REVERT JUMPDEST PUSH32 0x4E487B7100000000000000000000000000000000000000000000000000000000 PUSH1 0x0 MSTORE PUSH1 0x22 PUSH1 0x4 MSTORE PUSH1 0x24 PUSH1 0x0 REVERT JUMPDEST PUSH1 0x0 PUSH1 0x2 DUP3 DIV SWAP1 POP PUSH1 0x1 DUP3 AND DUP1 PUSH2 0x2249 JUMPI PUSH1 0x7F DUP3 AND SWAP2 POP JUMPDEST PUSH1 0x20 DUP3 LT DUP2 EQ ISZERO PUSH2 0x225D JUMPI PUSH2 0x225C PUSH2 0x2202 JUMP JUMPDEST JUMPDEST POP SWAP2 SWAP1 POP JUMP JUMPDEST PUSH1 0x0 PUSH2 0x226E DUP3 PUSH2 0x1D28 JUMP JUMPDEST SWAP2 POP PUSH2 0x2279 DUP4 PUSH2 0x1D28 JUMP JUMPDEST SWAP3 POP DUP3 DUP3 LT ISZERO PUSH2 0x228C JUMPI PUSH2 0x228B PUSH2 0x20E2 JUMP JUMPDEST JUMPDEST DUP3 DUP3 SUB SWAP1 POP SWAP3 SWAP2 POP POP JUMP JUMPDEST PUSH1 0x0 PUSH2 0x22A2 DUP3 PUSH2 0x1D28 JUMP JUMPDEST SWAP2 POP PUSH2 0x22AD DUP4 PUSH2 0x1D28 JUMP JUMPDEST SWAP3 POP DUP3 PUSH1 0xFF SUB DUP3 GT ISZERO PUSH2 0x22C3 JUMPI PUSH2 0x22C2 PUSH2 0x20E2 JUMP JUMPDEST JUMPDEST DUP3 DUP3 ADD SWAP1 POP SWAP3 SWAP2 POP POP JUMP JUMPDEST PUSH32 0x6661696C00000000000000000000000000000000000000000000000000000000 PUSH1 0x0 DUP3 ADD MSTORE POP JUMP JUMPDEST PUSH1 0x0 PUSH2 0x2304 PUSH1 0x4 DUP4 PUSH2 0x1A5E JUMP JUMPDEST SWAP2 POP PUSH2 0x230F DUP3 PUSH2 0x22CE JUMP JUMPDEST PUSH1 0x20 DUP3 ADD SWAP1 POP SWAP2 SWAP1 POP JUMP JUMPDEST PUSH1 0x0 PUSH1 0x20 DUP3 ADD SWAP1 POP DUP2 DUP2 SUB PUSH1 0x0 DUP4 ADD MSTORE PUSH2 0x2333 DUP2 PUSH2 0x22F7 JUMP JUMPDEST SWAP1 POP SWAP2 SWAP1 POP JUMP JUMPDEST PUSH1 0x0 DUP2 SWAP1 POP SWAP3 SWAP2 POP POP JUMP JUMPDEST PUSH1 0x0 PUSH2 0x2350 DUP3 PUSH2 0x1F3E JUMP JUMPDEST PUSH2 0x235A DUP2 DUP6 PUSH2 0x233A JUMP JUMPDEST SWAP4 POP PUSH2 0x236A DUP2 DUP6 PUSH1 0x20 DUP7 ADD PUSH2 0x1A6F JUMP JUMPDEST DUP1 DUP5 ADD SWAP2 POP POP SWAP3 SWAP2 POP POP JUMP JUMPDEST PUSH1 0x0 PUSH2 0x2382 DUP3 DUP5 PUSH2 0x2345 JUMP JUMPDEST SWAP2 POP DUP2 SWAP1 POP SWAP3 SWAP2 POP POP JUMP JUMPDEST PUSH1 0x0 DUP2 MLOAD SWAP1 POP PUSH2 0x239C DUP2 PUSH2 0x18C9 JUMP JUMPDEST SWAP3 SWAP2 POP POP JUMP JUMPDEST PUSH1 0x0 PUSH1 0x20 DUP3 DUP5 SUB SLT ISZERO PUSH2 0x23B8 JUMPI PUSH2 0x23B7 PUSH2 0x1616 JUMP JUMPDEST JUMPDEST PUSH1 0x0 PUSH2 0x23C6 DUP5 DUP3 DUP6 ADD PUSH2 0x238D JUMP JUMPDEST SWAP2 POP POP SWAP3 SWAP2 POP POP JUMP JUMPDEST PUSH1 0x0 PUSH2 0x23DA DUP3 PUSH2 0x167E JUMP JUMPDEST SWAP2 POP PUSH32 0xFFFFFFFFFFFFFFFFFFFFFFFFFFFFFFFFFFFFFFFFFFFFFFFFFFFFFFFFFFFFFFFF DUP3 EQ ISZERO PUSH2 0x240D JUMPI PUSH2 0x240C PUSH2 0x20E2 JUMP JUMPDEST JUMPDEST PUSH1 0x1 DUP3 ADD SWAP1 POP SWAP2 SWAP1 POP JUMP JUMPDEST PUSH32 0x546F6F206D616E7920736F6C7574696F6E732E00000000000000000000000000 PUSH1 0x0 DUP3 ADD MSTORE POP JUMP JUMPDEST PUSH1 0x0 PUSH2 0x244E PUSH1 0x13 DUP4 PUSH2 0x1A5E JUMP JUMPDEST SWAP2 POP PUSH2 0x2459 DUP3 PUSH2 0x2418 JUMP JUMPDEST PUSH1 0x20 DUP3 ADD SWAP1 POP SWAP2 SWAP1 POP JUMP JUMPDEST PUSH1 0x0 PUSH1 0x20 DUP3 ADD SWAP1 POP DUP2 DUP2 SUB PUSH1 0x0 DUP4 ADD MSTORE PUSH2 0x247D DUP2 PUSH2 0x2441 JUMP JUMPDEST SWAP1 POP SWAP2 SWAP1 POP JUMP JUMPDEST PUSH32 0x4368616C6C656E676520616C726561647920736F6C7665642E00000000000000 PUSH1 0x0 DUP3 ADD MSTORE POP JUMP JUMPDEST PUSH1 0x0 PUSH2 0x24BA PUSH1 0x19 DUP4 PUSH2 0x1A5E JUMP JUMPDEST SWAP2 POP PUSH2 0x24C5 DUP3 PUSH2 0x2484 JUMP JUMPDEST PUSH1 0x20 DUP3 ADD SWAP1 POP SWAP2 SWAP1 POP JUMP JUMPDEST PUSH1 0x0 PUSH1 0x20 DUP3 ADD SWAP1 POP DUP2 DUP2 SUB PUSH1 0x0 DUP4 ADD MSTORE PUSH2 0x24E9 DUP2 PUSH2 0x24AD JUMP JUMPDEST SWAP1 POP SWAP2 SWAP1 POP JUMP JUMPDEST PUSH32 0x4F6E6C792074686520726563697069656E742063616E20736F6C766520746869 PUSH1 0x0 DUP3 ADD MSTORE PUSH32 0x73206368616C6C656E67652E0000000000000000000000000000000000000000 PUSH1 0x20 DUP3 ADD MSTORE POP JUMP JUMPDEST PUSH1 0x0 PUSH2 0x254C PUSH1 0x2C DUP4 PUSH2 0x1A5E JUMP JUMPDEST SWAP2 POP PUSH2 0x2557 DUP3 PUSH2 0x24F0 JUMP JUMPDEST PUSH1 0x40 DUP3 ADD SWAP1 POP SWAP2 SWAP1 POP JUMP JUMPDEST PUSH1 0x0 PUSH1 0x20 DUP3 ADD SWAP1 POP DUP2 DUP2 SUB PUSH1 0x0 DUP4 ADD MSTORE PUSH2 0x257B DUP2 PUSH2 0x253F JUMP JUMPDEST SWAP1 POP SWAP2 SWAP1 POP JUMP JUMPDEST PUSH1 0x0 PUSH2 0x258D DUP3 PUSH2 0x167E JUMP JUMPDEST SWAP2 POP PUSH2 0x2598 DUP4 PUSH2 0x167E JUMP JUMPDEST SWAP3 POP DUP3 PUSH32 0xFFFFFFFFFFFFFFFFFFFFFFFFFFFFFFFFFFFFFFFFFFFFFFFFFFFFFFFFFFFFFFFF SUB DUP3 GT ISZERO PUSH2 0x25CD JUMPI PUSH2 0x25CC PUSH2 0x20E2 JUMP JUMPDEST JUMPDEST DUP3 DUP3 ADD SWAP1 POP SWAP3 SWAP2 POP POP JUMP JUMPDEST PUSH32 0x536F6C7574696F6E732063616E206F6E6C79206265207265706F727465642062 PUSH1 0x0 DUP3 ADD MSTORE PUSH32 0x65666F726520626C6F636B2074696D65206C696D697400000000000000000000 PUSH1 0x20 DUP3 ADD MSTORE POP JUMP JUMPDEST PUSH1 0x0 PUSH2 0x2634 PUSH1 0x36 DUP4 PUSH2 0x1A5E JUMP JUMPDEST SWAP2 POP PUSH2 0x263F DUP3 PUSH2 0x25D8 JUMP JUMPDEST PUSH1 0x40 DUP3 ADD SWAP1 POP SWAP2 SWAP1 POP JUMP JUMPDEST PUSH1 0x0 PUSH1 0x20 DUP3 ADD SWAP1 POP DUP2 DUP2 SUB PUSH1 0x0 DUP4 ADD MSTORE PUSH2 0x2663 DUP2 PUSH2 0x2627 JUMP JUMPDEST SWAP1 POP SWAP2 SWAP1 POP JUMP JUMPDEST PUSH32 0x3100000000000000000000000000000000000000000000000000000000000000 DUP2 MSTORE POP JUMP JUMPDEST PUSH1 0x0 PUSH1 0x20 DUP3 ADD SWAP1 POP PUSH2 0x26A4 PUSH1 0x0 DUP4 ADD PUSH2 0x266A JUMP JUMPDEST SWAP2 SWAP1 POP JUMP JUMPDEST PUSH32 0x4E487B7100000000000000000000000000000000000000000000000000000000 PUSH1 0x0 MSTORE PUSH1 0x12 PUSH1 0x4 MSTORE PUSH1 0x24 PUSH1 0x0 REVERT JUMPDEST PUSH1 0x0 PUSH2 0x26E3 DUP3 PUSH2 0x167E JUMP JUMPDEST SWAP2 POP PUSH2 0x26EE DUP4 PUSH2 0x167E JUMP JUMPDEST SWAP3 POP DUP3 PUSH2 0x26FE JUMPI PUSH2 0x26FD PUSH2 0x26A9 JUMP JUMPDEST JUMPDEST DUP3 DUP3 MOD SWAP1 POP SWAP3 SWAP2 POP POP JUMP JUMPDEST PUSH1 0x0 PUSH2 0x2714 DUP3 PUSH2 0x167E JUMP JUMPDEST SWAP2 POP PUSH2 0x271F DUP4 PUSH2 0x167E JUMP JUMPDEST SWAP3 POP DUP3 PUSH2 0x272F JUMPI PUSH2 0x272E PUSH2 0x26A9 JUMP JUMPDEST JUMPDEST DUP3 DUP3 DIV SWAP1 POP SWAP3 SWAP2 POP POP JUMP JUMPDEST PUSH1 0x0 PUSH2 0x2745 DUP3 PUSH2 0x167E JUMP JUMPDEST SWAP2 POP PUSH2 0x2750 DUP4 PUSH2 0x167E JUMP JUMPDEST SWAP3 POP DUP2 PUSH32 0xFFFFFFFFFFFFFFFFFFFFFFFFFFFFFFFFFFFFFFFFFFFFFFFFFFFFFFFFFFFFFFFF DIV DUP4 GT DUP3 ISZERO ISZERO AND ISZERO PUSH2 0x2789 JUMPI PUSH2 0x2788 PUSH2 0x20E2 JUMP JUMPDEST JUMPDEST DUP3 DUP3 MUL SWAP1 POP SWAP3 SWAP2 POP POP JUMP JUMPDEST PUSH1 0x0 PUSH2 0x279F DUP3 PUSH2 0x1D28 JUMP JUMPDEST SWAP2 POP PUSH2 0x27AA DUP4 PUSH2 0x1D28 JUMP JUMPDEST SWAP3 POP DUP2 PUSH1 0xFF DIV DUP4 GT DUP3 ISZERO ISZERO AND ISZERO PUSH2 0x27C4 JUMPI PUSH2 0x27C3 PUSH2 0x20E2 JUMP JUMPDEST JUMPDEST DUP3 DUP3 MUL SWAP1 POP SWAP3 SWAP2 POP POP JUMP JUMPDEST PUSH1 0x0 PUSH1 0x40 DUP3 ADD SWAP1 POP DUP2 DUP2 SUB PUSH1 0x0 DUP4 ADD MSTORE PUSH2 0x27E9 DUP2 DUP6 PUSH2 0x1AA2 JUMP JUMPDEST SWAP1 POP DUP2 DUP2 SUB PUSH1 0x20 DUP4 ADD MSTORE PUSH2 0x27FD DUP2 DUP5 PUSH2 0x1B3B JUMP JUMPDEST SWAP1 POP SWAP4 SWAP3 POP POP POP JUMP INVALID LOG2 PUSH5 0x6970667358 0x22 SLT KECCAK256 DUP10 0xE9 0x4C 0xE1 EQ DELEGATECALL 0xC1 0xB0 0xAC DUP10 0x4E 0x29 DUP10 SUB 0xEB COINBASE ADD SWAP8 RETURNDATASIZE SWAP2 REVERT 0xAD PUSH32 0x1E47A5506E94D367B364736F6C63430008080033000000000000000000000000 "},"methodIdentifiers":{"BIT_RANGE()":"0aec0463","BLOCK_LIMIT()":"2a94aac8","START_BIT()":"8fb60ad6","challenges(uint256)":"8f1d3776","createChallenge(address,string,bytes32[])":"0dc715c4","fromHex(string)":"8e7e34d7","fromHexChar(uint8)":"2ecb20d3","getBitRange()":"fc4306bb","getChallenge(uint256)":"1bdd4b74","getGroupHash(address)":"f3d9ea82","getStartBit()":"5e9b786b","solveChallenge(uint256,string[])":"5c53d4e4","storeGroupHash(address,string,bytes32[])":"9238f9e3","storedGroupHashes(address,uint256)":"0160196b","verifyChallenge(uint256)":"3e2882bf"}}}}}