{
  "_format": "hh-sol-artifact-1",
  "contractName": "Challenges",
  "sourceName": "contracts/Challenges.sol",
  "abi": [
    {
      "anonymous": false,
      "inputs": [
        {
          "indexed": true,
          "internalType": "address",
          "name": "recipient",
          "type": "address"
        },
        {
          "indexed": false,
          "internalType": "string",
          "name": "challengeText",
          "type": "string"
        },
        {
          "indexed": false,
          "internalType": "bytes32[]",
          "name": "groupHashArray",
          "type": "bytes32[]"
        },
        {
          "indexed": true,
          "internalType": "uint256",
          "name": "challengeId",
          "type": "uint256"
        }
      ],
      "name": "ChallengeCreated",
      "type": "event"
    },
    {
      "anonymous": false,
      "inputs": [
        {
          "indexed": true,
          "internalType": "uint256",
          "name": "challengeId",
          "type": "uint256"
        },
        {
          "indexed": false,
          "internalType": "uint256",
          "name": "solved",
          "type": "uint256"
        }
      ],
      "name": "ChallengeSubmitted",
      "type": "event"
    },
    {
      "anonymous": false,
      "inputs": [
        {
          "indexed": false,
          "internalType": "string",
          "name": "challengeId",
          "type": "string"
        }
      ],
      "name": "log",
      "type": "event"
    },
    {
      "anonymous": false,
      "inputs": [
        {
          "indexed": false,
          "internalType": "bytes",
          "name": "solved",
          "type": "bytes"
        }
      ],
      "name": "log2",
      "type": "event"
    },
    {
      "anonymous": false,
      "inputs": [
        {
          "indexed": false,
          "internalType": "bytes32",
          "name": "solved",
          "type": "bytes32"
        }
      ],
      "name": "log3",
      "type": "event"
    },
    {
      "inputs": [],
      "name": "BIT_RANGE",
      "outputs": [
        {
          "internalType": "uint256",
          "name": "",
          "type": "uint256"
        }
      ],
      "stateMutability": "view",
      "type": "function"
    },
    {
      "inputs": [],
      "name": "BLOCK_LIMIT",
      "outputs": [
        {
          "internalType": "uint256",
          "name": "",
          "type": "uint256"
        }
      ],
      "stateMutability": "view",
      "type": "function"
    },
    {
      "inputs": [],
      "name": "START_BIT",
      "outputs": [
        {
          "internalType": "uint256",
          "name": "",
          "type": "uint256"
        }
      ],
      "stateMutability": "view",
      "type": "function"
    },
    {
      "inputs": [
        {
          "internalType": "uint256",
          "name": "",
          "type": "uint256"
        }
      ],
      "name": "challenges",
      "outputs": [
        {
          "internalType": "address",
          "name": "recipient",
          "type": "address"
        },
        {
          "internalType": "string",
          "name": "challengeText",
          "type": "string"
        },
        {
          "internalType": "uint256",
          "name": "startBlock",
          "type": "uint256"
        },
        {
          "internalType": "uint256",
          "name": "solved",
          "type": "uint256"
        }
      ],
      "stateMutability": "view",
      "type": "function"
    },
    {
      "inputs": [
        {
          "internalType": "address",
          "name": "_recipient",
          "type": "address"
        },
        {
          "internalType": "string",
          "name": "_challengeText",
          "type": "string"
        },
        {
          "internalType": "bytes32[]",
          "name": "_subChallenges",
          "type": "bytes32[]"
        }
      ],
      "name": "createChallenge",
      "outputs": [],
      "stateMutability": "nonpayable",
      "type": "function"
    },
    {
      "inputs": [
        {
          "internalType": "string",
          "name": "s",
          "type": "string"
        }
      ],
      "name": "fromHex",
      "outputs": [
        {
          "internalType": "bytes",
          "name": "",
          "type": "bytes"
        }
      ],
      "stateMutability": "pure",
      "type": "function"
    },
    {
      "inputs": [
        {
          "internalType": "uint8",
          "name": "c",
          "type": "uint8"
        }
      ],
      "name": "fromHexChar",
      "outputs": [
        {
          "internalType": "uint8",
          "name": "",
          "type": "uint8"
        }
      ],
      "stateMutability": "pure",
      "type": "function"
    },
    {
      "inputs": [],
      "name": "getBitRange",
      "outputs": [
        {
          "internalType": "uint256",
          "name": "",
          "type": "uint256"
        }
      ],
      "stateMutability": "pure",
      "type": "function"
    },
    {
      "inputs": [
        {
          "internalType": "uint256",
          "name": "_index",
          "type": "uint256"
        }
      ],
      "name": "getChallenge",
      "outputs": [
        {
          "internalType": "address",
          "name": "",
          "type": "address"
        },
        {
          "internalType": "string",
          "name": "",
          "type": "string"
        },
        {
          "internalType": "bytes32[]",
          "name": "",
          "type": "bytes32[]"
        },
        {
          "internalType": "string[]",
          "name": "",
          "type": "string[]"
        },
        {
          "internalType": "uint256",
          "name": "",
          "type": "uint256"
        },
        {
          "internalType": "uint256",
          "name": "",
          "type": "uint256"
        }
      ],
      "stateMutability": "view",
      "type": "function"
    },
    {
      "inputs": [],
      "name": "getStartBit",
      "outputs": [
        {
          "internalType": "uint256",
          "name": "",
          "type": "uint256"
        }
      ],
      "stateMutability": "pure",
      "type": "function"
    },
    {
      "inputs": [
        {
          "internalType": "uint256",
          "name": "_challengeIndex",
          "type": "uint256"
        },
        {
          "internalType": "string[]",
          "name": "_subSolutions",
          "type": "string[]"
        }
      ],
      "name": "solveChallenge",
      "outputs": [],
      "stateMutability": "nonpayable",
      "type": "function"
    }
  ],
  "bytecode": "0x608060405234801561001057600080fd5b506122fe806100206000396000f3fe608060405234801561001057600080fd5b50600436106100a95760003560e01c80635c53d4e4116100715780635c53d4e41461016b5780635e9b786b146101875780638e7e34d7146101a55780638f1d3776146101d55780638fb60ad614610208578063fc4306bb14610226576100a9565b80630aec0463146100ae5780630dc715c4146100cc5780631bdd4b74146100e85780632a94aac81461011d5780632ecb20d31461013b575b600080fd5b6100b6610244565b6040516100c39190611242565b60405180910390f35b6100e660048036038101906100e19190611513565b610249565b005b61010260048036038101906100fd91906115ca565b610464565b60405161011496959493929190611858565b60405180910390f35b6101256106dc565b6040516101329190611242565b60405180910390f35b61015560048036038101906101509190611907565b6106e1565b6040516101629190611943565b60405180910390f35b61018560048036038101906101809190611a3f565b610a86565b005b61018f610dd5565b60405161019c9190611242565b60405180910390f35b6101bf60048036038101906101ba9190611a9b565b610dde565b6040516101cc9190611b39565b60405180910390f35b6101ef60048036038101906101ea91906115ca565b610f62565b6040516101ff9493929190611b5b565b60405180910390f35b61021061104a565b60405161021d9190611242565b60405180910390f35b61022e61104f565b60405161023b9190611242565b60405180910390f35b602381565b602381511461028d576040517f08c379a000000000000000000000000000000000000000000000000000000000815260040161028490611c19565b60405180910390fd5b6000602367ffffffffffffffff8111156102aa576102a96112ea565b5b6040519080825280602002602001820160405280156102dd57816020015b60608152602001906001900390816102c85790505b50905060008080549050905060006040518060c001604052808773ffffffffffffffffffffffffffffffffffffffff1681526020018681526020018581526020018481526020014381526020016000815250908060018154018082558091505060019003906000526020600020906006020160009091909190915060008201518160000160006101000a81548173ffffffffffffffffffffffffffffffffffffffff021916908373ffffffffffffffffffffffffffffffffffffffff16021790555060208201518160010190805190602001906103bb929190611058565b5060408201518160020190805190602001906103d89291906110de565b5060608201518160030190805190602001906103f592919061112b565b506080820151816004015560a082015181600501555050808573ffffffffffffffffffffffffffffffffffffffff167fa9ea3b616a0caf1c1d1d3beb2e2222b958fda39c30263cb2e26ab6012b88c0a38686604051610455929190611c39565b60405180910390a35050505050565b6000606080606060008060008054905087106104b5576040517f08c379a00000000000000000000000000000000000000000000000000000000081526004016104ac90611cbc565b60405180910390fd5b60008088815481106104ca576104c9611cdc565b5b906000526020600020906006020190508060000160009054906101000a900473ffffffffffffffffffffffffffffffffffffffff168160010182600201836003018460040154856005015484805461052190611d3a565b80601f016020809104026020016040519081016040528092919081815260200182805461054d90611d3a565b801561059a5780601f1061056f5761010080835404028352916020019161059a565b820191906000526020600020905b81548152906001019060200180831161057d57829003601f168201915b50505050509450838054806020026020016040519081016040528092919081815260200182805480156105ec57602002820191906000526020600020905b8154815260200190600101908083116105d8575b5050505050935082805480602002602001604051908101604052809291908181526020016000905b828210156106c057838290600052602060002001805461063390611d3a565b80601f016020809104026020016040519081016040528092919081815260200182805461065f90611d3a565b80156106ac5780601f10610681576101008083540402835291602001916106ac565b820191906000526020600020905b81548152906001019060200180831161068f57829003601f168201915b505050505081526020019060010190610614565b5050505092509650965096509650965096505091939550919395565b602881565b60007f30000000000000000000000000000000000000000000000000000000000000007effffffffffffffffffffffffffffffffffffffffffffffffffffffffffffff19168260f81b7effffffffffffffffffffffffffffffffffffffffffffffffffffffffffffff1916101580156107c157507f39000000000000000000000000000000000000000000000000000000000000007effffffffffffffffffffffffffffffffffffffffffffffffffffffffffffff19168260f81b7effffffffffffffffffffffffffffffffffffffffffffffffffffffffffffff191611155b156107fc577f300000000000000000000000000000000000000000000000000000000000000060f81c826107f59190611d9b565b9050610a81565b7f61000000000000000000000000000000000000000000000000000000000000007effffffffffffffffffffffffffffffffffffffffffffffffffffffffffffff19168260f81b7effffffffffffffffffffffffffffffffffffffffffffffffffffffffffffff1916101580156108da57507f66000000000000000000000000000000000000000000000000000000000000007effffffffffffffffffffffffffffffffffffffffffffffffffffffffffffff19168260f81b7effffffffffffffffffffffffffffffffffffffffffffffffffffffffffffff191611155b15610921577f610000000000000000000000000000000000000000000000000000000000000060f81c82600a6109109190611dcf565b61091a9190611d9b565b9050610a81565b7f41000000000000000000000000000000000000000000000000000000000000007effffffffffffffffffffffffffffffffffffffffffffffffffffffffffffff19168260f81b7effffffffffffffffffffffffffffffffffffffffffffffffffffffffffffff1916101580156109ff57507f46000000000000000000000000000000000000000000000000000000000000007effffffffffffffffffffffffffffffffffffffffffffffffffffffffffffff19168260f81b7effffffffffffffffffffffffffffffffffffffffffffffffffffffffffffff191611155b15610a46577f410000000000000000000000000000000000000000000000000000000000000060f81c82600a610a359190611dcf565b610a3f9190611d9b565b9050610a81565b6040517f08c379a0000000000000000000000000000000000000000000000000000000008152600401610a7890611e52565b60405180910390fd5b919050565b6000805490508210610acd576040517f08c379a0000000000000000000000000000000000000000000000000000000008152600401610ac490611cbc565b60405180910390fd5b602381511115610b12576040517f08c379a0000000000000000000000000000000000000000000000000000000008152600401610b0990611ebe565b60405180910390fd5b6000808381548110610b2757610b26611cdc565b5b906000526020600020906006020190506000816005015414610b7e576040517f08c379a0000000000000000000000000000000000000000000000000000000008152600401610b7590611f2a565b60405180910390fd5b8060000160009054906101000a900473ffffffffffffffffffffffffffffffffffffffff1673ffffffffffffffffffffffffffffffffffffffff163373ffffffffffffffffffffffffffffffffffffffff1614610c10576040517f08c379a0000000000000000000000000000000000000000000000000000000008152600401610c0790611fbc565b60405180910390fd5b60288160040154610c219190611fdc565b431115610c63576040517f08c379a0000000000000000000000000000000000000000000000000000000008152600401610c5a906120a4565b60405180910390fd5b60005b8251811015610cd157828181518110610c8257610c81611cdc565b5b6020026020010151826003018281548110610ca057610c9f611cdc565b5b906000526020600020019080519060200190610cbd929190611058565b508080610cc9906120c4565b915050610c66565b5060005b8251811015610d8e57816002018181548110610cf457610cf3611cdc565b5b90600052602060002001546002610d24858481518110610d1757610d16611cdc565b5b6020026020010151610dde565b604051610d319190612149565b602060405180830381855afa158015610d4e573d6000803e3d6000fd5b5050506040513d601f19601f82011682018060405250810190610d719190612175565b14610d7b57610d8e565b8080610d86906120c4565b915050610cd5565b808260050181905550837f30c88ee30798311cb2cb986f96e05ca59745cd9f97c1463eae6680638b5a49dc82604051610dc79190611242565b60405180910390a250505050565b6000601e905090565b60606000829050600060028251610df591906121d1565b14610dff57600080fd5b600060028251610e0f9190612202565b67ffffffffffffffff811115610e2857610e276112ea565b5b6040519080825280601f01601f191660200182016040528015610e5a5781602001600182028036833780820191505090505b50905060005b60028351610e6e9190612202565b811015610f5757610eb6836001836002610e889190612233565b610e929190611fdc565b81518110610ea357610ea2611cdc565b5b602001015160f81c60f81b60f81c6106e1565b6010610eed85846002610ec99190612233565b81518110610eda57610ed9611cdc565b5b602001015160f81c60f81b60f81c6106e1565b610ef7919061228d565b610f019190611dcf565b60f81b828281518110610f1757610f16611cdc565b5b60200101907effffffffffffffffffffffffffffffffffffffffffffffffffffffffffffff1916908160001a90535080610f50906120c4565b9050610e60565b508092505050919050565b60008181548110610f7257600080fd5b90600052602060002090600602016000915090508060000160009054906101000a900473ffffffffffffffffffffffffffffffffffffffff1690806001018054610fbb90611d3a565b80601f0160208091040260200160405190810160405280929190818152602001828054610fe790611d3a565b80156110345780601f1061100957610100808354040283529160200191611034565b820191906000526020600020905b81548152906001019060200180831161101757829003601f168201915b5050505050908060040154908060050154905084565b601e81565b60006023905090565b82805461106490611d3a565b90600052602060002090601f01602090048101928261108657600085556110cd565b82601f1061109f57805160ff19168380011785556110cd565b828001600101855582156110cd579182015b828111156110cc5782518255916020019190600101906110b1565b5b5090506110da919061118b565b5090565b82805482825590600052602060002090810192821561111a579160200282015b828111156111195782518255916020019190600101906110fe565b5b50905061112791906111a8565b5090565b82805482825590600052602060002090810192821561117a579160200282015b82811115611179578251829080519060200190611169929190611058565b509160200191906001019061114b565b5b50905061118791906111c5565b5090565b5b808211156111a457600081600090555060010161118c565b5090565b5b808211156111c15760008160009055506001016111a9565b5090565b5b808211156111e557600081816111dc91906111e9565b506001016111c6565b5090565b5080546111f590611d3a565b6000825580601f106112075750611226565b601f016020900490600052602060002090810190611225919061118b565b5b50565b6000819050919050565b61123c81611229565b82525050565b60006020820190506112576000830184611233565b92915050565b6000604051905090565b600080fd5b600080fd5b600073ffffffffffffffffffffffffffffffffffffffff82169050919050565b600061129c82611271565b9050919050565b6112ac81611291565b81146112b757600080fd5b50565b6000813590506112c9816112a3565b92915050565b600080fd5b600080fd5b6000601f19601f8301169050919050565b7f4e487b7100000000000000000000000000000000000000000000000000000000600052604160045260246000fd5b611322826112d9565b810181811067ffffffffffffffff82111715611341576113406112ea565b5b80604052505050565b600061135461125d565b90506113608282611319565b919050565b600067ffffffffffffffff8211156113805761137f6112ea565b5b611389826112d9565b9050602081019050919050565b82818337600083830152505050565b60006113b86113b384611365565b61134a565b9050828152602081018484840111156113d4576113d36112d4565b5b6113df848285611396565b509392505050565b600082601f8301126113fc576113fb6112cf565b5b813561140c8482602086016113a5565b91505092915050565b600067ffffffffffffffff8211156114305761142f6112ea565b5b602082029050602081019050919050565b600080fd5b6000819050919050565b61145981611446565b811461146457600080fd5b50565b60008135905061147681611450565b92915050565b600061148f61148a84611415565b61134a565b905080838252602082019050602084028301858111156114b2576114b1611441565b5b835b818110156114db57806114c78882611467565b8452602084019350506020810190506114b4565b5050509392505050565b600082601f8301126114fa576114f96112cf565b5b813561150a84826020860161147c565b91505092915050565b60008060006060848603121561152c5761152b611267565b5b600061153a868287016112ba565b935050602084013567ffffffffffffffff81111561155b5761155a61126c565b5b611567868287016113e7565b925050604084013567ffffffffffffffff8111156115885761158761126c565b5b611594868287016114e5565b9150509250925092565b6115a781611229565b81146115b257600080fd5b50565b6000813590506115c48161159e565b92915050565b6000602082840312156115e0576115df611267565b5b60006115ee848285016115b5565b91505092915050565b61160081611291565b82525050565b600081519050919050565b600082825260208201905092915050565b60005b83811015611640578082015181840152602081019050611625565b8381111561164f576000848401525b50505050565b600061166082611606565b61166a8185611611565b935061167a818560208601611622565b611683816112d9565b840191505092915050565b600081519050919050565b600082825260208201905092915050565b6000819050602082019050919050565b6116c381611446565b82525050565b60006116d583836116ba565b60208301905092915050565b6000602082019050919050565b60006116f98261168e565b6117038185611699565b935061170e836116aa565b8060005b8381101561173f57815161172688826116c9565b9750611731836116e1565b925050600181019050611712565b5085935050505092915050565b600081519050919050565b600082825260208201905092915050565b6000819050602082019050919050565b600082825260208201905092915050565b600061179482611606565b61179e8185611778565b93506117ae818560208601611622565b6117b7816112d9565b840191505092915050565b60006117ce8383611789565b905092915050565b6000602082019050919050565b60006117ee8261174c565b6117f88185611757565b93508360208202850161180a85611768565b8060005b85811015611846578484038952815161182785826117c2565b9450611832836117d6565b925060208a0199505060018101905061180e565b50829750879550505050505092915050565b600060c08201905061186d60008301896115f7565b818103602083015261187f8188611655565b9050818103604083015261189381876116ee565b905081810360608301526118a781866117e3565b90506118b66080830185611233565b6118c360a0830184611233565b979650505050505050565b600060ff82169050919050565b6118e4816118ce565b81146118ef57600080fd5b50565b600081359050611901816118db565b92915050565b60006020828403121561191d5761191c611267565b5b600061192b848285016118f2565b91505092915050565b61193d816118ce565b82525050565b60006020820190506119586000830184611934565b92915050565b600067ffffffffffffffff821115611979576119786112ea565b5b602082029050602081019050919050565b600061199d6119988461195e565b61134a565b905080838252602082019050602084028301858111156119c0576119bf611441565b5b835b81811015611a0757803567ffffffffffffffff8111156119e5576119e46112cf565b5b8086016119f289826113e7565b855260208501945050506020810190506119c2565b5050509392505050565b600082601f830112611a2657611a256112cf565b5b8135611a3684826020860161198a565b91505092915050565b60008060408385031215611a5657611a55611267565b5b6000611a64858286016115b5565b925050602083013567ffffffffffffffff811115611a8557611a8461126c565b5b611a9185828601611a11565b9150509250929050565b600060208284031215611ab157611ab0611267565b5b600082013567ffffffffffffffff811115611acf57611ace61126c565b5b611adb848285016113e7565b91505092915050565b600081519050919050565b600082825260208201905092915050565b6000611b0b82611ae4565b611b158185611aef565b9350611b25818560208601611622565b611b2e816112d9565b840191505092915050565b60006020820190508181036000830152611b538184611b00565b905092915050565b6000608082019050611b7060008301876115f7565b8181036020830152611b828186611655565b9050611b916040830185611233565b611b9e6060830184611233565b95945050505050565b7f5468657265206d7573742062652065786163746c79203335207375622d63686160008201527f6c6c656e6765732e000000000000000000000000000000000000000000000000602082015250565b6000611c03602883611611565b9150611c0e82611ba7565b604082019050919050565b60006020820190508181036000830152611c3281611bf6565b9050919050565b60006040820190508181036000830152611c538185611655565b90508181036020830152611c6781846116ee565b90509392505050565b7f4368616c6c656e676520646f6573206e6f742065786973742e00000000000000600082015250565b6000611ca6601983611611565b9150611cb182611c70565b602082019050919050565b60006020820190508181036000830152611cd581611c99565b9050919050565b7f4e487b7100000000000000000000000000000000000000000000000000000000600052603260045260246000fd5b7f4e487b7100000000000000000000000000000000000000000000000000000000600052602260045260246000fd5b60006002820490506001821680611d5257607f821691505b60208210811415611d6657611d65611d0b565b5b50919050565b7f4e487b7100000000000000000000000000000000000000000000000000000000600052601160045260246000fd5b6000611da6826118ce565b9150611db1836118ce565b925082821015611dc457611dc3611d6c565b5b828203905092915050565b6000611dda826118ce565b9150611de5836118ce565b92508260ff03821115611dfb57611dfa611d6c565b5b828201905092915050565b7f6661696c00000000000000000000000000000000000000000000000000000000600082015250565b6000611e3c600483611611565b9150611e4782611e06565b602082019050919050565b60006020820190508181036000830152611e6b81611e2f565b9050919050565b7f546f6f206d616e7920736f6c7574696f6e732e00000000000000000000000000600082015250565b6000611ea8601383611611565b9150611eb382611e72565b602082019050919050565b60006020820190508181036000830152611ed781611e9b565b9050919050565b7f4368616c6c656e676520616c726561647920736f6c7665642e00000000000000600082015250565b6000611f14601983611611565b9150611f1f82611ede565b602082019050919050565b60006020820190508181036000830152611f4381611f07565b9050919050565b7f4f6e6c792074686520726563697069656e742063616e20736f6c76652074686960008201527f73206368616c6c656e67652e0000000000000000000000000000000000000000602082015250565b6000611fa6602c83611611565b9150611fb182611f4a565b604082019050919050565b60006020820190508181036000830152611fd581611f99565b9050919050565b6000611fe782611229565b9150611ff283611229565b9250827fffffffffffffffffffffffffffffffffffffffffffffffffffffffffffffffff0382111561202757612026611d6c565b5b828201905092915050565b7f536f6c7574696f6e732063616e206f6e6c79206265207265706f72746564206260008201527f65666f726520626c6f636b2074696d65206c696d697400000000000000000000602082015250565b600061208e603683611611565b915061209982612032565b604082019050919050565b600060208201905081810360008301526120bd81612081565b9050919050565b60006120cf82611229565b91507fffffffffffffffffffffffffffffffffffffffffffffffffffffffffffffffff82141561210257612101611d6c565b5b600182019050919050565b600081905092915050565b600061212382611ae4565b61212d818561210d565b935061213d818560208601611622565b80840191505092915050565b60006121558284612118565b915081905092915050565b60008151905061216f81611450565b92915050565b60006020828403121561218b5761218a611267565b5b600061219984828501612160565b91505092915050565b7f4e487b7100000000000000000000000000000000000000000000000000000000600052601260045260246000fd5b60006121dc82611229565b91506121e783611229565b9250826121f7576121f66121a2565b5b828206905092915050565b600061220d82611229565b915061221883611229565b925082612228576122276121a2565b5b828204905092915050565b600061223e82611229565b915061224983611229565b9250817fffffffffffffffffffffffffffffffffffffffffffffffffffffffffffffffff048311821515161561228257612281611d6c565b5b828202905092915050565b6000612298826118ce565b91506122a3836118ce565b92508160ff04831182151516156122bd576122bc611d6c565b5b82820290509291505056fea2646970667358221220f04c14ba4dc8d3820928c524ccd3f18557d2880690e2e16fd15b35130eeec17d64736f6c63430008080033",
  "linkReferences": {},
  "deployedLinkReferences": {}
}