{
  "_format": "hh-sol-artifact-1",
  "contractName": "Challenges",
  "sourceName": "contracts/Challenges.sol",
  "abi": [
    {
      "anonymous": false,
      "inputs": [
        {
          "indexed": true,
          "internalType": "uint256",
          "name": "challengeId",
          "type": "uint256"
        },
        {
          "indexed": true,
          "internalType": "address",
          "name": "recipient",
          "type": "address"
        },
        {
          "indexed": false,
          "internalType": "string",
          "name": "challengeText",
          "type": "string"
        }
      ],
      "name": "ChallengeCreated",
      "type": "event"
    },
    {
      "anonymous": false,
      "inputs": [
        {
          "indexed": true,
          "internalType": "uint256",
          "name": "challengeId",
          "type": "uint256"
        },
        {
          "indexed": false,
          "internalType": "uint256",
          "name": "res",
          "type": "uint256"
        }
      ],
      "name": "ChallengeVerified",
      "type": "event"
    },
    {
      "anonymous": false,
      "inputs": [
        {
          "indexed": false,
          "internalType": "bytes32[]",
          "name": "groupHash",
          "type": "bytes32[]"
        }
      ],
      "name": "GroupHashStored",
      "type": "event"
    },
    {
      "anonymous": false,
      "inputs": [
        {
          "indexed": true,
          "internalType": "uint256",
          "name": "challengeId",
          "type": "uint256"
        },
        {
          "indexed": true,
          "internalType": "uint256",
          "name": "subChallengeIndex",
          "type": "uint256"
        },
        {
          "indexed": false,
          "internalType": "bytes32",
          "name": "subSolution",
          "type": "bytes32"
        }
      ],
      "name": "SubChallengeSolved",
      "type": "event"
    },
    {
      "anonymous": false,
      "inputs": [
        {
          "indexed": false,
          "internalType": "string",
          "name": "challengeId",
          "type": "string"
        }
      ],
      "name": "log",
      "type": "event"
    },
    {
      "anonymous": false,
      "inputs": [
        {
          "indexed": false,
          "internalType": "bytes",
          "name": "solved",
          "type": "bytes"
        }
      ],
      "name": "log2",
      "type": "event"
    },
    {
      "anonymous": false,
      "inputs": [
        {
          "indexed": false,
          "internalType": "bytes32",
          "name": "solved",
          "type": "bytes32"
        }
      ],
      "name": "log3",
      "type": "event"
    },
    {
      "inputs": [],
      "name": "BIT_RANGE",
      "outputs": [
        {
          "internalType": "uint256",
          "name": "",
          "type": "uint256"
        }
      ],
      "stateMutability": "view",
      "type": "function"
    },
    {
      "inputs": [],
      "name": "BLOCK_LIMIT",
      "outputs": [
        {
          "internalType": "uint256",
          "name": "",
          "type": "uint256"
        }
      ],
      "stateMutability": "view",
      "type": "function"
    },
    {
      "inputs": [],
      "name": "START_BIT",
      "outputs": [
        {
          "internalType": "uint256",
          "name": "",
          "type": "uint256"
        }
      ],
      "stateMutability": "view",
      "type": "function"
    },
    {
      "inputs": [
        {
          "internalType": "uint256",
          "name": "",
          "type": "uint256"
        }
      ],
      "name": "challenges",
      "outputs": [
        {
          "internalType": "address",
          "name": "recipient",
          "type": "address"
        },
        {
          "internalType": "string",
          "name": "challengeText",
          "type": "string"
        },
        {
          "internalType": "uint256",
          "name": "startBlock",
          "type": "uint256"
        },
        {
          "internalType": "bool",
          "name": "solved",
          "type": "bool"
        }
      ],
      "stateMutability": "view",
      "type": "function"
    },
    {
      "inputs": [
        {
          "internalType": "address",
          "name": "_recipient",
          "type": "address"
        },
        {
          "internalType": "string",
          "name": "_challengeText",
          "type": "string"
        },
        {
          "internalType": "bytes32[]",
          "name": "_subChallenges",
          "type": "bytes32[]"
        }
      ],
      "name": "createChallenge",
      "outputs": [],
      "stateMutability": "nonpayable",
      "type": "function"
    },
    {
      "inputs": [
        {
          "internalType": "string",
          "name": "s",
          "type": "string"
        }
      ],
      "name": "fromHex",
      "outputs": [
        {
          "internalType": "bytes",
          "name": "",
          "type": "bytes"
        }
      ],
      "stateMutability": "pure",
      "type": "function"
    },
    {
      "inputs": [
        {
          "internalType": "uint8",
          "name": "c",
          "type": "uint8"
        }
      ],
      "name": "fromHexChar",
      "outputs": [
        {
          "internalType": "uint8",
          "name": "",
          "type": "uint8"
        }
      ],
      "stateMutability": "pure",
      "type": "function"
    },
    {
      "inputs": [],
      "name": "getBitRange",
      "outputs": [
        {
          "internalType": "uint256",
          "name": "",
          "type": "uint256"
        }
      ],
      "stateMutability": "pure",
      "type": "function"
    },
    {
      "inputs": [
        {
          "internalType": "uint256",
          "name": "_index",
          "type": "uint256"
        }
      ],
      "name": "getChallenge",
      "outputs": [
        {
          "internalType": "address",
          "name": "",
          "type": "address"
        },
        {
          "internalType": "string",
          "name": "",
          "type": "string"
        },
        {
          "internalType": "bytes32[]",
          "name": "",
          "type": "bytes32[]"
        },
        {
          "internalType": "string[]",
          "name": "",
          "type": "string[]"
        },
        {
          "internalType": "bool",
          "name": "",
          "type": "bool"
        }
      ],
      "stateMutability": "view",
      "type": "function"
    },
    {
      "inputs": [],
      "name": "getStartBit",
      "outputs": [
        {
          "internalType": "uint256",
          "name": "",
          "type": "uint256"
        }
      ],
      "stateMutability": "pure",
      "type": "function"
    },
    {
      "inputs": [
        {
          "internalType": "uint256",
          "name": "_challengeIndex",
          "type": "uint256"
        },
        {
          "internalType": "string[]",
          "name": "_subSolutions",
          "type": "string[]"
        }
      ],
      "name": "solveChallenge",
      "outputs": [],
      "stateMutability": "nonpayable",
      "type": "function"
    },
    {
      "inputs": [
        {
          "internalType": "address",
          "name": "_recipient",
          "type": "address"
        },
        {
          "internalType": "string",
          "name": "_challengeText",
          "type": "string"
        },
        {
          "internalType": "bytes32[]",
          "name": "groupHash",
          "type": "bytes32[]"
        }
      ],
      "name": "storeGroupHash",
      "outputs": [],
      "stateMutability": "nonpayable",
      "type": "function"
    },
    {
      "inputs": [
        {
          "internalType": "uint256",
          "name": "_challengeIndex",
          "type": "uint256"
        }
      ],
      "name": "verifyChallenge",
      "outputs": [],
      "stateMutability": "nonpayable",
      "type": "function"
    }
  ],
  "bytecode": "0x608060405234801561001057600080fd5b506125be806100206000396000f3fe608060405234801561001057600080fd5b50600436106100cf5760003560e01c80635c53d4e41161008c5780638f1d3776116100665780638f1d3776146102165780638fb60ad6146102495780639238f9e314610267578063fc4306bb14610283576100cf565b80635c53d4e4146101ac5780635e9b786b146101c85780638e7e34d7146101e6576100cf565b80630aec0463146100d45780630dc715c4146100f25780631bdd4b741461010e5780632a94aac8146101425780632ecb20d3146101605780633e2882bf14610190575b600080fd5b6100dc6102a1565b6040516100e99190611475565b60405180910390f35b61010c60048036038101906101079190611746565b6102a6565b005b610128600480360381019061012391906117fd565b6104de565b604051610139959493929190611aa6565b60405180910390f35b61014a61075a565b6040516101579190611475565b60405180910390f35b61017a60048036038101906101759190611b47565b61075f565b6040516101879190611b83565b60405180910390f35b6101aa60048036038101906101a591906117fd565b610b04565b005b6101c660048036038101906101c19190611c7f565b610d21565b005b6101d0610fb4565b6040516101dd9190611475565b60405180910390f35b61020060048036038101906101fb9190611cdb565b610fbd565b60405161020d9190611d79565b60405180910390f35b610230600480360381019061022b91906117fd565b611141565b6040516102409493929190611d9b565b60405180910390f35b610251611236565b60405161025e9190611475565b60405180910390f35b610281600480360381019061027c9190611746565b61123b565b005b61028b611282565b6040516102989190611475565b60405180910390f35b602381565b60238151146102ea576040517f08c379a00000000000000000000000000000000000000000000000000000000081526004016102e190611e59565b60405180910390fd5b6000602367ffffffffffffffff8111156103075761030661151d565b5b60405190808252806020026020018201604052801561033a57816020015b60608152602001906001900390816103255790505b50905060006040518060c001604052808673ffffffffffffffffffffffffffffffffffffffff16815260200185815260200184815260200183815260200143815260200160001515815250908060018154018082558091505060019003906000526020600020906006020160009091909190915060008201518160000160006101000a81548173ffffffffffffffffffffffffffffffffffffffff021916908373ffffffffffffffffffffffffffffffffffffffff160217905550602082015181600101908051906020019061041192919061128b565b50604082015181600201908051906020019061042e929190611311565b50606082015181600301908051906020019061044b92919061135e565b506080820151816004015560a08201518160050160006101000a81548160ff02191690831515021790555050508373ffffffffffffffffffffffffffffffffffffffff1660016000805490506104a19190611ea8565b7faf3686120498284b7a85c7a631a89f736892ddb32e262a896a8cc472c1bb005e856040516104d09190611edc565b60405180910390a350505050565b6000606080606060008080549050861061052d576040517f08c379a000000000000000000000000000000000000000000000000000000000815260040161052490611f4a565b60405180910390fd5b600080878154811061054257610541611f6a565b5b906000526020600020906006020190508060000160009054906101000a900473ffffffffffffffffffffffffffffffffffffffff168160010182600201836003018460050160009054906101000a900460ff168380546105a190611fc8565b80601f01602080910402602001604051908101604052809291908181526020018280546105cd90611fc8565b801561061a5780601f106105ef5761010080835404028352916020019161061a565b820191906000526020600020905b8154815290600101906020018083116105fd57829003601f168201915b505050505093508280548060200260200160405190810160405280929190818152602001828054801561066c57602002820191906000526020600020905b815481526020019060010190808311610658575b5050505050925081805480602002602001604051908101604052809291908181526020016000905b828210156107405783829060005260206000200180546106b390611fc8565b80601f01602080910402602001604051908101604052809291908181526020018280546106df90611fc8565b801561072c5780601f106107015761010080835404028352916020019161072c565b820191906000526020600020905b81548152906001019060200180831161070f57829003601f168201915b505050505081526020019060010190610694565b505050509150955095509550955095505091939590929450565b602881565b60007f30000000000000000000000000000000000000000000000000000000000000007effffffffffffffffffffffffffffffffffffffffffffffffffffffffffffff19168260f81b7effffffffffffffffffffffffffffffffffffffffffffffffffffffffffffff19161015801561083f57507f39000000000000000000000000000000000000000000000000000000000000007effffffffffffffffffffffffffffffffffffffffffffffffffffffffffffff19168260f81b7effffffffffffffffffffffffffffffffffffffffffffffffffffffffffffff191611155b1561087a577f300000000000000000000000000000000000000000000000000000000000000060f81c826108739190611ffa565b9050610aff565b7f61000000000000000000000000000000000000000000000000000000000000007effffffffffffffffffffffffffffffffffffffffffffffffffffffffffffff19168260f81b7effffffffffffffffffffffffffffffffffffffffffffffffffffffffffffff19161015801561095857507f66000000000000000000000000000000000000000000000000000000000000007effffffffffffffffffffffffffffffffffffffffffffffffffffffffffffff19168260f81b7effffffffffffffffffffffffffffffffffffffffffffffffffffffffffffff191611155b1561099f577f610000000000000000000000000000000000000000000000000000000000000060f81c82600a61098e919061202e565b6109989190611ffa565b9050610aff565b7f41000000000000000000000000000000000000000000000000000000000000007effffffffffffffffffffffffffffffffffffffffffffffffffffffffffffff19168260f81b7effffffffffffffffffffffffffffffffffffffffffffffffffffffffffffff191610158015610a7d57507f46000000000000000000000000000000000000000000000000000000000000007effffffffffffffffffffffffffffffffffffffffffffffffffffffffffffff19168260f81b7effffffffffffffffffffffffffffffffffffffffffffffffffffffffffffff191611155b15610ac4577f410000000000000000000000000000000000000000000000000000000000000060f81c82600a610ab3919061202e565b610abd9190611ffa565b9050610aff565b6040517f08c379a0000000000000000000000000000000000000000000000000000000008152600401610af6906120b1565b60405180910390fd5b919050565b6000805490508110610b4b576040517f08c379a0000000000000000000000000000000000000000000000000000000008152600401610b4290611f4a565b60405180910390fd5b6000808281548110610b6057610b5f611f6a565b5b9060005260206000209060060201905060008060019050600091505b6023821015610cc757826002018281548110610b9b57610b9a611f6a565b5b90600052602060002001546002610c59856003018581548110610bc157610bc0611f6a565b5b906000526020600020018054610bd690611fc8565b80601f0160208091040260200160405190810160405280929190818152602001828054610c0290611fc8565b8015610c4f5780601f10610c2457610100808354040283529160200191610c4f565b820191906000526020600020905b815481529060010190602001808311610c3257829003601f168201915b5050505050610fbd565b604051610c66919061210d565b602060405180830381855afa158015610c83573d6000803e3d6000fd5b5050506040513d601f19601f82011682018060405250810190610ca69190612139565b14610cb45760009050610cc7565b8180610cbf90612166565b925050610b7c565b808360050160006101000a81548160ff021916908315150217905550837fed287b85322607d368e29155e2b399aace27679511a17db14b426f852847688383604051610d139190611475565b60405180910390a250505050565b6000805490508210610d68576040517f08c379a0000000000000000000000000000000000000000000000000000000008152600401610d5f90611f4a565b60405180910390fd5b602381511115610dad576040517f08c379a0000000000000000000000000000000000000000000000000000000008152600401610da4906121fb565b60405180910390fd5b6000808381548110610dc257610dc1611f6a565b5b906000526020600020906006020190508060050160009054906101000a900460ff1615610e24576040517f08c379a0000000000000000000000000000000000000000000000000000000008152600401610e1b90612267565b60405180910390fd5b8060000160009054906101000a900473ffffffffffffffffffffffffffffffffffffffff1673ffffffffffffffffffffffffffffffffffffffff163373ffffffffffffffffffffffffffffffffffffffff1614610eb6576040517f08c379a0000000000000000000000000000000000000000000000000000000008152600401610ead906122f9565b60405180910390fd5b60288160040154610ec79190612319565b431115610f09576040517f08c379a0000000000000000000000000000000000000000000000000000000008152600401610f00906123e1565b60405180910390fd5b60005b8251811015610fae57828181518110610f2857610f27611f6a565b5b6020026020010151826003018281548110610f4657610f45611f6a565b5b906000526020600020019080519060200190610f6392919061128b565b5080847f300b48d50c243521a20b41f4990ca7faa4991349bf9596908df396d2a3ed16cd604051610f9390612427565b60405180910390a38080610fa690612166565b915050610f0c565b50505050565b6000601e905090565b60606000829050600060028251610fd4919061246f565b14610fde57600080fd5b600060028251610fee91906124a0565b67ffffffffffffffff8111156110075761100661151d565b5b6040519080825280601f01601f1916602001820160405280156110395781602001600182028036833780820191505090505b50905060005b6002835161104d91906124a0565b8110156111365761109583600183600261106791906124d1565b6110719190612319565b8151811061108257611081611f6a565b5b602001015160f81c60f81b60f81c61075f565b60106110cc858460026110a891906124d1565b815181106110b9576110b8611f6a565b5b602001015160f81c60f81b60f81c61075f565b6110d6919061252b565b6110e0919061202e565b60f81b8282815181106110f6576110f5611f6a565b5b60200101907effffffffffffffffffffffffffffffffffffffffffffffffffffffffffffff1916908160001a9053508061112f90612166565b905061103f565b508092505050919050565b6000818154811061115157600080fd5b90600052602060002090600602016000915090508060000160009054906101000a900473ffffffffffffffffffffffffffffffffffffffff169080600101805461119a90611fc8565b80601f01602080910402602001604051908101604052809291908181526020018280546111c690611fc8565b80156112135780601f106111e857610100808354040283529160200191611213565b820191906000526020600020905b8154815290600101906020018083116111f657829003601f168201915b5050505050908060040154908060050160009054906101000a900460ff16905084565b601e81565b7f4a023feb8db5ef6b8c53aee1c8d5d869232b5118d04b179752c7cbe1e18a0d508160405161126a9190612566565b60405180910390a161127d8383836102a6565b505050565b60006023905090565b82805461129790611fc8565b90600052602060002090601f0160209004810192826112b95760008555611300565b82601f106112d257805160ff1916838001178555611300565b82800160010185558215611300579182015b828111156112ff5782518255916020019190600101906112e4565b5b50905061130d91906113be565b5090565b82805482825590600052602060002090810192821561134d579160200282015b8281111561134c578251825591602001919060010190611331565b5b50905061135a91906113db565b5090565b8280548282559060005260206000209081019282156113ad579160200282015b828111156113ac57825182908051906020019061139c92919061128b565b509160200191906001019061137e565b5b5090506113ba91906113f8565b5090565b5b808211156113d75760008160009055506001016113bf565b5090565b5b808211156113f45760008160009055506001016113dc565b5090565b5b80821115611418576000818161140f919061141c565b506001016113f9565b5090565b50805461142890611fc8565b6000825580601f1061143a5750611459565b601f01602090049060005260206000209081019061145891906113be565b5b50565b6000819050919050565b61146f8161145c565b82525050565b600060208201905061148a6000830184611466565b92915050565b6000604051905090565b600080fd5b600080fd5b600073ffffffffffffffffffffffffffffffffffffffff82169050919050565b60006114cf826114a4565b9050919050565b6114df816114c4565b81146114ea57600080fd5b50565b6000813590506114fc816114d6565b92915050565b600080fd5b600080fd5b6000601f19601f8301169050919050565b7f4e487b7100000000000000000000000000000000000000000000000000000000600052604160045260246000fd5b6115558261150c565b810181811067ffffffffffffffff821117156115745761157361151d565b5b80604052505050565b6000611587611490565b9050611593828261154c565b919050565b600067ffffffffffffffff8211156115b3576115b261151d565b5b6115bc8261150c565b9050602081019050919050565b82818337600083830152505050565b60006115eb6115e684611598565b61157d565b90508281526020810184848401111561160757611606611507565b5b6116128482856115c9565b509392505050565b600082601f83011261162f5761162e611502565b5b813561163f8482602086016115d8565b91505092915050565b600067ffffffffffffffff8211156116635761166261151d565b5b602082029050602081019050919050565b600080fd5b6000819050919050565b61168c81611679565b811461169757600080fd5b50565b6000813590506116a981611683565b92915050565b60006116c26116bd84611648565b61157d565b905080838252602082019050602084028301858111156116e5576116e4611674565b5b835b8181101561170e57806116fa888261169a565b8452602084019350506020810190506116e7565b5050509392505050565b600082601f83011261172d5761172c611502565b5b813561173d8482602086016116af565b91505092915050565b60008060006060848603121561175f5761175e61149a565b5b600061176d868287016114ed565b935050602084013567ffffffffffffffff81111561178e5761178d61149f565b5b61179a8682870161161a565b925050604084013567ffffffffffffffff8111156117bb576117ba61149f565b5b6117c786828701611718565b9150509250925092565b6117da8161145c565b81146117e557600080fd5b50565b6000813590506117f7816117d1565b92915050565b6000602082840312156118135761181261149a565b5b6000611821848285016117e8565b91505092915050565b611833816114c4565b82525050565b600081519050919050565b600082825260208201905092915050565b60005b83811015611873578082015181840152602081019050611858565b83811115611882576000848401525b50505050565b600061189382611839565b61189d8185611844565b93506118ad818560208601611855565b6118b68161150c565b840191505092915050565b600081519050919050565b600082825260208201905092915050565b6000819050602082019050919050565b6118f681611679565b82525050565b600061190883836118ed565b60208301905092915050565b6000602082019050919050565b600061192c826118c1565b61193681856118cc565b9350611941836118dd565b8060005b8381101561197257815161195988826118fc565b975061196483611914565b925050600181019050611945565b5085935050505092915050565b600081519050919050565b600082825260208201905092915050565b6000819050602082019050919050565b600082825260208201905092915050565b60006119c782611839565b6119d181856119ab565b93506119e1818560208601611855565b6119ea8161150c565b840191505092915050565b6000611a0183836119bc565b905092915050565b6000602082019050919050565b6000611a218261197f565b611a2b818561198a565b935083602082028501611a3d8561199b565b8060005b85811015611a795784840389528151611a5a85826119f5565b9450611a6583611a09565b925060208a01995050600181019050611a41565b50829750879550505050505092915050565b60008115159050919050565b611aa081611a8b565b82525050565b600060a082019050611abb600083018861182a565b8181036020830152611acd8187611888565b90508181036040830152611ae18186611921565b90508181036060830152611af58185611a16565b9050611b046080830184611a97565b9695505050505050565b600060ff82169050919050565b611b2481611b0e565b8114611b2f57600080fd5b50565b600081359050611b4181611b1b565b92915050565b600060208284031215611b5d57611b5c61149a565b5b6000611b6b84828501611b32565b91505092915050565b611b7d81611b0e565b82525050565b6000602082019050611b986000830184611b74565b92915050565b600067ffffffffffffffff821115611bb957611bb861151d565b5b602082029050602081019050919050565b6000611bdd611bd884611b9e565b61157d565b90508083825260208201905060208402830185811115611c0057611bff611674565b5b835b81811015611c4757803567ffffffffffffffff811115611c2557611c24611502565b5b808601611c32898261161a565b85526020850194505050602081019050611c02565b5050509392505050565b600082601f830112611c6657611c65611502565b5b8135611c76848260208601611bca565b91505092915050565b60008060408385031215611c9657611c9561149a565b5b6000611ca4858286016117e8565b925050602083013567ffffffffffffffff811115611cc557611cc461149f565b5b611cd185828601611c51565b9150509250929050565b600060208284031215611cf157611cf061149a565b5b600082013567ffffffffffffffff811115611d0f57611d0e61149f565b5b611d1b8482850161161a565b91505092915050565b600081519050919050565b600082825260208201905092915050565b6000611d4b82611d24565b611d558185611d2f565b9350611d65818560208601611855565b611d6e8161150c565b840191505092915050565b60006020820190508181036000830152611d938184611d40565b905092915050565b6000608082019050611db0600083018761182a565b8181036020830152611dc28186611888565b9050611dd16040830185611466565b611dde6060830184611a97565b95945050505050565b7f5468657265206d7573742062652065786163746c79203335207375622d63686160008201527f6c6c656e6765732e000000000000000000000000000000000000000000000000602082015250565b6000611e43602883611844565b9150611e4e82611de7565b604082019050919050565b60006020820190508181036000830152611e7281611e36565b9050919050565b7f4e487b7100000000000000000000000000000000000000000000000000000000600052601160045260246000fd5b6000611eb38261145c565b9150611ebe8361145c565b925082821015611ed157611ed0611e79565b5b828203905092915050565b60006020820190508181036000830152611ef68184611888565b905092915050565b7f4368616c6c656e676520646f6573206e6f742065786973742e00000000000000600082015250565b6000611f34601983611844565b9150611f3f82611efe565b602082019050919050565b60006020820190508181036000830152611f6381611f27565b9050919050565b7f4e487b7100000000000000000000000000000000000000000000000000000000600052603260045260246000fd5b7f4e487b7100000000000000000000000000000000000000000000000000000000600052602260045260246000fd5b60006002820490506001821680611fe057607f821691505b60208210811415611ff457611ff3611f99565b5b50919050565b600061200582611b0e565b915061201083611b0e565b92508282101561202357612022611e79565b5b828203905092915050565b600061203982611b0e565b915061204483611b0e565b92508260ff0382111561205a57612059611e79565b5b828201905092915050565b7f6661696c00000000000000000000000000000000000000000000000000000000600082015250565b600061209b600483611844565b91506120a682612065565b602082019050919050565b600060208201905081810360008301526120ca8161208e565b9050919050565b600081905092915050565b60006120e782611d24565b6120f181856120d1565b9350612101818560208601611855565b80840191505092915050565b600061211982846120dc565b915081905092915050565b60008151905061213381611683565b92915050565b60006020828403121561214f5761214e61149a565b5b600061215d84828501612124565b91505092915050565b60006121718261145c565b91507fffffffffffffffffffffffffffffffffffffffffffffffffffffffffffffffff8214156121a4576121a3611e79565b5b600182019050919050565b7f546f6f206d616e7920736f6c7574696f6e732e00000000000000000000000000600082015250565b60006121e5601383611844565b91506121f0826121af565b602082019050919050565b60006020820190508181036000830152612214816121d8565b9050919050565b7f4368616c6c656e676520616c726561647920736f6c7665642e00000000000000600082015250565b6000612251601983611844565b915061225c8261221b565b602082019050919050565b6000602082019050818103600083015261228081612244565b9050919050565b7f4f6e6c792074686520726563697069656e742063616e20736f6c76652074686960008201527f73206368616c6c656e67652e0000000000000000000000000000000000000000602082015250565b60006122e3602c83611844565b91506122ee82612287565b604082019050919050565b60006020820190508181036000830152612312816122d6565b9050919050565b60006123248261145c565b915061232f8361145c565b9250827fffffffffffffffffffffffffffffffffffffffffffffffffffffffffffffffff0382111561236457612363611e79565b5b828201905092915050565b7f536f6c7574696f6e732063616e206f6e6c79206265207265706f72746564206260008201527f65666f726520626c6f636b2074696d65206c696d697400000000000000000000602082015250565b60006123cb603683611844565b91506123d68261236f565b604082019050919050565b600060208201905081810360008301526123fa816123be565b9050919050565b7f3100000000000000000000000000000000000000000000000000000000000000815250565b600060208201905061243b60008301612401565b919050565b7f4e487b7100000000000000000000000000000000000000000000000000000000600052601260045260246000fd5b600061247a8261145c565b91506124858361145c565b92508261249557612494612440565b5b828206905092915050565b60006124ab8261145c565b91506124b68361145c565b9250826124c6576124c5612440565b5b828204905092915050565b60006124dc8261145c565b91506124e78361145c565b9250817fffffffffffffffffffffffffffffffffffffffffffffffffffffffffffffffff04831182151516156125205761251f611e79565b5b828202905092915050565b600061253682611b0e565b915061254183611b0e565b92508160ff048311821515161561255b5761255a611e79565b5b828202905092915050565b600060208201905081810360008301526125808184611921565b90509291505056fea26469706673582212200479139a9dc245c0d8948223101bb0708a13a2cc179021998549c0508b0021c664736f6c63430008080033",
  "linkReferences": {},
  "deployedLinkReferences": {}
}