{
  "_format": "hh-sol-artifact-1",
  "contractName": "VRFV2PlusClient",
  "sourceName": "@chainlink/contracts/src/v0.8/vrf/dev/libraries/VRFV2PlusClient.sol",
  "abi": [
    {
      "inputs": [],
      "name": "EXTRA_ARGS_V1_TAG",
      "outputs": [
        {
          "internalType": "bytes4",
          "name": "",
          "type": "bytes4"
        }
      ],
      "stateMutability": "view",
      "type": "function"
    }
  ],
  "bytecode": "0x60fe610052600b82828239805160001a607314610045577f4e487b7100000000000000000000000000000000000000000000000000000000600052600060045260246000fd5b30600052607381538281f3fe730000000000000000000000000000000000000000301460806040526004361060335760003560e01c8063f7514ab4146038575b600080fd5b603e6052565b604051604991906083565b60405180910390f35b7f92fd13387c7fe7befbc38d303d6468778fb9731bc4583f17d92989c6fcfdeaaa81565b607d81609c565b82525050565b6000602082019050609660008301846076565b92915050565b60007fffffffff000000000000000000000000000000000000000000000000000000008216905091905056fea264697066735822122002ec6048534a3f047f8039d1773de1282203c1b9aa0964d703e387f797bcd58764736f6c63430008070033",
  "linkReferences": {},
  "deployedLinkReferences": {}
}