{
  "_format": "hh-sol-artifact-1",
  "contractName": "GroupHashStorage",
  "sourceName": "contracts/GroupHashStorage.sol",
  "abi": [
    {
      "inputs": [],
      "name": "groupHash",
      "outputs": [
        {
          "internalType": "uint256",
          "name": "",
          "type": "uint256"
        }
      ],
      "stateMutability": "view",
      "type": "function"
    },
    {
      "inputs": [
        {
          "internalType": "uint256",
          "name": "_groupHash",
          "type": "uint256"
        }
      ],
      "name": "storeGroupHash",
      "outputs": [],
      "stateMutability": "nonpayable",
      "type": "function"
    }
  ],
  "bytecode": "0x608060405234801561001057600080fd5b50610133806100206000396000f3fe6080604052348015600f57600080fd5b506004361060325760003560e01c80636469e8bf146037578063f617e81d14604f575b600080fd5b604d600480360381019060499190608c565b6069565b005b60556073565b6040516060919060c1565b60405180910390f35b8060008190555050565b60005481565b60008135905060868160e9565b92915050565b600060208284031215609f57609e60e4565b5b600060ab848285016079565b91505092915050565b60bb8160da565b82525050565b600060208201905060d4600083018460b4565b92915050565b6000819050919050565b600080fd5b60f08160da565b811460fa57600080fd5b5056fea264697066735822122076cc8919187a8234f74504e7f97b803d2599d870fce810294f1ac9f4d26d4f1e64736f6c63430008070033",
  "linkReferences": {},
  "deployedLinkReferences": {}
}