{
  "_format": "hh-sol-artifact-1",
  "contractName": "GroupAssignment",
  "sourceName": "contracts/GroupAssignment.sol",
  "abi": [
    {
      "inputs": [
        {
          "internalType": "uint64",
          "name": "subscriptionId",
          "type": "uint64"
        }
      ],
      "stateMutability": "nonpayable",
      "type": "constructor"
    },
    {
      "inputs": [
        {
          "internalType": "address",
          "name": "have",
          "type": "address"
        },
        {
          "internalType": "address",
          "name": "want",
          "type": "address"
        }
      ],
      "name": "OnlyCoordinatorCanFulfill",
      "type": "error"
    },
    {
      "anonymous": false,
      "inputs": [
        {
          "indexed": true,
          "internalType": "address",
          "name": "from",
          "type": "address"
        },
        {
          "indexed": true,
          "internalType": "address",
          "name": "to",
          "type": "address"
        }
      ],
      "name": "OwnershipTransferRequested",
      "type": "event"
    },
    {
      "anonymous": false,
      "inputs": [
        {
          "indexed": true,
          "internalType": "address",
          "name": "from",
          "type": "address"
        },
        {
          "indexed": true,
          "internalType": "address",
          "name": "to",
          "type": "address"
        }
      ],
      "name": "OwnershipTransferred",
      "type": "event"
    },
    {
      "anonymous": false,
      "inputs": [
        {
          "indexed": false,
          "internalType": "uint256",
          "name": "requestId",
          "type": "uint256"
        },
        {
          "indexed": false,
          "internalType": "address[]",
          "name": "usersAssigned",
          "type": "address[]"
        }
      ],
      "name": "UsersAssigned",
      "type": "event"
    },
    {
      "inputs": [],
      "name": "GROUP_SIZE",
      "outputs": [
        {
          "internalType": "uint256",
          "name": "",
          "type": "uint256"
        }
      ],
      "stateMutability": "view",
      "type": "function"
    },
    {
      "inputs": [],
      "name": "acceptOwnership",
      "outputs": [],
      "stateMutability": "nonpayable",
      "type": "function"
    },
    {
      "inputs": [
        {
          "internalType": "address",
          "name": "_user",
          "type": "address"
        }
      ],
      "name": "addUser",
      "outputs": [],
      "stateMutability": "nonpayable",
      "type": "function"
    },
    {
      "inputs": [
        {
          "internalType": "uint256",
          "name": "requestId",
          "type": "uint256"
        }
      ],
      "name": "getAssignedUsers",
      "outputs": [
        {
          "internalType": "address[]",
          "name": "",
          "type": "address[]"
        }
      ],
      "stateMutability": "view",
      "type": "function"
    },
    {
      "inputs": [
        {
          "internalType": "uint256",
          "name": "",
          "type": "uint256"
        },
        {
          "internalType": "uint256",
          "name": "",
          "type": "uint256"
        }
      ],
      "name": "groups",
      "outputs": [
        {
          "internalType": "address",
          "name": "",
          "type": "address"
        }
      ],
      "stateMutability": "view",
      "type": "function"
    },
    {
      "inputs": [],
      "name": "lastRequestId",
      "outputs": [
        {
          "internalType": "uint256",
          "name": "",
          "type": "uint256"
        }
      ],
      "stateMutability": "view",
      "type": "function"
    },
    {
      "inputs": [],
      "name": "owner",
      "outputs": [
        {
          "internalType": "address",
          "name": "",
          "type": "address"
        }
      ],
      "stateMutability": "view",
      "type": "function"
    },
    {
      "inputs": [
        {
          "internalType": "uint256",
          "name": "requestId",
          "type": "uint256"
        },
        {
          "internalType": "uint256[]",
          "name": "randomWords",
          "type": "uint256[]"
        }
      ],
      "name": "rawFulfillRandomWords",
      "outputs": [],
      "stateMutability": "nonpayable",
      "type": "function"
    },
    {
      "inputs": [],
      "name": "requestRandomUsers",
      "outputs": [],
      "stateMutability": "nonpayable",
      "type": "function"
    },
    {
      "inputs": [
        {
          "internalType": "address",
          "name": "to",
          "type": "address"
        }
      ],
      "name": "transferOwnership",
      "outputs": [],
      "stateMutability": "nonpayable",
      "type": "function"
    },
    {
      "inputs": [
        {
          "internalType": "uint256",
          "name": "",
          "type": "uint256"
        }
      ],
      "name": "users",
      "outputs": [
        {
          "internalType": "address",
          "name": "",
          "type": "address"
        }
      ],
      "stateMutability": "view",
      "type": "function"
    }
  ],
  "bytecode": "0x60a06040523480156200001157600080fd5b50604051620018f7380380620018f783398181016040528101906200003791906200038a565b33806000738103b0a8a00be2ddc778e6e7eaa21791cd3646258073ffffffffffffffffffffffffffffffffffffffff1660808173ffffffffffffffffffffffffffffffffffffffff1660601b8152505050600073ffffffffffffffffffffffffffffffffffffffff168273ffffffffffffffffffffffffffffffffffffffff161415620000fb576040517f08c379a0000000000000000000000000000000000000000000000000000000008152600401620000f2906200040a565b60405180910390fd5b816000806101000a81548173ffffffffffffffffffffffffffffffffffffffff021916908373ffffffffffffffffffffffffffffffffffffffff160217905550600073ffffffffffffffffffffffffffffffffffffffff168173ffffffffffffffffffffffffffffffffffffffff1614620001825762000181816200024360201b60201c565b5b505050738103b0a8a00be2ddc778e6e7eaa21791cd364625600260006101000a81548173ffffffffffffffffffffffffffffffffffffffff021916908373ffffffffffffffffffffffffffffffffffffffff1602179055507f474e34a077df58807dbe9c96d3c009b23b3c6d0cce433e59bbf5b34f823bc56c60001b6003819055506703782dace9d9000060048190555080600560006101000a81548167ffffffffffffffff021916908367ffffffffffffffff16021790555050620004e4565b3373ffffffffffffffffffffffffffffffffffffffff168173ffffffffffffffffffffffffffffffffffffffff161415620002b5576040517f08c379a0000000000000000000000000000000000000000000000000000000008152600401620002ac906200042c565b60405180910390fd5b80600160006101000a81548173ffffffffffffffffffffffffffffffffffffffff021916908373ffffffffffffffffffffffffffffffffffffffff1602179055508073ffffffffffffffffffffffffffffffffffffffff1660008054906101000a900473ffffffffffffffffffffffffffffffffffffffff1673ffffffffffffffffffffffffffffffffffffffff167fed8889f560326eb138920d842192f0eb3dd22b4f139c87a2c57538e05bae127860405160405180910390a350565b6000815190506200038481620004ca565b92915050565b600060208284031215620003a357620003a262000473565b5b6000620003b38482850162000373565b91505092915050565b6000620003cb6018836200044e565b9150620003d88262000478565b602082019050919050565b6000620003f26017836200044e565b9150620003ff82620004a1565b602082019050919050565b600060208201905081810360008301526200042581620003bc565b9050919050565b600060208201905081810360008301526200044781620003e3565b9050919050565b600082825260208201905092915050565b600067ffffffffffffffff82169050919050565b600080fd5b7f43616e6e6f7420736574206f776e657220746f207a65726f0000000000000000600082015250565b7f43616e6e6f74207472616e7366657220746f2073656c66000000000000000000600082015250565b620004d5816200045f565b8114620004e157600080fd5b50565b60805160601c6113ed6200050a600039600081816102a301526102f701526113ed6000f3fe608060405234801561001057600080fd5b50600436106100a95760003560e01c80634ae855cf116100715780634ae855cf1461015057806379ba5097146101805780638da5cb5b1461018a578063f2fde38b146101a8578063f901c9e4146101c4578063fc2a88c3146101e2576100a9565b80631f93a5b5146100ae5780631fe543e3146100de57806329864f12146100fa578063365b98b214610104578063421b2d8b14610134575b600080fd5b6100c860048036038101906100c39190610c32565b610200565b6040516100d59190610ec3565b60405180910390f35b6100f860048036038101906100f39190610c8c565b6102a1565b005b610102610361565b005b61011e60048036038101906101199190610c32565b610449565b60405161012b9190610e7f565b60405180910390f35b61014e60048036038101906101499190610c05565b610488565b005b61016a60048036038101906101659190610ce8565b6104ee565b6040516101779190610e7f565b60405180910390f35b61018861053c565b005b6101926106d1565b60405161019f9190610e7f565b60405180910390f35b6101c260048036038101906101bd9190610c05565b6106fa565b005b6101cc61070e565b6040516101d99190610f98565b60405180910390f35b6101ea610713565b6040516101f79190610f98565b60405180910390f35b60606008600083815260200190815260200160002080548060200260200160405190810160405280929190818152602001828054801561029557602002820191906000526020600020905b8160009054906101000a900473ffffffffffffffffffffffffffffffffffffffff1673ffffffffffffffffffffffffffffffffffffffff168152602001906001019080831161024b575b50505050509050919050565b7f000000000000000000000000000000000000000000000000000000000000000073ffffffffffffffffffffffffffffffffffffffff163373ffffffffffffffffffffffffffffffffffffffff161461035357337f00000000000000000000000000000000000000000000000000000000000000006040517f1cf993f400000000000000000000000000000000000000000000000000000000815260040161034a929190610e9a565b60405180910390fd5b61035d8282610719565b5050565b6103696108c4565b6000600260009054906101000a900473ffffffffffffffffffffffffffffffffffffffff1673ffffffffffffffffffffffffffffffffffffffff16635d3b1d30600354600560009054906101000a900467ffffffffffffffff16600362030d4060016040518663ffffffff1660e01b81526004016103eb959493929190610ee5565b602060405180830381600087803b15801561040557600080fd5b505af1158015610419573d6000803e3d6000fd5b505050506040513d601f19601f8201168201806040525081019061043d9190610c5f565b90508060068190555050565b6007818154811061045957600080fd5b906000526020600020016000915054906101000a900473ffffffffffffffffffffffffffffffffffffffff1681565b6007819080600181540180825580915050600190039060005260206000200160009091909190916101000a81548173ffffffffffffffffffffffffffffffffffffffff021916908373ffffffffffffffffffffffffffffffffffffffff16021790555050565b6008602052816000526040600020818154811061050a57600080fd5b906000526020600020016000915091509054906101000a900473ffffffffffffffffffffffffffffffffffffffff1681565b600160009054906101000a900473ffffffffffffffffffffffffffffffffffffffff1673ffffffffffffffffffffffffffffffffffffffff163373ffffffffffffffffffffffffffffffffffffffff16146105cc576040517f08c379a00000000000000000000000000000000000000000000000000000000081526004016105c390610f38565b60405180910390fd5b60008060009054906101000a900473ffffffffffffffffffffffffffffffffffffffff169050336000806101000a81548173ffffffffffffffffffffffffffffffffffffffff021916908373ffffffffffffffffffffffffffffffffffffffff1602179055506000600160006101000a81548173ffffffffffffffffffffffffffffffffffffffff021916908373ffffffffffffffffffffffffffffffffffffffff1602179055503373ffffffffffffffffffffffffffffffffffffffff168173ffffffffffffffffffffffffffffffffffffffff167f8be0079c531659141344cd1fd0a4f28419497f9722a3daafe3b4186f6b6457e060405160405180910390a350565b60008060009054906101000a900473ffffffffffffffffffffffffffffffffffffffff16905090565b6107026108c4565b61070b81610954565b50565b600a81565b60065481565b6000600780549050826000815181106107355761073461128b565b5b602002602001015161074791906111fc565b90506000600a67ffffffffffffffff811115610766576107656112ba565b5b6040519080825280602002602001820160405280156107945781602001602082028036833780820191505090505b50905060005b600a81101561085c576007808054905082856107b6919061107e565b6107c091906111fc565b815481106107d1576107d061128b565b5b9060005260206000200160009054906101000a900473ffffffffffffffffffffffffffffffffffffffff1682828151811061080f5761080e61128b565b5b602002602001019073ffffffffffffffffffffffffffffffffffffffff16908173ffffffffffffffffffffffffffffffffffffffff16815250508080610854906111b3565b91505061079a565b5080600860008681526020019081526020016000209080519060200190610884929190610a81565b507ff630f3c111e1f0b46096447f69ae9c4cae4ae02858e959b1f5fb3acd4d5a4a1c84826040516108b6929190610fb3565b60405180910390a150505050565b60008054906101000a900473ffffffffffffffffffffffffffffffffffffffff1673ffffffffffffffffffffffffffffffffffffffff163373ffffffffffffffffffffffffffffffffffffffff1614610952576040517f08c379a000000000000000000000000000000000000000000000000000000000815260040161094990610f58565b60405180910390fd5b565b3373ffffffffffffffffffffffffffffffffffffffff168173ffffffffffffffffffffffffffffffffffffffff1614156109c3576040517f08c379a00000000000000000000000000000000000000000000000000000000081526004016109ba90610f78565b60405180910390fd5b80600160006101000a81548173ffffffffffffffffffffffffffffffffffffffff021916908373ffffffffffffffffffffffffffffffffffffffff1602179055508073ffffffffffffffffffffffffffffffffffffffff1660008054906101000a900473ffffffffffffffffffffffffffffffffffffffff1673ffffffffffffffffffffffffffffffffffffffff167fed8889f560326eb138920d842192f0eb3dd22b4f139c87a2c57538e05bae127860405160405180910390a350565b828054828255906000526020600020908101928215610afa579160200282015b82811115610af95782518260006101000a81548173ffffffffffffffffffffffffffffffffffffffff021916908373ffffffffffffffffffffffffffffffffffffffff16021790555091602001919060010190610aa1565b5b509050610b079190610b0b565b5090565b5b80821115610b24576000816000905550600101610b0c565b5090565b6000610b3b610b3684611008565b610fe3565b90508083825260208201905082856020860282011115610b5e57610b5d6112ee565b5b60005b85811015610b8e5781610b748882610bdb565b845260208401935060208301925050600181019050610b61565b5050509392505050565b600081359050610ba781611389565b92915050565b600082601f830112610bc257610bc16112e9565b5b8135610bd2848260208601610b28565b91505092915050565b600081359050610bea816113a0565b92915050565b600081519050610bff816113a0565b92915050565b600060208284031215610c1b57610c1a6112f8565b5b6000610c2984828501610b98565b91505092915050565b600060208284031215610c4857610c476112f8565b5b6000610c5684828501610bdb565b91505092915050565b600060208284031215610c7557610c746112f8565b5b6000610c8384828501610bf0565b91505092915050565b60008060408385031215610ca357610ca26112f8565b5b6000610cb185828601610bdb565b925050602083013567ffffffffffffffff811115610cd257610cd16112f3565b5b610cde85828601610bad565b9150509250929050565b60008060408385031215610cff57610cfe6112f8565b5b6000610d0d85828601610bdb565b9250506020610d1e85828601610bdb565b9150509250929050565b6000610d348383610d40565b60208301905092915050565b610d49816110d4565b82525050565b610d58816110d4565b82525050565b6000610d6982611044565b610d73818561105c565b9350610d7e83611034565b8060005b83811015610daf578151610d968882610d28565b9750610da18361104f565b925050600181019050610d82565b5085935050505092915050565b610dc5816110e6565b82525050565b610dd48161114c565b82525050565b610de38161115e565b82525050565b610df281611170565b82525050565b6000610e0560168361106d565b9150610e108261130e565b602082019050919050565b6000610e2860168361106d565b9150610e3382611337565b602082019050919050565b6000610e4b60178361106d565b9150610e5682611360565b602082019050919050565b610e6a8161111e565b82525050565b610e7981611138565b82525050565b6000602082019050610e946000830184610d4f565b92915050565b6000604082019050610eaf6000830185610d4f565b610ebc6020830184610d4f565b9392505050565b60006020820190508181036000830152610edd8184610d5e565b905092915050565b600060a082019050610efa6000830188610dbc565b610f076020830187610e70565b610f146040830186610de9565b610f216060830185610dda565b610f2e6080830184610dcb565b9695505050505050565b60006020820190508181036000830152610f5181610df8565b9050919050565b60006020820190508181036000830152610f7181610e1b565b9050919050565b60006020820190508181036000830152610f9181610e3e565b9050919050565b6000602082019050610fad6000830184610e61565b92915050565b6000604082019050610fc86000830185610e61565b8181036020830152610fda8184610d5e565b90509392505050565b6000610fed610ffe565b9050610ff98282611182565b919050565b6000604051905090565b600067ffffffffffffffff821115611023576110226112ba565b5b602082029050602081019050919050565b6000819050602082019050919050565b600081519050919050565b6000602082019050919050565b600082825260208201905092915050565b600082825260208201905092915050565b60006110898261111e565b91506110948361111e565b9250827fffffffffffffffffffffffffffffffffffffffffffffffffffffffffffffffff038211156110c9576110c861122d565b5b828201905092915050565b60006110df826110fe565b9050919050565b6000819050919050565b600061ffff82169050919050565b600073ffffffffffffffffffffffffffffffffffffffff82169050919050565b6000819050919050565b600063ffffffff82169050919050565b600067ffffffffffffffff82169050919050565b600061115782611128565b9050919050565b600061116982611128565b9050919050565b600061117b826110f0565b9050919050565b61118b826112fd565b810181811067ffffffffffffffff821117156111aa576111a96112ba565b5b80604052505050565b60006111be8261111e565b91507fffffffffffffffffffffffffffffffffffffffffffffffffffffffffffffffff8214156111f1576111f061122d565b5b600182019050919050565b60006112078261111e565b91506112128361111e565b9250826112225761122161125c565b5b828206905092915050565b7f4e487b7100000000000000000000000000000000000000000000000000000000600052601160045260246000fd5b7f4e487b7100000000000000000000000000000000000000000000000000000000600052601260045260246000fd5b7f4e487b7100000000000000000000000000000000000000000000000000000000600052603260045260246000fd5b7f4e487b7100000000000000000000000000000000000000000000000000000000600052604160045260246000fd5b600080fd5b600080fd5b600080fd5b600080fd5b6000601f19601f8301169050919050565b7f4d7573742062652070726f706f736564206f776e657200000000000000000000600082015250565b7f4f6e6c792063616c6c61626c65206279206f776e657200000000000000000000600082015250565b7f43616e6e6f74207472616e7366657220746f2073656c66000000000000000000600082015250565b611392816110d4565b811461139d57600080fd5b50565b6113a98161111e565b81146113b457600080fd5b5056fea2646970667358221220b90d9eb3fb34dfa61e52df62e4c5a499e7f05d3a616ba5e869ce2fa1c4333ccd64736f6c63430008070033",
  "linkReferences": {},
  "deployedLinkReferences": {}
}