{
  "_format": "hh-sol-artifact-1",
  "contractName": "SubscriptionConsumer",
  "sourceName": "contracts/GroupAssignment.sol",
  "abi": [
    {
      "inputs": [
        {
          "internalType": "uint256",
          "name": "subscriptionId",
          "type": "uint256"
        }
      ],
      "stateMutability": "nonpayable",
      "type": "constructor"
    },
    {
      "inputs": [
        {
          "internalType": "address",
          "name": "have",
          "type": "address"
        },
        {
          "internalType": "address",
          "name": "want",
          "type": "address"
        }
      ],
      "name": "OnlyCoordinatorCanFulfill",
      "type": "error"
    },
    {
      "inputs": [
        {
          "internalType": "address",
          "name": "have",
          "type": "address"
        },
        {
          "internalType": "address",
          "name": "owner",
          "type": "address"
        },
        {
          "internalType": "address",
          "name": "coordinator",
          "type": "address"
        }
      ],
      "name": "OnlyOwnerOrCoordinator",
      "type": "error"
    },
    {
      "inputs": [],
      "name": "ZeroAddress",
      "type": "error"
    },
    {
      "anonymous": false,
      "inputs": [
        {
          "indexed": false,
          "internalType": "address",
          "name": "vrfCoordinator",
          "type": "address"
        }
      ],
      "name": "CoordinatorSet",
      "type": "event"
    },
    {
      "anonymous": false,
      "inputs": [
        {
          "indexed": true,
          "internalType": "address",
          "name": "from",
          "type": "address"
        },
        {
          "indexed": true,
          "internalType": "address",
          "name": "to",
          "type": "address"
        }
      ],
      "name": "OwnershipTransferRequested",
      "type": "event"
    },
    {
      "anonymous": false,
      "inputs": [
        {
          "indexed": true,
          "internalType": "address",
          "name": "from",
          "type": "address"
        },
        {
          "indexed": true,
          "internalType": "address",
          "name": "to",
          "type": "address"
        }
      ],
      "name": "OwnershipTransferred",
      "type": "event"
    },
    {
      "anonymous": false,
      "inputs": [
        {
          "indexed": false,
          "internalType": "uint256",
          "name": "requestId",
          "type": "uint256"
        },
        {
          "indexed": false,
          "internalType": "uint256[]",
          "name": "randomWords",
          "type": "uint256[]"
        }
      ],
      "name": "RequestFulfilled",
      "type": "event"
    },
    {
      "anonymous": false,
      "inputs": [
        {
          "indexed": false,
          "internalType": "uint256",
          "name": "requestId",
          "type": "uint256"
        },
        {
          "indexed": false,
          "internalType": "uint32",
          "name": "numWords",
          "type": "uint32"
        }
      ],
      "name": "RequestSent",
      "type": "event"
    },
    {
      "inputs": [],
      "name": "acceptOwnership",
      "outputs": [],
      "stateMutability": "nonpayable",
      "type": "function"
    },
    {
      "inputs": [],
      "name": "callbackGasLimit",
      "outputs": [
        {
          "internalType": "uint32",
          "name": "",
          "type": "uint32"
        }
      ],
      "stateMutability": "view",
      "type": "function"
    },
    {
      "inputs": [
        {
          "internalType": "uint256",
          "name": "_requestId",
          "type": "uint256"
        }
      ],
      "name": "getRequestStatus",
      "outputs": [
        {
          "internalType": "bool",
          "name": "fulfilled",
          "type": "bool"
        },
        {
          "internalType": "uint256[]",
          "name": "randomWords",
          "type": "uint256[]"
        }
      ],
      "stateMutability": "view",
      "type": "function"
    },
    {
      "inputs": [],
      "name": "keyHash",
      "outputs": [
        {
          "internalType": "bytes32",
          "name": "",
          "type": "bytes32"
        }
      ],
      "stateMutability": "view",
      "type": "function"
    },
    {
      "inputs": [],
      "name": "lastRequestId",
      "outputs": [
        {
          "internalType": "uint256",
          "name": "",
          "type": "uint256"
        }
      ],
      "stateMutability": "view",
      "type": "function"
    },
    {
      "inputs": [],
      "name": "numWords",
      "outputs": [
        {
          "internalType": "uint32",
          "name": "",
          "type": "uint32"
        }
      ],
      "stateMutability": "view",
      "type": "function"
    },
    {
      "inputs": [],
      "name": "owner",
      "outputs": [
        {
          "internalType": "address",
          "name": "",
          "type": "address"
        }
      ],
      "stateMutability": "view",
      "type": "function"
    },
    {
      "inputs": [
        {
          "internalType": "uint256",
          "name": "requestId",
          "type": "uint256"
        },
        {
          "internalType": "uint256[]",
          "name": "randomWords",
          "type": "uint256[]"
        }
      ],
      "name": "rawFulfillRandomWords",
      "outputs": [],
      "stateMutability": "nonpayable",
      "type": "function"
    },
    {
      "inputs": [],
      "name": "requestConfirmations",
      "outputs": [
        {
          "internalType": "uint16",
          "name": "",
          "type": "uint16"
        }
      ],
      "stateMutability": "view",
      "type": "function"
    },
    {
      "inputs": [
        {
          "internalType": "uint256",
          "name": "",
          "type": "uint256"
        }
      ],
      "name": "requestIds",
      "outputs": [
        {
          "internalType": "uint256",
          "name": "",
          "type": "uint256"
        }
      ],
      "stateMutability": "view",
      "type": "function"
    },
    {
      "inputs": [],
      "name": "requestRandomWords",
      "outputs": [
        {
          "internalType": "uint256",
          "name": "requestId",
          "type": "uint256"
        }
      ],
      "stateMutability": "nonpayable",
      "type": "function"
    },
    {
      "inputs": [
        {
          "internalType": "uint256",
          "name": "",
          "type": "uint256"
        }
      ],
      "name": "s_requests",
      "outputs": [
        {
          "internalType": "bool",
          "name": "fulfilled",
          "type": "bool"
        },
        {
          "internalType": "bool",
          "name": "exists",
          "type": "bool"
        }
      ],
      "stateMutability": "view",
      "type": "function"
    },
    {
      "inputs": [],
      "name": "s_subscriptionId",
      "outputs": [
        {
          "internalType": "uint256",
          "name": "",
          "type": "uint256"
        }
      ],
      "stateMutability": "view",
      "type": "function"
    },
    {
      "inputs": [],
      "name": "s_vrfCoordinator",
      "outputs": [
        {
          "internalType": "contract IVRFCoordinatorV2Plus",
          "name": "",
          "type": "address"
        }
      ],
      "stateMutability": "view",
      "type": "function"
    },
    {
      "inputs": [
        {
          "internalType": "address",
          "name": "_vrfCoordinator",
          "type": "address"
        }
      ],
      "name": "setCoordinator",
      "outputs": [],
      "stateMutability": "nonpayable",
      "type": "function"
    },
    {
      "inputs": [
        {
          "internalType": "address",
          "name": "to",
          "type": "address"
        }
      ],
      "name": "transferOwnership",
      "outputs": [],
      "stateMutability": "nonpayable",
      "type": "function"
    }
  ],
  "bytecode": "0x60806040527f787d74caea10b2b357790d5b5247c2f63d1d91572a9846f780606e4d953677ae60001b600755620186a0600860006101000a81548163ffffffff021916908363ffffffff1602179055506003600860046101000a81548161ffff021916908361ffff1602179055506002600860066101000a81548163ffffffff021916908363ffffffff1602179055503480156200009c57600080fd5b5060405162001f0a38038062001f0a8339818101604052810190620000c29190620003ff565b739ddfaca8183c41ad55329bdeed9f6a8d53168b1b338060008073ffffffffffffffffffffffffffffffffffffffff168273ffffffffffffffffffffffffffffffffffffffff1614156200014d576040517f08c379a0000000000000000000000000000000000000000000000000000000008152600401620001449062000492565b60405180910390fd5b816000806101000a81548173ffffffffffffffffffffffffffffffffffffffff021916908373ffffffffffffffffffffffffffffffffffffffff160217905550600073ffffffffffffffffffffffffffffffffffffffff168173ffffffffffffffffffffffffffffffffffffffff1614620001d457620001d3816200028f60201b60201c565b5b505050600073ffffffffffffffffffffffffffffffffffffffff168173ffffffffffffffffffffffffffffffffffffffff1614156200023f576040517fd92e233d00000000000000000000000000000000000000000000000000000000815260040160405180910390fd5b80600260006101000a81548173ffffffffffffffffffffffffffffffffffffffff021916908373ffffffffffffffffffffffffffffffffffffffff16021790555050806004819055505062000526565b3373ffffffffffffffffffffffffffffffffffffffff168173ffffffffffffffffffffffffffffffffffffffff16141562000301576040517f08c379a0000000000000000000000000000000000000000000000000000000008152600401620002f89062000504565b60405180910390fd5b80600160006101000a81548173ffffffffffffffffffffffffffffffffffffffff021916908373ffffffffffffffffffffffffffffffffffffffff1602179055508073ffffffffffffffffffffffffffffffffffffffff1660008054906101000a900473ffffffffffffffffffffffffffffffffffffffff1673ffffffffffffffffffffffffffffffffffffffff167fed8889f560326eb138920d842192f0eb3dd22b4f139c87a2c57538e05bae127860405160405180910390a350565b600080fd5b6000819050919050565b620003d981620003c4565b8114620003e557600080fd5b50565b600081519050620003f981620003ce565b92915050565b600060208284031215620004185762000417620003bf565b5b60006200042884828501620003e8565b91505092915050565b600082825260208201905092915050565b7f43616e6e6f7420736574206f776e657220746f207a65726f0000000000000000600082015250565b60006200047a60188362000431565b9150620004878262000442565b602082019050919050565b60006020820190508181036000830152620004ad816200046b565b9050919050565b7f43616e6e6f74207472616e7366657220746f2073656c66000000000000000000600082015250565b6000620004ec60178362000431565b9150620004f982620004b4565b602082019050919050565b600060208201905081810360008301526200051f81620004dd565b9050919050565b6119d480620005366000396000f3fe608060405234801561001057600080fd5b50600436106101005760003560e01c80638ea9811711610097578063d8a4676f11610066578063d8a4676f1461027a578063e0c86289146102ab578063f2fde38b146102c9578063fc2a88c3146102e557610100565b80638ea98117146101f15780639eccacf61461020d578063a168fa891461022b578063b0fb162f1461025c57610100565b80637ccfd7fc116100d35780637ccfd7fc146101675780638796ba8c146101855780638ac00021146101b55780638da5cb5b146101d357610100565b80631fe543e31461010557806324f746971461012157806361728f391461013f57806379ba50971461015d575b600080fd5b61011f600480360381019061011a91906110cc565b610303565b005b6101296103c9565b604051610136919061114b565b60405180910390f35b6101476103df565b604051610154919061117f565b60405180910390f35b6101656103e5565b005b61016f61057a565b60405161017c919061114b565b60405180910390f35b61019f600480360381019061019a919061119a565b610590565b6040516101ac91906111d6565b60405180910390f35b6101bd6105b4565b6040516101ca91906111d6565b60405180910390f35b6101db6105ba565b6040516101e89190611232565b60405180910390f35b61020b60048036038101906102069190611279565b6105e3565b005b6102156107c5565b6040516102229190611305565b60405180910390f35b6102456004803603810190610240919061119a565b6107eb565b60405161025392919061133b565b60405180910390f35b610264610829565b6040516102719190611381565b60405180910390f35b610294600480360381019061028f919061119a565b61083d565b6040516102a292919061145a565b60405180910390f35b6102b3610968565b6040516102c091906111d6565b60405180910390f35b6102e360048036038101906102de9190611279565b610c09565b005b6102ed610c1d565b6040516102fa91906111d6565b60405180910390f35b600260009054906101000a900473ffffffffffffffffffffffffffffffffffffffff1673ffffffffffffffffffffffffffffffffffffffff163373ffffffffffffffffffffffffffffffffffffffff16146103b95733600260009054906101000a900473ffffffffffffffffffffffffffffffffffffffff166040517f1cf993f40000000000000000000000000000000000000000000000000000000081526004016103b092919061148a565b60405180910390fd5b6103c4838383610c23565b505050565b600860009054906101000a900463ffffffff1681565b60075481565b600160009054906101000a900473ffffffffffffffffffffffffffffffffffffffff1673ffffffffffffffffffffffffffffffffffffffff163373ffffffffffffffffffffffffffffffffffffffff1614610475576040517f08c379a000000000000000000000000000000000000000000000000000000000815260040161046c90611510565b60405180910390fd5b60008060009054906101000a900473ffffffffffffffffffffffffffffffffffffffff169050336000806101000a81548173ffffffffffffffffffffffffffffffffffffffff021916908373ffffffffffffffffffffffffffffffffffffffff1602179055506000600160006101000a81548173ffffffffffffffffffffffffffffffffffffffff021916908373ffffffffffffffffffffffffffffffffffffffff1602179055503373ffffffffffffffffffffffffffffffffffffffff168173ffffffffffffffffffffffffffffffffffffffff167f8be0079c531659141344cd1fd0a4f28419497f9722a3daafe3b4186f6b6457e060405160405180910390a350565b600860069054906101000a900463ffffffff1681565b600581815481106105a057600080fd5b906000526020600020016000915090505481565b60045481565b60008060009054906101000a900473ffffffffffffffffffffffffffffffffffffffff16905090565b6105eb6105ba565b73ffffffffffffffffffffffffffffffffffffffff163373ffffffffffffffffffffffffffffffffffffffff16141580156106745750600260009054906101000a900473ffffffffffffffffffffffffffffffffffffffff1673ffffffffffffffffffffffffffffffffffffffff163373ffffffffffffffffffffffffffffffffffffffff1614155b156106e357336106826105ba565b600260009054906101000a900473ffffffffffffffffffffffffffffffffffffffff166040517f061db9c10000000000000000000000000000000000000000000000000000000081526004016106da93929190611530565b60405180910390fd5b600073ffffffffffffffffffffffffffffffffffffffff168173ffffffffffffffffffffffffffffffffffffffff16141561074a576040517fd92e233d00000000000000000000000000000000000000000000000000000000815260040160405180910390fd5b80600260006101000a81548173ffffffffffffffffffffffffffffffffffffffff021916908373ffffffffffffffffffffffffffffffffffffffff1602179055507fd1a6a14209a385a964d036e404cb5cfb71f4000cdb03c9366292430787261be6816040516107ba9190611232565b60405180910390a150565b600260009054906101000a900473ffffffffffffffffffffffffffffffffffffffff1681565b60036020528060005260406000206000915090508060000160009054906101000a900460ff16908060000160019054906101000a900460ff16905082565b600860049054906101000a900461ffff1681565b600060606003600084815260200190815260200160002060000160019054906101000a900460ff166108a4576040517f08c379a000000000000000000000000000000000000000000000000000000000815260040161089b906115b3565b60405180910390fd5b6000600360008581526020019081526020016000206040518060600160405290816000820160009054906101000a900460ff161515151581526020016000820160019054906101000a900460ff161515151581526020016001820180548060200260200160405190810160405280929190818152602001828054801561094957602002820191906000526020600020905b815481526020019060010190808311610935575b5050505050815250509050806000015181604001519250925050915091565b6000610972610d1b565b600260009054906101000a900473ffffffffffffffffffffffffffffffffffffffff1673ffffffffffffffffffffffffffffffffffffffff16639b1c385e6040518060c0016040528060075481526020016004548152602001600860049054906101000a900461ffff1661ffff168152602001600860009054906101000a900463ffffffff1663ffffffff168152602001600860069054906101000a900463ffffffff1663ffffffff168152602001610a3b604051806020016040528060001515815250610dab565b8152506040518263ffffffff1660e01b8152600401610a5a9190611722565b602060405180830381600087803b158015610a7457600080fd5b505af1158015610a88573d6000803e3d6000fd5b505050506040513d601f19601f82011682018060405250810190610aac9190611759565b90506040518060600160405280600015158152602001600115158152602001600067ffffffffffffffff811115610ae657610ae5611786565b5b604051908082528060200260200182016040528015610b145781602001602082028036833780820191505090505b508152506003600083815260200190815260200160002060008201518160000160006101000a81548160ff02191690831515021790555060208201518160000160016101000a81548160ff0219169083151502179055506040820151816001019080519060200190610b87929190610f70565b509050506005819080600181540180825580915050600190039060005260206000200160009091909190915055806006819055507fcc58b13ad3eab50626c6a6300b1d139cd6ebb1688a7cced9461c2f7e762665ee81600860069054906101000a900463ffffffff16604051610bfe9291906117b5565b60405180910390a190565b610c11610d1b565b610c1a81610e43565b50565b60065481565b6003600084815260200190815260200160002060000160019054906101000a900460ff16610c86576040517f08c379a0000000000000000000000000000000000000000000000000000000008152600401610c7d906115b3565b60405180910390fd5b60016003600085815260200190815260200160002060000160006101000a81548160ff0219169083151502179055508181600360008681526020019081526020016000206001019190610cda929190610fbd565b507ffe2e2d779dba245964d4e3ef9b994be63856fd568bf7d3ca9e224755cb1bd54d838383604051610d0e9392919061184e565b60405180910390a1505050565b60008054906101000a900473ffffffffffffffffffffffffffffffffffffffff1673ffffffffffffffffffffffffffffffffffffffff163373ffffffffffffffffffffffffffffffffffffffff1614610da9576040517f08c379a0000000000000000000000000000000000000000000000000000000008152600401610da0906118cc565b60405180910390fd5b565b60607f92fd13387c7fe7befbc38d303d6468778fb9731bc4583f17d92989c6fcfdeaaa82604051602401610ddf9190611917565b604051602081830303815290604052907bffffffffffffffffffffffffffffffffffffffffffffffffffffffff19166020820180517bffffffffffffffffffffffffffffffffffffffffffffffffffffffff83818316178352505050509050919050565b3373ffffffffffffffffffffffffffffffffffffffff168173ffffffffffffffffffffffffffffffffffffffff161415610eb2576040517f08c379a0000000000000000000000000000000000000000000000000000000008152600401610ea99061197e565b60405180910390fd5b80600160006101000a81548173ffffffffffffffffffffffffffffffffffffffff021916908373ffffffffffffffffffffffffffffffffffffffff1602179055508073ffffffffffffffffffffffffffffffffffffffff1660008054906101000a900473ffffffffffffffffffffffffffffffffffffffff1673ffffffffffffffffffffffffffffffffffffffff167fed8889f560326eb138920d842192f0eb3dd22b4f139c87a2c57538e05bae127860405160405180910390a350565b828054828255906000526020600020908101928215610fac579160200282015b82811115610fab578251825591602001919060010190610f90565b5b509050610fb9919061100a565b5090565b828054828255906000526020600020908101928215610ff9579160200282015b82811115610ff8578235825591602001919060010190610fdd565b5b509050611006919061100a565b5090565b5b8082111561102357600081600090555060010161100b565b5090565b600080fd5b600080fd5b6000819050919050565b61104481611031565b811461104f57600080fd5b50565b6000813590506110618161103b565b92915050565b600080fd5b600080fd5b600080fd5b60008083601f84011261108c5761108b611067565b5b8235905067ffffffffffffffff8111156110a9576110a861106c565b5b6020830191508360208202830111156110c5576110c4611071565b5b9250929050565b6000806000604084860312156110e5576110e4611027565b5b60006110f386828701611052565b935050602084013567ffffffffffffffff8111156111145761111361102c565b5b61112086828701611076565b92509250509250925092565b600063ffffffff82169050919050565b6111458161112c565b82525050565b6000602082019050611160600083018461113c565b92915050565b6000819050919050565b61117981611166565b82525050565b60006020820190506111946000830184611170565b92915050565b6000602082840312156111b0576111af611027565b5b60006111be84828501611052565b91505092915050565b6111d081611031565b82525050565b60006020820190506111eb60008301846111c7565b92915050565b600073ffffffffffffffffffffffffffffffffffffffff82169050919050565b600061121c826111f1565b9050919050565b61122c81611211565b82525050565b60006020820190506112476000830184611223565b92915050565b61125681611211565b811461126157600080fd5b50565b6000813590506112738161124d565b92915050565b60006020828403121561128f5761128e611027565b5b600061129d84828501611264565b91505092915050565b6000819050919050565b60006112cb6112c66112c1846111f1565b6112a6565b6111f1565b9050919050565b60006112dd826112b0565b9050919050565b60006112ef826112d2565b9050919050565b6112ff816112e4565b82525050565b600060208201905061131a60008301846112f6565b92915050565b60008115159050919050565b61133581611320565b82525050565b6000604082019050611350600083018561132c565b61135d602083018461132c565b9392505050565b600061ffff82169050919050565b61137b81611364565b82525050565b60006020820190506113966000830184611372565b92915050565b600081519050919050565b600082825260208201905092915050565b6000819050602082019050919050565b6113d181611031565b82525050565b60006113e383836113c8565b60208301905092915050565b6000602082019050919050565b60006114078261139c565b61141181856113a7565b935061141c836113b8565b8060005b8381101561144d57815161143488826113d7565b975061143f836113ef565b925050600181019050611420565b5085935050505092915050565b600060408201905061146f600083018561132c565b818103602083015261148181846113fc565b90509392505050565b600060408201905061149f6000830185611223565b6114ac6020830184611223565b9392505050565b600082825260208201905092915050565b7f4d7573742062652070726f706f736564206f776e657200000000000000000000600082015250565b60006114fa6016836114b3565b9150611505826114c4565b602082019050919050565b60006020820190508181036000830152611529816114ed565b9050919050565b60006060820190506115456000830186611223565b6115526020830185611223565b61155f6040830184611223565b949350505050565b7f72657175657374206e6f7420666f756e64000000000000000000000000000000600082015250565b600061159d6011836114b3565b91506115a882611567565b602082019050919050565b600060208201905081810360008301526115cc81611590565b9050919050565b6115dc81611166565b82525050565b6115eb81611364565b82525050565b6115fa8161112c565b82525050565b600081519050919050565b600082825260208201905092915050565b60005b8381101561163a57808201518184015260208101905061161f565b83811115611649576000848401525b50505050565b6000601f19601f8301169050919050565b600061166b82611600565b611675818561160b565b935061168581856020860161161c565b61168e8161164f565b840191505092915050565b600060c0830160008301516116b160008601826115d3565b5060208301516116c460208601826113c8565b5060408301516116d760408601826115e2565b5060608301516116ea60608601826115f1565b5060808301516116fd60808601826115f1565b5060a083015184820360a08601526117158282611660565b9150508091505092915050565b6000602082019050818103600083015261173c8184611699565b905092915050565b6000815190506117538161103b565b92915050565b60006020828403121561176f5761176e611027565b5b600061177d84828501611744565b91505092915050565b7f4e487b7100000000000000000000000000000000000000000000000000000000600052604160045260246000fd5b60006040820190506117ca60008301856111c7565b6117d7602083018461113c565b9392505050565b600080fd5b82818337600083830152505050565b60006117fe83856113a7565b93507f07ffffffffffffffffffffffffffffffffffffffffffffffffffffffffffffff831115611831576118306117de565b5b6020830292506118428385846117e3565b82840190509392505050565b600060408201905061186360008301866111c7565b81810360208301526118768184866117f2565b9050949350505050565b7f4f6e6c792063616c6c61626c65206279206f776e657200000000000000000000600082015250565b60006118b66016836114b3565b91506118c182611880565b602082019050919050565b600060208201905081810360008301526118e5816118a9565b9050919050565b6118f581611320565b82525050565b60208201600082015161191160008501826118ec565b50505050565b600060208201905061192c60008301846118fb565b92915050565b7f43616e6e6f74207472616e7366657220746f2073656c66000000000000000000600082015250565b60006119686017836114b3565b915061197382611932565b602082019050919050565b600060208201905081810360008301526119978161195b565b905091905056fea264697066735822122008c20f520f117fad90365a52e5610616f821bae5902fb4b35da40f843a55c5d364736f6c63430008080033",
  "linkReferences": {},
  "deployedLinkReferences": {}
}