{
  "_format": "hh-sol-artifact-1",
  "contractName": "SubscriptionConsumer",
  "sourceName": "contracts/GroupAssignment.sol",
  "abi": [
    {
      "inputs": [
        {
          "internalType": "uint256",
          "name": "subscriptionId",
          "type": "uint256"
        }
      ],
      "stateMutability": "nonpayable",
      "type": "constructor"
    },
    {
      "inputs": [
        {
          "internalType": "address",
          "name": "have",
          "type": "address"
        },
        {
          "internalType": "address",
          "name": "want",
          "type": "address"
        }
      ],
      "name": "OnlyCoordinatorCanFulfill",
      "type": "error"
    },
    {
      "inputs": [
        {
          "internalType": "address",
          "name": "have",
          "type": "address"
        },
        {
          "internalType": "address",
          "name": "owner",
          "type": "address"
        },
        {
          "internalType": "address",
          "name": "coordinator",
          "type": "address"
        }
      ],
      "name": "OnlyOwnerOrCoordinator",
      "type": "error"
    },
    {
      "inputs": [],
      "name": "ZeroAddress",
      "type": "error"
    },
    {
      "anonymous": false,
      "inputs": [
        {
          "indexed": false,
          "internalType": "address",
          "name": "vrfCoordinator",
          "type": "address"
        }
      ],
      "name": "CoordinatorSet",
      "type": "event"
    },
    {
      "anonymous": false,
      "inputs": [
        {
          "indexed": true,
          "internalType": "address",
          "name": "from",
          "type": "address"
        },
        {
          "indexed": true,
          "internalType": "address",
          "name": "to",
          "type": "address"
        }
      ],
      "name": "OwnershipTransferRequested",
      "type": "event"
    },
    {
      "anonymous": false,
      "inputs": [
        {
          "indexed": true,
          "internalType": "address",
          "name": "from",
          "type": "address"
        },
        {
          "indexed": true,
          "internalType": "address",
          "name": "to",
          "type": "address"
        }
      ],
      "name": "OwnershipTransferred",
      "type": "event"
    },
    {
      "anonymous": false,
      "inputs": [
        {
          "indexed": false,
          "internalType": "uint256",
          "name": "requestId",
          "type": "uint256"
        },
        {
          "indexed": false,
          "internalType": "uint256[]",
          "name": "randomWords",
          "type": "uint256[]"
        }
      ],
      "name": "RequestFulfilled",
      "type": "event"
    },
    {
      "anonymous": false,
      "inputs": [
        {
          "indexed": false,
          "internalType": "uint256",
          "name": "requestId",
          "type": "uint256"
        },
        {
          "indexed": false,
          "internalType": "uint32",
          "name": "numWords",
          "type": "uint32"
        }
      ],
      "name": "RequestSent",
      "type": "event"
    },
    {
      "inputs": [],
      "name": "acceptOwnership",
      "outputs": [],
      "stateMutability": "nonpayable",
      "type": "function"
    },
    {
      "inputs": [],
      "name": "callbackGasLimit",
      "outputs": [
        {
          "internalType": "uint32",
          "name": "",
          "type": "uint32"
        }
      ],
      "stateMutability": "view",
      "type": "function"
    },
    {
      "inputs": [
        {
          "internalType": "uint256",
          "name": "_requestId",
          "type": "uint256"
        }
      ],
      "name": "getRequestStatus",
      "outputs": [
        {
          "internalType": "bool",
          "name": "fulfilled",
          "type": "bool"
        },
        {
          "internalType": "uint256[]",
          "name": "randomWords",
          "type": "uint256[]"
        }
      ],
      "stateMutability": "view",
      "type": "function"
    },
    {
      "inputs": [],
      "name": "keyHash",
      "outputs": [
        {
          "internalType": "bytes32",
          "name": "",
          "type": "bytes32"
        }
      ],
      "stateMutability": "view",
      "type": "function"
    },
    {
      "inputs": [],
      "name": "lastRequestId",
      "outputs": [
        {
          "internalType": "uint256",
          "name": "",
          "type": "uint256"
        }
      ],
      "stateMutability": "view",
      "type": "function"
    },
    {
      "inputs": [],
      "name": "numWords",
      "outputs": [
        {
          "internalType": "uint32",
          "name": "",
          "type": "uint32"
        }
      ],
      "stateMutability": "view",
      "type": "function"
    },
    {
      "inputs": [],
      "name": "owner",
      "outputs": [
        {
          "internalType": "address",
          "name": "",
          "type": "address"
        }
      ],
      "stateMutability": "view",
      "type": "function"
    },
    {
      "inputs": [
        {
          "internalType": "uint256",
          "name": "requestId",
          "type": "uint256"
        },
        {
          "internalType": "uint256[]",
          "name": "randomWords",
          "type": "uint256[]"
        }
      ],
      "name": "rawFulfillRandomWords",
      "outputs": [],
      "stateMutability": "nonpayable",
      "type": "function"
    },
    {
      "inputs": [],
      "name": "requestConfirmations",
      "outputs": [
        {
          "internalType": "uint16",
          "name": "",
          "type": "uint16"
        }
      ],
      "stateMutability": "view",
      "type": "function"
    },
    {
      "inputs": [
        {
          "internalType": "uint256",
          "name": "",
          "type": "uint256"
        }
      ],
      "name": "requestIds",
      "outputs": [
        {
          "internalType": "uint256",
          "name": "",
          "type": "uint256"
        }
      ],
      "stateMutability": "view",
      "type": "function"
    },
    {
      "inputs": [],
      "name": "requestRandomWords",
      "outputs": [
        {
          "internalType": "uint256",
          "name": "requestId",
          "type": "uint256"
        }
      ],
      "stateMutability": "nonpayable",
      "type": "function"
    },
    {
      "inputs": [
        {
          "internalType": "uint256",
          "name": "",
          "type": "uint256"
        }
      ],
      "name": "s_requests",
      "outputs": [
        {
          "internalType": "bool",
          "name": "fulfilled",
          "type": "bool"
        },
        {
          "internalType": "bool",
          "name": "exists",
          "type": "bool"
        }
      ],
      "stateMutability": "view",
      "type": "function"
    },
    {
      "inputs": [],
      "name": "s_subscriptionId",
      "outputs": [
        {
          "internalType": "uint256",
          "name": "",
          "type": "uint256"
        }
      ],
      "stateMutability": "view",
      "type": "function"
    },
    {
      "inputs": [],
      "name": "s_vrfCoordinator",
      "outputs": [
        {
          "internalType": "contract IVRFCoordinatorV2Plus",
          "name": "",
          "type": "address"
        }
      ],
      "stateMutability": "view",
      "type": "function"
    },
    {
      "inputs": [
        {
          "internalType": "address",
          "name": "_vrfCoordinator",
          "type": "address"
        }
      ],
      "name": "setCoordinator",
      "outputs": [],
      "stateMutability": "nonpayable",
      "type": "function"
    },
    {
      "inputs": [
        {
          "internalType": "address",
          "name": "to",
          "type": "address"
        }
      ],
      "name": "transferOwnership",
      "outputs": [],
      "stateMutability": "nonpayable",
      "type": "function"
    }
  ],
  "bytecode": "0x60806040527f787d74caea10b2b357790d5b5247c2f63d1d91572a9846f780606e4d953677ae60001b600755620186a0600860006101000a81548163ffffffff021916908363ffffffff1602179055506003600860046101000a81548161ffff021916908361ffff1602179055506002600860066101000a81548163ffffffff021916908363ffffffff1602179055503480156200009c57600080fd5b5060405162001ef038038062001ef08339818101604052810190620000c29190620003d6565b739ddfaca8183c41ad55329bdeed9f6a8d53168b1b338060008073ffffffffffffffffffffffffffffffffffffffff168273ffffffffffffffffffffffffffffffffffffffff1614156200014d576040517f08c379a0000000000000000000000000000000000000000000000000000000008152600401620001449062000456565b60405180910390fd5b816000806101000a81548173ffffffffffffffffffffffffffffffffffffffff021916908373ffffffffffffffffffffffffffffffffffffffff160217905550600073ffffffffffffffffffffffffffffffffffffffff168173ffffffffffffffffffffffffffffffffffffffff1614620001d457620001d3816200028f60201b60201c565b5b505050600073ffffffffffffffffffffffffffffffffffffffff168173ffffffffffffffffffffffffffffffffffffffff1614156200023f576040517fd92e233d00000000000000000000000000000000000000000000000000000000815260040160405180910390fd5b80600260006101000a81548173ffffffffffffffffffffffffffffffffffffffff021916908373ffffffffffffffffffffffffffffffffffffffff16021790555050806004819055505062000526565b3373ffffffffffffffffffffffffffffffffffffffff168173ffffffffffffffffffffffffffffffffffffffff16141562000301576040517f08c379a0000000000000000000000000000000000000000000000000000000008152600401620002f89062000478565b60405180910390fd5b80600160006101000a81548173ffffffffffffffffffffffffffffffffffffffff021916908373ffffffffffffffffffffffffffffffffffffffff1602179055508073ffffffffffffffffffffffffffffffffffffffff1660008054906101000a900473ffffffffffffffffffffffffffffffffffffffff1673ffffffffffffffffffffffffffffffffffffffff167fed8889f560326eb138920d842192f0eb3dd22b4f139c87a2c57538e05bae127860405160405180910390a350565b600081519050620003d0816200050c565b92915050565b600060208284031215620003ef57620003ee620004b5565b5b6000620003ff84828501620003bf565b91505092915050565b6000620004176018836200049a565b91506200042482620004ba565b602082019050919050565b60006200043e6017836200049a565b91506200044b82620004e3565b602082019050919050565b60006020820190508181036000830152620004718162000408565b9050919050565b6000602082019050818103600083015262000493816200042f565b9050919050565b600082825260208201905092915050565b6000819050919050565b600080fd5b7f43616e6e6f7420736574206f776e657220746f207a65726f0000000000000000600082015250565b7f43616e6e6f74207472616e7366657220746f2073656c66000000000000000000600082015250565b6200051781620004ab565b81146200052357600080fd5b50565b6119ba80620005366000396000f3fe608060405234801561001057600080fd5b50600436106101005760003560e01c80638ea9811711610097578063d8a4676f11610066578063d8a4676f1461027a578063e0c86289146102ab578063f2fde38b146102c9578063fc2a88c3146102e557610100565b80638ea98117146101f15780639eccacf61461020d578063a168fa891461022b578063b0fb162f1461025c57610100565b80637ccfd7fc116100d35780637ccfd7fc146101675780638796ba8c146101855780638ac00021146101b55780638da5cb5b146101d357610100565b80631fe543e31461010557806324f746971461012157806361728f391461013f57806379ba50971461015d575b600080fd5b61011f600480360381019061011a9190611143565b610303565b005b6101296103c9565b60405161013691906116eb565b60405180910390f35b6101476103df565b6040516101549190611567565b60405180910390f35b6101656103e5565b005b61016f61057a565b60405161017c91906116eb565b60405180910390f35b61019f600480360381019061019a91906110e9565b610590565b6040516101ac9190611675565b60405180910390f35b6101bd6105b4565b6040516101ca9190611675565b60405180910390f35b6101db6105ba565b6040516101e89190611493565b60405180910390f35b61020b600480360381019061020691906110bc565b6105e3565b005b6102156107c5565b6040516102229190611582565b60405180910390f35b610245600480360381019061024091906110e9565b6107eb565b60405161025392919061153e565b60405180910390f35b610264610829565b604051610271919061165a565b60405180910390f35b610294600480360381019061028f91906110e9565b61083d565b6040516102a292919061150e565b60405180910390f35b6102b3610968565b6040516102c09190611675565b60405180910390f35b6102e360048036038101906102de91906110bc565b610c09565b005b6102ed610c1d565b6040516102fa9190611675565b60405180910390f35b600260009054906101000a900473ffffffffffffffffffffffffffffffffffffffff1673ffffffffffffffffffffffffffffffffffffffff163373ffffffffffffffffffffffffffffffffffffffff16146103b95733600260009054906101000a900473ffffffffffffffffffffffffffffffffffffffff166040517f1cf993f40000000000000000000000000000000000000000000000000000000081526004016103b09291906114ae565b60405180910390fd5b6103c4838383610c23565b505050565b600860009054906101000a900463ffffffff1681565b60075481565b600160009054906101000a900473ffffffffffffffffffffffffffffffffffffffff1673ffffffffffffffffffffffffffffffffffffffff163373ffffffffffffffffffffffffffffffffffffffff1614610475576040517f08c379a000000000000000000000000000000000000000000000000000000000815260040161046c906115bd565b60405180910390fd5b60008060009054906101000a900473ffffffffffffffffffffffffffffffffffffffff169050336000806101000a81548173ffffffffffffffffffffffffffffffffffffffff021916908373ffffffffffffffffffffffffffffffffffffffff1602179055506000600160006101000a81548173ffffffffffffffffffffffffffffffffffffffff021916908373ffffffffffffffffffffffffffffffffffffffff1602179055503373ffffffffffffffffffffffffffffffffffffffff168173ffffffffffffffffffffffffffffffffffffffff167f8be0079c531659141344cd1fd0a4f28419497f9722a3daafe3b4186f6b6457e060405160405180910390a350565b600860069054906101000a900463ffffffff1681565b600581815481106105a057600080fd5b906000526020600020016000915090505481565b60045481565b60008060009054906101000a900473ffffffffffffffffffffffffffffffffffffffff16905090565b6105eb6105ba565b73ffffffffffffffffffffffffffffffffffffffff163373ffffffffffffffffffffffffffffffffffffffff16141580156106745750600260009054906101000a900473ffffffffffffffffffffffffffffffffffffffff1673ffffffffffffffffffffffffffffffffffffffff163373ffffffffffffffffffffffffffffffffffffffff1614155b156106e357336106826105ba565b600260009054906101000a900473ffffffffffffffffffffffffffffffffffffffff166040517f061db9c10000000000000000000000000000000000000000000000000000000081526004016106da939291906114d7565b60405180910390fd5b600073ffffffffffffffffffffffffffffffffffffffff168173ffffffffffffffffffffffffffffffffffffffff16141561074a576040517fd92e233d00000000000000000000000000000000000000000000000000000000815260040160405180910390fd5b80600260006101000a81548173ffffffffffffffffffffffffffffffffffffffff021916908373ffffffffffffffffffffffffffffffffffffffff1602179055507fd1a6a14209a385a964d036e404cb5cfb71f4000cdb03c9366292430787261be6816040516107ba9190611493565b60405180910390a150565b600260009054906101000a900473ffffffffffffffffffffffffffffffffffffffff1681565b60036020528060005260406000206000915090508060000160009054906101000a900460ff16908060000160019054906101000a900460ff16905082565b600860049054906101000a900461ffff1681565b600060606003600084815260200190815260200160002060000160019054906101000a900460ff166108a4576040517f08c379a000000000000000000000000000000000000000000000000000000000815260040161089b9061159d565b60405180910390fd5b6000600360008581526020019081526020016000206040518060600160405290816000820160009054906101000a900460ff161515151581526020016000820160019054906101000a900460ff161515151581526020016001820180548060200260200160405190810160405280929190818152602001828054801561094957602002820191906000526020600020905b815481526020019060010190808311610935575b5050505050815250509050806000015181604001519250925050915091565b6000610972610d1b565b600260009054906101000a900473ffffffffffffffffffffffffffffffffffffffff1673ffffffffffffffffffffffffffffffffffffffff16639b1c385e6040518060c0016040528060075481526020016004548152602001600860049054906101000a900461ffff1661ffff168152602001600860009054906101000a900463ffffffff1663ffffffff168152602001600860069054906101000a900463ffffffff1663ffffffff168152602001610a3b604051806020016040528060001515815250610dab565b8152506040518263ffffffff1660e01b8152600401610a5a9190611638565b602060405180830381600087803b158015610a7457600080fd5b505af1158015610a88573d6000803e3d6000fd5b505050506040513d601f19601f82011682018060405250810190610aac9190611116565b90506040518060600160405280600015158152602001600115158152602001600067ffffffffffffffff811115610ae657610ae5611854565b5b604051908082528060200260200182016040528015610b145781602001602082028036833780820191505090505b508152506003600083815260200190815260200160002060008201518160000160006101000a81548160ff02191690831515021790555060208201518160000160016101000a81548160ff0219169083151502179055506040820151816001019080519060200190610b87929190610f70565b509050506005819080600181540180825580915050600190039060005260206000200160009091909190915055806006819055507fcc58b13ad3eab50626c6a6300b1d139cd6ebb1688a7cced9461c2f7e762665ee81600860069054906101000a900463ffffffff16604051610bfe9291906116c2565b60405180910390a190565b610c11610d1b565b610c1a81610e43565b50565b60065481565b6003600084815260200190815260200160002060000160019054906101000a900460ff16610c86576040517f08c379a0000000000000000000000000000000000000000000000000000000008152600401610c7d9061159d565b60405180910390fd5b60016003600085815260200190815260200160002060000160006101000a81548160ff0219169083151502179055508181600360008681526020019081526020016000206001019190610cda929190610fbd565b507ffe2e2d779dba245964d4e3ef9b994be63856fd568bf7d3ca9e224755cb1bd54d838383604051610d0e93929190611690565b60405180910390a1505050565b60008054906101000a900473ffffffffffffffffffffffffffffffffffffffff1673ffffffffffffffffffffffffffffffffffffffff163373ffffffffffffffffffffffffffffffffffffffff1614610da9576040517f08c379a0000000000000000000000000000000000000000000000000000000008152600401610da0906115dd565b60405180910390fd5b565b60607f92fd13387c7fe7befbc38d303d6468778fb9731bc4583f17d92989c6fcfdeaaa82604051602401610ddf919061161d565b604051602081830303815290604052907bffffffffffffffffffffffffffffffffffffffffffffffffffffffff19166020820180517bffffffffffffffffffffffffffffffffffffffffffffffffffffffff83818316178352505050509050919050565b3373ffffffffffffffffffffffffffffffffffffffff168173ffffffffffffffffffffffffffffffffffffffff161415610eb2576040517f08c379a0000000000000000000000000000000000000000000000000000000008152600401610ea9906115fd565b60405180910390fd5b80600160006101000a81548173ffffffffffffffffffffffffffffffffffffffff021916908373ffffffffffffffffffffffffffffffffffffffff1602179055508073ffffffffffffffffffffffffffffffffffffffff1660008054906101000a900473ffffffffffffffffffffffffffffffffffffffff1673ffffffffffffffffffffffffffffffffffffffff167fed8889f560326eb138920d842192f0eb3dd22b4f139c87a2c57538e05bae127860405160405180910390a350565b828054828255906000526020600020908101928215610fac579160200282015b82811115610fab578251825591602001919060010190610f90565b5b509050610fb9919061100a565b5090565b828054828255906000526020600020908101928215610ff9579160200282015b82811115610ff8578235825591602001919060010190610fdd565b5b509050611006919061100a565b5090565b5b8082111561102357600081600090555060010161100b565b5090565b60008135905061103681611956565b92915050565b60008083601f84011261105257611051611888565b5b8235905067ffffffffffffffff81111561106f5761106e611883565b5b60208301915083602082028301111561108b5761108a61188d565b5b9250929050565b6000813590506110a18161196d565b92915050565b6000815190506110b68161196d565b92915050565b6000602082840312156110d2576110d161189c565b5b60006110e084828501611027565b91505092915050565b6000602082840312156110ff576110fe61189c565b5b600061110d84828501611092565b91505092915050565b60006020828403121561112c5761112b61189c565b5b600061113a848285016110a7565b91505092915050565b60008060006040848603121561115c5761115b61189c565b5b600061116a86828701611092565b935050602084013567ffffffffffffffff81111561118b5761118a611892565b5b6111978682870161103c565b92509250509250925092565b60006111af8383611457565b60208301905092915050565b6111c48161176c565b82525050565b60006111d68385611739565b93507f07ffffffffffffffffffffffffffffffffffffffffffffffffffffffffffffff83111561120957611208611897565b5b60208302925061121a838584611812565b82840190509392505050565b600061123182611716565b61123b8185611739565b935061124683611706565b8060005b8381101561127757815161125e88826111a3565b97506112698361172c565b92505060018101905061124a565b5085935050505092915050565b61128d8161177e565b82525050565b61129c8161177e565b82525050565b6112ab8161178a565b82525050565b6112ba8161178a565b82525050565b60006112cb82611721565b6112d5818561174a565b93506112e5818560208601611821565b6112ee816118a1565b840191505092915050565b611302816117dc565b82525050565b600061131560118361175b565b9150611320826118b2565b602082019050919050565b600061133860168361175b565b9150611343826118db565b602082019050919050565b600061135b60168361175b565b915061136682611904565b602082019050919050565b600061137e60178361175b565b91506113898261192d565b602082019050919050565b6020820160008201516113aa6000850182611284565b50505050565b600060c0830160008301516113c860008601826112a2565b5060208301516113db6020860182611457565b5060408301516113ee6040860182611439565b5060608301516114016060860182611475565b5060808301516114146080860182611475565b5060a083015184820360a086015261142c82826112c0565b9150508091505092915050565b61144281611794565b82525050565b61145181611794565b82525050565b611460816117c2565b82525050565b61146f816117c2565b82525050565b61147e816117cc565b82525050565b61148d816117cc565b82525050565b60006020820190506114a860008301846111bb565b92915050565b60006040820190506114c360008301856111bb565b6114d060208301846111bb565b9392505050565b60006060820190506114ec60008301866111bb565b6114f960208301856111bb565b61150660408301846111bb565b949350505050565b60006040820190506115236000830185611293565b81810360208301526115358184611226565b90509392505050565b60006040820190506115536000830185611293565b6115606020830184611293565b9392505050565b600060208201905061157c60008301846112b1565b92915050565b600060208201905061159760008301846112f9565b92915050565b600060208201905081810360008301526115b681611308565b9050919050565b600060208201905081810360008301526115d68161132b565b9050919050565b600060208201905081810360008301526115f68161134e565b9050919050565b6000602082019050818103600083015261161681611371565b9050919050565b60006020820190506116326000830184611394565b92915050565b6000602082019050818103600083015261165281846113b0565b905092915050565b600060208201905061166f6000830184611448565b92915050565b600060208201905061168a6000830184611466565b92915050565b60006040820190506116a56000830186611466565b81810360208301526116b88184866111ca565b9050949350505050565b60006040820190506116d76000830185611466565b6116e46020830184611484565b9392505050565b60006020820190506117006000830184611484565b92915050565b6000819050602082019050919050565b600081519050919050565b600081519050919050565b6000602082019050919050565b600082825260208201905092915050565b600082825260208201905092915050565b600082825260208201905092915050565b6000611777826117a2565b9050919050565b60008115159050919050565b6000819050919050565b600061ffff82169050919050565b600073ffffffffffffffffffffffffffffffffffffffff82169050919050565b6000819050919050565b600063ffffffff82169050919050565b60006117e7826117ee565b9050919050565b60006117f982611800565b9050919050565b600061180b826117a2565b9050919050565b82818337600083830152505050565b60005b8381101561183f578082015181840152602081019050611824565b8381111561184e576000848401525b50505050565b7f4e487b7100000000000000000000000000000000000000000000000000000000600052604160045260246000fd5b600080fd5b600080fd5b600080fd5b600080fd5b600080fd5b600080fd5b6000601f19601f8301169050919050565b7f72657175657374206e6f7420666f756e64000000000000000000000000000000600082015250565b7f4d7573742062652070726f706f736564206f776e657200000000000000000000600082015250565b7f4f6e6c792063616c6c61626c65206279206f776e657200000000000000000000600082015250565b7f43616e6e6f74207472616e7366657220746f2073656c66000000000000000000600082015250565b61195f8161176c565b811461196a57600080fd5b50565b611976816117c2565b811461198157600080fd5b5056fea2646970667358221220485d3ecb9c1e5f321a95f81610da8f2de8c0cba74b38de39ff05b05194f4f8ec64736f6c63430008070033",
  "linkReferences": {},
  "deployedLinkReferences": {}
}